{
	"data": {
		"bytecode": {
			"linkReferences": {},
			"object": "608060405234801561001057600080fd5b50610faa806100206000396000f3fe608060405234801561001057600080fd5b50600436106101425760003560e01c80638b31e9a2116100b8578063bbe465851161007c578063bbe4658514610237578063c30a77411461024a578063ce9dd1bc14610252578063d0cd2b061461025a578063d57b4c081461026d578063fcdf089b1461028057610142565b80638b31e9a2146101e3578063a1728325146101f6578063a6ced94714610209578063ae6f039c1461021c578063bbdcf3aa1461022f57610142565b80635e2d15ed1161010a5780635e2d15ed1461019d5780636035b952146101a55780636a79293a146101ad5780637773f0cd146101b55780638385e567146101c857806384d8b64f146101db57610142565b806313f6658714610147578063313861a71461016557806334cf211e1461016d5780633ed3a0541461018d57806342555f3d14610195575b600080fd5b61014f610293565b60405161015c9190610ef7565b60405180910390f35b61014f610298565b61018061017b3660046106e3565b61029d565b60405161015c9190610ec4565b61014f6102e5565b61014f6102ea565b61014f6102ef565b61014f6102f4565b61014f6102f9565b6101806101c33660046106e3565b6102fe565b6101806101d636600461071d565b610330565b61014f61034d565b6101806101f13660046106e3565b610352565b610180610204366004610a6a565b610384565b61018061021736600461099f565b6103c2565b61018061022a366004610888565b6103f4565b61014f610438565b61018061024536600461099f565b61043d565b61014f61046f565b61014f610474565b610180610268366004610856565b610479565b61018061027b366004610856565b6104a5565b61018061028e3660046107a8565b6104d1565b600681565b600e81565b60606004826000015183602001518460400151856060015186608001516040516020016102cf96959493929190610c12565b6040516020818303038152906040529050919050565b600a81565b600881565b600481565b601181565b601381565b60606010826000015183602001518460400151856060015186608001516040516020016102cf96959493929190610c12565b80516020808301516040516060936102cf93601293919201610bdc565b601281565b60606008826000015183602001518460400151856060015186608001516040516020016102cf96959493929190610c12565b8051602080830151604080850151606086810151608088015160a089015160c08a015160e08b0151965194996102cf99600e99919891979601610d67565b6060600c826000015183602001518460400151856060015186608001516040516020016102cf96959493929190610cee565b8051602080830151604080850151606086810151608088015160a089015160c08a015160e08b01516101008c01519751959a6102cf9a60029a919991989701610e14565b600c81565b60606011826000015183602001518460400151856060015186608001516040516020016102cf96959493929190610cee565b600281565b601081565b6060600a82600001518360200151846040015185606001516040516020016102cf959493929190610c8c565b6060600682600001518360200151846040015185606001516040516020016102cf959493929190610c8c565b606060138260000151836020015184604001516040516020016102cf9493929190610b8f565b600082601f830112610507578081fd5b81356001600160401b0381111561052057610520610f5e565b610533601f8201601f1916602001610f05565b818152846020838601011115610547578283fd5b816020850160208301379081016020019190915292915050565b600060a08284031215610572578081fd5b61057c60a0610f05565b90508135815260208201356001600160401b038082111561059c57600080fd5b6105a8858386016104f7565b602084015260408401359150808211156105c157600080fd5b6105cd858386016104f7565b604084015260608401359150808211156105e657600080fd5b6105f2858386016104f7565b6060840152608084013591508082111561060b57600080fd5b50610618848285016104f7565b60808301525092915050565b600060808284031215610635578081fd5b604051608081016001600160401b03828210818311171561065857610658610f5e565b81604052829350610668856106c7565b835260208501356020840152604085013591508082111561068857600080fd5b610694868387016104f7565b604084015260608501359150808211156106ad57600080fd5b506106ba858286016104f7565b6060830152505092915050565b80356001600160401b03811681146106de57600080fd5b919050565b6000602082840312156106f4578081fd5b81356001600160401b03811115610709578182fd5b61071584828501610561565b949350505050565b60006020828403121561072e578081fd5b81356001600160401b0380821115610744578283fd5b9083019060408286031215610757578283fd5b60405160408101818110838211171561077257610772610f5e565b604052823582811115610783578485fd5b61078f878286016104f7565b8252506020830135602082015280935050505092915050565b6000602082840312156107b9578081fd5b81356001600160401b03808211156107cf578283fd5b90830190606082860312156107e2578283fd5b6040516060810181811083821117156107fd576107fd610f5e565b60405282358281111561080e578485fd5b61081a878286016104f7565b82525060208301358281111561082e578485fd5b61083a878286016104f7565b6020830152506040830135604082015280935050505092915050565b600060208284031215610867578081fd5b81356001600160401b0381111561087c578182fd5b61071584828501610624565b600060208284031215610899578081fd5b81356001600160401b03808211156108af578283fd5b81840191506101208083870312156108c5578384fd5b6108ce81610f05565b90506108d9836106c7565b81526108e7602084016106c7565b60208201526108f8604084016106c7565b604082015260608301356060820152608083013582811115610918578485fd5b610924878286016104f7565b60808301525060a08301358281111561093b578485fd5b610947878286016104f7565b60a08301525061095960c084016106c7565b60c082015261096a60e084016106c7565b60e08201526101008084013583811115610982578586fd5b61098e888287016104f7565b918301919091525095945050505050565b6000602082840312156109b0578081fd5b81356001600160401b03808211156109c6578283fd5b9083019060a082860312156109d9578283fd5b6109e360a0610f05565b6109ec836106c7565b815260208301356020820152604083013582811115610a09578485fd5b610a15878286016104f7565b604083015250606083013582811115610a2c578485fd5b610a38878286016104f7565b606083015250608083013582811115610a4f578485fd5b610a5b878286016104f7565b60808301525095945050505050565b600060208284031215610a7b578081fd5b81356001600160401b0380821115610a91578283fd5b8184019150610100808387031215610aa7578384fd5b610ab081610f05565b9050610abb836106c7565b8152610ac9602084016106c7565b6020820152610ada604084016106c7565b604082015260608301356060820152608083013582811115610afa578485fd5b610b06878286016104f7565b60808301525060a083013582811115610b1d578485fd5b610b29878286016104f7565b60a08301525060c083013582811115610b40578485fd5b610b4c878286016104f7565b60c08301525060e083013582811115610b63578485fd5b610b6f878286016104f7565b60e08301525095945050505050565b60c01b6001600160c01b0319169052565b600060ff60f81b8660f81b1682528451610bb0816001850160208901610f2e565b845190830190610bc7816001840160208901610f2e565b01600181019390935250506021019392505050565b600060ff60f81b8560f81b1682528351610bfd816001850160208801610f2e565b60019201918201929092526021019392505050565b600060ff60f81b8860f81b1682528660018301528551610c39816021850160208a01610f2e565b855190830190610c50816021840160208a01610f2e565b8551910190610c66816021840160208901610f2e565b8451910190610c7c816021840160208801610f2e565b0160210198975050505050505050565b600060ff60f81b8760f81b1682526001600160401b0360c01b8660c01b1660018301528460098301528351610cc8816029850160208801610f2e565b835190830190610cdf816029840160208801610f2e565b01602901979650505050505050565b600060ff60f81b8860f81b1682526001600160401b0360c01b8760c01b1660018301528560098301528451610d2a816029850160208901610f2e565b845190830190610d41816029840160208901610f2e565b8451910190610d57816029840160208801610f2e565b0160290198975050505050505050565b6001600160f81b031960f88b901b1681526001600160c01b031960c08a811b8216600184015289901b1660098201526000610da56011830189610b7e565b8660198301528551610dbe816039850160208a01610f2e565b855190830190610dd5816039840160208a01610f2e565b8551910190610deb816039840160208901610f2e565b8451910190610e01816039840160208801610f2e565b016039019b9a5050505050505050505050565b6001600160f81b031960f88c901b1681526001600160c01b031960c08b811b821660018401528a901b1660098201526000610e52601183018a610b7e565b8760198301528651610e6b816039850160208b01610f2e565b865190830190610e82816039840160208b01610f2e565b01610e906039820187610b7e565b610e9d6041820186610b7e565b8351610eb0816049840160208801610f2e565b016049019c9b505050505050505050505050565b6000602082528251806020840152610ee3816040850160208701610f2e565b601f01601f19169190910160400192915050565b60ff91909116815260200190565b6040518181016001600160401b0381118282101715610f2657610f26610f5e565b604052919050565b60005b83811015610f49578181015183820152602001610f31565b83811115610f58576000848401525b50505050565b634e487b7160e01b600052604160045260246000fdfea26469706673582212207a0f70cfe6ca07640d9f2a0902ec6181d73d5130751e991603c701293b6f7ff164736f6c63430008000033",
			"opcodes": "PUSH1 0x80 PUSH1 0x40 MSTORE CALLVALUE DUP1 ISZERO PUSH2 0x10 JUMPI PUSH1 0x0 DUP1 REVERT JUMPDEST POP PUSH2 0xFAA DUP1 PUSH2 0x20 PUSH1 0x0 CODECOPY PUSH1 0x0 RETURN INVALID PUSH1 0x80 PUSH1 0x40 MSTORE CALLVALUE DUP1 ISZERO PUSH2 0x10 JUMPI PUSH1 0x0 DUP1 REVERT JUMPDEST POP PUSH1 0x4 CALLDATASIZE LT PUSH2 0x142 JUMPI PUSH1 0x0 CALLDATALOAD PUSH1 0xE0 SHR DUP1 PUSH4 0x8B31E9A2 GT PUSH2 0xB8 JUMPI DUP1 PUSH4 0xBBE46585 GT PUSH2 0x7C JUMPI DUP1 PUSH4 0xBBE46585 EQ PUSH2 0x237 JUMPI DUP1 PUSH4 0xC30A7741 EQ PUSH2 0x24A JUMPI DUP1 PUSH4 0xCE9DD1BC EQ PUSH2 0x252 JUMPI DUP1 PUSH4 0xD0CD2B06 EQ PUSH2 0x25A JUMPI DUP1 PUSH4 0xD57B4C08 EQ PUSH2 0x26D JUMPI DUP1 PUSH4 0xFCDF089B EQ PUSH2 0x280 JUMPI PUSH2 0x142 JUMP JUMPDEST DUP1 PUSH4 0x8B31E9A2 EQ PUSH2 0x1E3 JUMPI DUP1 PUSH4 0xA1728325 EQ PUSH2 0x1F6 JUMPI DUP1 PUSH4 0xA6CED947 EQ PUSH2 0x209 JUMPI DUP1 PUSH4 0xAE6F039C EQ PUSH2 0x21C JUMPI DUP1 PUSH4 0xBBDCF3AA EQ PUSH2 0x22F JUMPI PUSH2 0x142 JUMP JUMPDEST DUP1 PUSH4 0x5E2D15ED GT PUSH2 0x10A JUMPI DUP1 PUSH4 0x5E2D15ED EQ PUSH2 0x19D JUMPI DUP1 PUSH4 0x6035B952 EQ PUSH2 0x1A5 JUMPI DUP1 PUSH4 0x6A79293A EQ PUSH2 0x1AD JUMPI DUP1 PUSH4 0x7773F0CD EQ PUSH2 0x1B5 JUMPI DUP1 PUSH4 0x8385E567 EQ PUSH2 0x1C8 JUMPI DUP1 PUSH4 0x84D8B64F EQ PUSH2 0x1DB JUMPI PUSH2 0x142 JUMP JUMPDEST DUP1 PUSH4 0x13F66587 EQ PUSH2 0x147 JUMPI DUP1 PUSH4 0x313861A7 EQ PUSH2 0x165 JUMPI DUP1 PUSH4 0x34CF211E EQ PUSH2 0x16D JUMPI DUP1 PUSH4 0x3ED3A054 EQ PUSH2 0x18D JUMPI DUP1 PUSH4 0x42555F3D EQ PUSH2 0x195 JUMPI JUMPDEST PUSH1 0x0 DUP1 REVERT JUMPDEST PUSH2 0x14F PUSH2 0x293 JUMP JUMPDEST PUSH1 0x40 MLOAD PUSH2 0x15C SWAP2 SWAP1 PUSH2 0xEF7 JUMP JUMPDEST PUSH1 0x40 MLOAD DUP1 SWAP2 SUB SWAP1 RETURN JUMPDEST PUSH2 0x14F PUSH2 0x298 JUMP JUMPDEST PUSH2 0x180 PUSH2 0x17B CALLDATASIZE PUSH1 0x4 PUSH2 0x6E3 JUMP JUMPDEST PUSH2 0x29D JUMP JUMPDEST PUSH1 0x40 MLOAD PUSH2 0x15C SWAP2 SWAP1 PUSH2 0xEC4 JUMP JUMPDEST PUSH2 0x14F PUSH2 0x2E5 JUMP JUMPDEST PUSH2 0x14F PUSH2 0x2EA JUMP JUMPDEST PUSH2 0x14F PUSH2 0x2EF JUMP JUMPDEST PUSH2 0x14F PUSH2 0x2F4 JUMP JUMPDEST PUSH2 0x14F PUSH2 0x2F9 JUMP JUMPDEST PUSH2 0x180 PUSH2 0x1C3 CALLDATASIZE PUSH1 0x4 PUSH2 0x6E3 JUMP JUMPDEST PUSH2 0x2FE JUMP JUMPDEST PUSH2 0x180 PUSH2 0x1D6 CALLDATASIZE PUSH1 0x4 PUSH2 0x71D JUMP JUMPDEST PUSH2 0x330 JUMP JUMPDEST PUSH2 0x14F PUSH2 0x34D JUMP JUMPDEST PUSH2 0x180 PUSH2 0x1F1 CALLDATASIZE PUSH1 0x4 PUSH2 0x6E3 JUMP JUMPDEST PUSH2 0x352 JUMP JUMPDEST PUSH2 0x180 PUSH2 0x204 CALLDATASIZE PUSH1 0x4 PUSH2 0xA6A JUMP JUMPDEST PUSH2 0x384 JUMP JUMPDEST PUSH2 0x180 PUSH2 0x217 CALLDATASIZE PUSH1 0x4 PUSH2 0x99F JUMP JUMPDEST PUSH2 0x3C2 JUMP JUMPDEST PUSH2 0x180 PUSH2 0x22A CALLDATASIZE PUSH1 0x4 PUSH2 0x888 JUMP JUMPDEST PUSH2 0x3F4 JUMP JUMPDEST PUSH2 0x14F PUSH2 0x438 JUMP JUMPDEST PUSH2 0x180 PUSH2 0x245 CALLDATASIZE PUSH1 0x4 PUSH2 0x99F JUMP JUMPDEST PUSH2 0x43D JUMP JUMPDEST PUSH2 0x14F PUSH2 0x46F JUMP JUMPDEST PUSH2 0x14F PUSH2 0x474 JUMP JUMPDEST PUSH2 0x180 PUSH2 0x268 CALLDATASIZE PUSH1 0x4 PUSH2 0x856 JUMP JUMPDEST PUSH2 0x479 JUMP JUMPDEST PUSH2 0x180 PUSH2 0x27B CALLDATASIZE PUSH1 0x4 PUSH2 0x856 JUMP JUMPDEST PUSH2 0x4A5 JUMP JUMPDEST PUSH2 0x180 PUSH2 0x28E CALLDATASIZE PUSH1 0x4 PUSH2 0x7A8 JUMP JUMPDEST PUSH2 0x4D1 JUMP JUMPDEST PUSH1 0x6 DUP2 JUMP JUMPDEST PUSH1 0xE DUP2 JUMP JUMPDEST PUSH1 0x60 PUSH1 0x4 DUP3 PUSH1 0x0 ADD MLOAD DUP4 PUSH1 0x20 ADD MLOAD DUP5 PUSH1 0x40 ADD MLOAD DUP6 PUSH1 0x60 ADD MLOAD DUP7 PUSH1 0x80 ADD MLOAD PUSH1 0x40 MLOAD PUSH1 0x20 ADD PUSH2 0x2CF SWAP7 SWAP6 SWAP5 SWAP4 SWAP3 SWAP2 SWAP1 PUSH2 0xC12 JUMP JUMPDEST PUSH1 0x40 MLOAD PUSH1 0x20 DUP2 DUP4 SUB SUB DUP2 MSTORE SWAP1 PUSH1 0x40 MSTORE SWAP1 POP SWAP2 SWAP1 POP JUMP JUMPDEST PUSH1 0xA DUP2 JUMP JUMPDEST PUSH1 0x8 DUP2 JUMP JUMPDEST PUSH1 0x4 DUP2 JUMP JUMPDEST PUSH1 0x11 DUP2 JUMP JUMPDEST PUSH1 0x13 DUP2 JUMP JUMPDEST PUSH1 0x60 PUSH1 0x10 DUP3 PUSH1 0x0 ADD MLOAD DUP4 PUSH1 0x20 ADD MLOAD DUP5 PUSH1 0x40 ADD MLOAD DUP6 PUSH1 0x60 ADD MLOAD DUP7 PUSH1 0x80 ADD MLOAD PUSH1 0x40 MLOAD PUSH1 0x20 ADD PUSH2 0x2CF SWAP7 SWAP6 SWAP5 SWAP4 SWAP3 SWAP2 SWAP1 PUSH2 0xC12 JUMP JUMPDEST DUP1 MLOAD PUSH1 0x20 DUP1 DUP4 ADD MLOAD PUSH1 0x40 MLOAD PUSH1 0x60 SWAP4 PUSH2 0x2CF SWAP4 PUSH1 0x12 SWAP4 SWAP2 SWAP3 ADD PUSH2 0xBDC JUMP JUMPDEST PUSH1 0x12 DUP2 JUMP JUMPDEST PUSH1 0x60 PUSH1 0x8 DUP3 PUSH1 0x0 ADD MLOAD DUP4 PUSH1 0x20 ADD MLOAD DUP5 PUSH1 0x40 ADD MLOAD DUP6 PUSH1 0x60 ADD MLOAD DUP7 PUSH1 0x80 ADD MLOAD PUSH1 0x40 MLOAD PUSH1 0x20 ADD PUSH2 0x2CF SWAP7 SWAP6 SWAP5 SWAP4 SWAP3 SWAP2 SWAP1 PUSH2 0xC12 JUMP JUMPDEST DUP1 MLOAD PUSH1 0x20 DUP1 DUP4 ADD MLOAD PUSH1 0x40 DUP1 DUP6 ADD MLOAD PUSH1 0x60 DUP7 DUP2 ADD MLOAD PUSH1 0x80 DUP9 ADD MLOAD PUSH1 0xA0 DUP10 ADD MLOAD PUSH1 0xC0 DUP11 ADD MLOAD PUSH1 0xE0 DUP12 ADD MLOAD SWAP7 MLOAD SWAP5 SWAP10 PUSH2 0x2CF SWAP10 PUSH1 0xE SWAP10 SWAP2 SWAP9 SWAP2 SWAP8 SWAP7 ADD PUSH2 0xD67 JUMP JUMPDEST PUSH1 0x60 PUSH1 0xC DUP3 PUSH1 0x0 ADD MLOAD DUP4 PUSH1 0x20 ADD MLOAD DUP5 PUSH1 0x40 ADD MLOAD DUP6 PUSH1 0x60 ADD MLOAD DUP7 PUSH1 0x80 ADD MLOAD PUSH1 0x40 MLOAD PUSH1 0x20 ADD PUSH2 0x2CF SWAP7 SWAP6 SWAP5 SWAP4 SWAP3 SWAP2 SWAP1 PUSH2 0xCEE JUMP JUMPDEST DUP1 MLOAD PUSH1 0x20 DUP1 DUP4 ADD MLOAD PUSH1 0x40 DUP1 DUP6 ADD MLOAD PUSH1 0x60 DUP7 DUP2 ADD MLOAD PUSH1 0x80 DUP9 ADD MLOAD PUSH1 0xA0 DUP10 ADD MLOAD PUSH1 0xC0 DUP11 ADD MLOAD PUSH1 0xE0 DUP12 ADD MLOAD PUSH2 0x100 DUP13 ADD MLOAD SWAP8 MLOAD SWAP6 SWAP11 PUSH2 0x2CF SWAP11 PUSH1 0x2 SWAP11 SWAP2 SWAP10 SWAP2 SWAP9 SWAP8 ADD PUSH2 0xE14 JUMP JUMPDEST PUSH1 0xC DUP2 JUMP JUMPDEST PUSH1 0x60 PUSH1 0x11 DUP3 PUSH1 0x0 ADD MLOAD DUP4 PUSH1 0x20 ADD MLOAD DUP5 PUSH1 0x40 ADD MLOAD DUP6 PUSH1 0x60 ADD MLOAD DUP7 PUSH1 0x80 ADD MLOAD PUSH1 0x40 MLOAD PUSH1 0x20 ADD PUSH2 0x2CF SWAP7 SWAP6 SWAP5 SWAP4 SWAP3 SWAP2 SWAP1 PUSH2 0xCEE JUMP JUMPDEST PUSH1 0x2 DUP2 JUMP JUMPDEST PUSH1 0x10 DUP2 JUMP JUMPDEST PUSH1 0x60 PUSH1 0xA DUP3 PUSH1 0x0 ADD MLOAD DUP4 PUSH1 0x20 ADD MLOAD DUP5 PUSH1 0x40 ADD MLOAD DUP6 PUSH1 0x60 ADD MLOAD PUSH1 0x40 MLOAD PUSH1 0x20 ADD PUSH2 0x2CF SWAP6 SWAP5 SWAP4 SWAP3 SWAP2 SWAP1 PUSH2 0xC8C JUMP JUMPDEST PUSH1 0x60 PUSH1 0x6 DUP3 PUSH1 0x0 ADD MLOAD DUP4 PUSH1 0x20 ADD MLOAD DUP5 PUSH1 0x40 ADD MLOAD DUP6 PUSH1 0x60 ADD MLOAD PUSH1 0x40 MLOAD PUSH1 0x20 ADD PUSH2 0x2CF SWAP6 SWAP5 SWAP4 SWAP3 SWAP2 SWAP1 PUSH2 0xC8C JUMP JUMPDEST PUSH1 0x60 PUSH1 0x13 DUP3 PUSH1 0x0 ADD MLOAD DUP4 PUSH1 0x20 ADD MLOAD DUP5 PUSH1 0x40 ADD MLOAD PUSH1 0x40 MLOAD PUSH1 0x20 ADD PUSH2 0x2CF SWAP5 SWAP4 SWAP3 SWAP2 SWAP1 PUSH2 0xB8F JUMP JUMPDEST PUSH1 0x0 DUP3 PUSH1 0x1F DUP4 ADD SLT PUSH2 0x507 JUMPI DUP1 DUP2 REVERT JUMPDEST DUP2 CALLDATALOAD PUSH1 0x1 PUSH1 0x1 PUSH1 0x40 SHL SUB DUP2 GT ISZERO PUSH2 0x520 JUMPI PUSH2 0x520 PUSH2 0xF5E JUMP JUMPDEST PUSH2 0x533 PUSH1 0x1F DUP3 ADD PUSH1 0x1F NOT AND PUSH1 0x20 ADD PUSH2 0xF05 JUMP JUMPDEST DUP2 DUP2 MSTORE DUP5 PUSH1 0x20 DUP4 DUP7 ADD ADD GT ISZERO PUSH2 0x547 JUMPI DUP3 DUP4 REVERT JUMPDEST DUP2 PUSH1 0x20 DUP6 ADD PUSH1 0x20 DUP4 ADD CALLDATACOPY SWAP1 DUP2 ADD PUSH1 0x20 ADD SWAP2 SWAP1 SWAP2 MSTORE SWAP3 SWAP2 POP POP JUMP JUMPDEST PUSH1 0x0 PUSH1 0xA0 DUP3 DUP5 SUB SLT ISZERO PUSH2 0x572 JUMPI DUP1 DUP2 REVERT JUMPDEST PUSH2 0x57C PUSH1 0xA0 PUSH2 0xF05 JUMP JUMPDEST SWAP1 POP DUP2 CALLDATALOAD DUP2 MSTORE PUSH1 0x20 DUP3 ADD CALLDATALOAD PUSH1 0x1 PUSH1 0x1 PUSH1 0x40 SHL SUB DUP1 DUP3 GT ISZERO PUSH2 0x59C JUMPI PUSH1 0x0 DUP1 REVERT JUMPDEST PUSH2 0x5A8 DUP6 DUP4 DUP7 ADD PUSH2 0x4F7 JUMP JUMPDEST PUSH1 0x20 DUP5 ADD MSTORE PUSH1 0x40 DUP5 ADD CALLDATALOAD SWAP2 POP DUP1 DUP3 GT ISZERO PUSH2 0x5C1 JUMPI PUSH1 0x0 DUP1 REVERT JUMPDEST PUSH2 0x5CD DUP6 DUP4 DUP7 ADD PUSH2 0x4F7 JUMP JUMPDEST PUSH1 0x40 DUP5 ADD MSTORE PUSH1 0x60 DUP5 ADD CALLDATALOAD SWAP2 POP DUP1 DUP3 GT ISZERO PUSH2 0x5E6 JUMPI PUSH1 0x0 DUP1 REVERT JUMPDEST PUSH2 0x5F2 DUP6 DUP4 DUP7 ADD PUSH2 0x4F7 JUMP JUMPDEST PUSH1 0x60 DUP5 ADD MSTORE PUSH1 0x80 DUP5 ADD CALLDATALOAD SWAP2 POP DUP1 DUP3 GT ISZERO PUSH2 0x60B JUMPI PUSH1 0x0 DUP1 REVERT JUMPDEST POP PUSH2 0x618 DUP5 DUP3 DUP6 ADD PUSH2 0x4F7 JUMP JUMPDEST PUSH1 0x80 DUP4 ADD MSTORE POP SWAP3 SWAP2 POP POP JUMP JUMPDEST PUSH1 0x0 PUSH1 0x80 DUP3 DUP5 SUB SLT ISZERO PUSH2 0x635 JUMPI DUP1 DUP2 REVERT JUMPDEST PUSH1 0x40 MLOAD PUSH1 0x80 DUP2 ADD PUSH1 0x1 PUSH1 0x1 PUSH1 0x40 SHL SUB DUP3 DUP3 LT DUP2 DUP4 GT OR ISZERO PUSH2 0x658 JUMPI PUSH2 0x658 PUSH2 0xF5E JUMP JUMPDEST DUP2 PUSH1 0x40 MSTORE DUP3 SWAP4 POP PUSH2 0x668 DUP6 PUSH2 0x6C7 JUMP JUMPDEST DUP4 MSTORE PUSH1 0x20 DUP6 ADD CALLDATALOAD PUSH1 0x20 DUP5 ADD MSTORE PUSH1 0x40 DUP6 ADD CALLDATALOAD SWAP2 POP DUP1 DUP3 GT ISZERO PUSH2 0x688 JUMPI PUSH1 0x0 DUP1 REVERT JUMPDEST PUSH2 0x694 DUP7 DUP4 DUP8 ADD PUSH2 0x4F7 JUMP JUMPDEST PUSH1 0x40 DUP5 ADD MSTORE PUSH1 0x60 DUP6 ADD CALLDATALOAD SWAP2 POP DUP1 DUP3 GT ISZERO PUSH2 0x6AD JUMPI PUSH1 0x0 DUP1 REVERT JUMPDEST POP PUSH2 0x6BA DUP6 DUP3 DUP7 ADD PUSH2 0x4F7 JUMP JUMPDEST PUSH1 0x60 DUP4 ADD MSTORE POP POP SWAP3 SWAP2 POP POP JUMP JUMPDEST DUP1 CALLDATALOAD PUSH1 0x1 PUSH1 0x1 PUSH1 0x40 SHL SUB DUP2 AND DUP2 EQ PUSH2 0x6DE JUMPI PUSH1 0x0 DUP1 REVERT JUMPDEST SWAP2 SWAP1 POP JUMP JUMPDEST PUSH1 0x0 PUSH1 0x20 DUP3 DUP5 SUB SLT ISZERO PUSH2 0x6F4 JUMPI DUP1 DUP2 REVERT JUMPDEST DUP2 CALLDATALOAD PUSH1 0x1 PUSH1 0x1 PUSH1 0x40 SHL SUB DUP2 GT ISZERO PUSH2 0x709 JUMPI DUP2 DUP3 REVERT JUMPDEST PUSH2 0x715 DUP5 DUP3 DUP6 ADD PUSH2 0x561 JUMP JUMPDEST SWAP5 SWAP4 POP POP POP POP JUMP JUMPDEST PUSH1 0x0 PUSH1 0x20 DUP3 DUP5 SUB SLT ISZERO PUSH2 0x72E JUMPI DUP1 DUP2 REVERT JUMPDEST DUP2 CALLDATALOAD PUSH1 0x1 PUSH1 0x1 PUSH1 0x40 SHL SUB DUP1 DUP3 GT ISZERO PUSH2 0x744 JUMPI DUP3 DUP4 REVERT JUMPDEST SWAP1 DUP4 ADD SWAP1 PUSH1 0x40 DUP3 DUP7 SUB SLT ISZERO PUSH2 0x757 JUMPI DUP3 DUP4 REVERT JUMPDEST PUSH1 0x40 MLOAD PUSH1 0x40 DUP2 ADD DUP2 DUP2 LT DUP4 DUP3 GT OR ISZERO PUSH2 0x772 JUMPI PUSH2 0x772 PUSH2 0xF5E JUMP JUMPDEST PUSH1 0x40 MSTORE DUP3 CALLDATALOAD DUP3 DUP2 GT ISZERO PUSH2 0x783 JUMPI DUP5 DUP6 REVERT JUMPDEST PUSH2 0x78F DUP8 DUP3 DUP7 ADD PUSH2 0x4F7 JUMP JUMPDEST DUP3 MSTORE POP PUSH1 0x20 DUP4 ADD CALLDATALOAD PUSH1 0x20 DUP3 ADD MSTORE DUP1 SWAP4 POP POP POP POP SWAP3 SWAP2 POP POP JUMP JUMPDEST PUSH1 0x0 PUSH1 0x20 DUP3 DUP5 SUB SLT ISZERO PUSH2 0x7B9 JUMPI DUP1 DUP2 REVERT JUMPDEST DUP2 CALLDATALOAD PUSH1 0x1 PUSH1 0x1 PUSH1 0x40 SHL SUB DUP1 DUP3 GT ISZERO PUSH2 0x7CF JUMPI DUP3 DUP4 REVERT JUMPDEST SWAP1 DUP4 ADD SWAP1 PUSH1 0x60 DUP3 DUP7 SUB SLT ISZERO PUSH2 0x7E2 JUMPI DUP3 DUP4 REVERT JUMPDEST PUSH1 0x40 MLOAD PUSH1 0x60 DUP2 ADD DUP2 DUP2 LT DUP4 DUP3 GT OR ISZERO PUSH2 0x7FD JUMPI PUSH2 0x7FD PUSH2 0xF5E JUMP JUMPDEST PUSH1 0x40 MSTORE DUP3 CALLDATALOAD DUP3 DUP2 GT ISZERO PUSH2 0x80E JUMPI DUP5 DUP6 REVERT JUMPDEST PUSH2 0x81A DUP8 DUP3 DUP7 ADD PUSH2 0x4F7 JUMP JUMPDEST DUP3 MSTORE POP PUSH1 0x20 DUP4 ADD CALLDATALOAD DUP3 DUP2 GT ISZERO PUSH2 0x82E JUMPI DUP5 DUP6 REVERT JUMPDEST PUSH2 0x83A DUP8 DUP3 DUP7 ADD PUSH2 0x4F7 JUMP JUMPDEST PUSH1 0x20 DUP4 ADD MSTORE POP PUSH1 0x40 DUP4 ADD CALLDATALOAD PUSH1 0x40 DUP3 ADD MSTORE DUP1 SWAP4 POP POP POP POP SWAP3 SWAP2 POP POP JUMP JUMPDEST PUSH1 0x0 PUSH1 0x20 DUP3 DUP5 SUB SLT ISZERO PUSH2 0x867 JUMPI DUP1 DUP2 REVERT JUMPDEST DUP2 CALLDATALOAD PUSH1 0x1 PUSH1 0x1 PUSH1 0x40 SHL SUB DUP2 GT ISZERO PUSH2 0x87C JUMPI DUP2 DUP3 REVERT JUMPDEST PUSH2 0x715 DUP5 DUP3 DUP6 ADD PUSH2 0x624 JUMP JUMPDEST PUSH1 0x0 PUSH1 0x20 DUP3 DUP5 SUB SLT ISZERO PUSH2 0x899 JUMPI DUP1 DUP2 REVERT JUMPDEST DUP2 CALLDATALOAD PUSH1 0x1 PUSH1 0x1 PUSH1 0x40 SHL SUB DUP1 DUP3 GT ISZERO PUSH2 0x8AF JUMPI DUP3 DUP4 REVERT JUMPDEST DUP2 DUP5 ADD SWAP2 POP PUSH2 0x120 DUP1 DUP4 DUP8 SUB SLT ISZERO PUSH2 0x8C5 JUMPI DUP4 DUP5 REVERT JUMPDEST PUSH2 0x8CE DUP2 PUSH2 0xF05 JUMP JUMPDEST SWAP1 POP PUSH2 0x8D9 DUP4 PUSH2 0x6C7 JUMP JUMPDEST DUP2 MSTORE PUSH2 0x8E7 PUSH1 0x20 DUP5 ADD PUSH2 0x6C7 JUMP JUMPDEST PUSH1 0x20 DUP3 ADD MSTORE PUSH2 0x8F8 PUSH1 0x40 DUP5 ADD PUSH2 0x6C7 JUMP JUMPDEST PUSH1 0x40 DUP3 ADD MSTORE PUSH1 0x60 DUP4 ADD CALLDATALOAD PUSH1 0x60 DUP3 ADD MSTORE PUSH1 0x80 DUP4 ADD CALLDATALOAD DUP3 DUP2 GT ISZERO PUSH2 0x918 JUMPI DUP5 DUP6 REVERT JUMPDEST PUSH2 0x924 DUP8 DUP3 DUP7 ADD PUSH2 0x4F7 JUMP JUMPDEST PUSH1 0x80 DUP4 ADD MSTORE POP PUSH1 0xA0 DUP4 ADD CALLDATALOAD DUP3 DUP2 GT ISZERO PUSH2 0x93B JUMPI DUP5 DUP6 REVERT JUMPDEST PUSH2 0x947 DUP8 DUP3 DUP7 ADD PUSH2 0x4F7 JUMP JUMPDEST PUSH1 0xA0 DUP4 ADD MSTORE POP PUSH2 0x959 PUSH1 0xC0 DUP5 ADD PUSH2 0x6C7 JUMP JUMPDEST PUSH1 0xC0 DUP3 ADD MSTORE PUSH2 0x96A PUSH1 0xE0 DUP5 ADD PUSH2 0x6C7 JUMP JUMPDEST PUSH1 0xE0 DUP3 ADD MSTORE PUSH2 0x100 DUP1 DUP5 ADD CALLDATALOAD DUP4 DUP2 GT ISZERO PUSH2 0x982 JUMPI DUP6 DUP7 REVERT JUMPDEST PUSH2 0x98E DUP9 DUP3 DUP8 ADD PUSH2 0x4F7 JUMP JUMPDEST SWAP2 DUP4 ADD SWAP2 SWAP1 SWAP2 MSTORE POP SWAP6 SWAP5 POP POP POP POP POP JUMP JUMPDEST PUSH1 0x0 PUSH1 0x20 DUP3 DUP5 SUB SLT ISZERO PUSH2 0x9B0 JUMPI DUP1 DUP2 REVERT JUMPDEST DUP2 CALLDATALOAD PUSH1 0x1 PUSH1 0x1 PUSH1 0x40 SHL SUB DUP1 DUP3 GT ISZERO PUSH2 0x9C6 JUMPI DUP3 DUP4 REVERT JUMPDEST SWAP1 DUP4 ADD SWAP1 PUSH1 0xA0 DUP3 DUP7 SUB SLT ISZERO PUSH2 0x9D9 JUMPI DUP3 DUP4 REVERT JUMPDEST PUSH2 0x9E3 PUSH1 0xA0 PUSH2 0xF05 JUMP JUMPDEST PUSH2 0x9EC DUP4 PUSH2 0x6C7 JUMP JUMPDEST DUP2 MSTORE PUSH1 0x20 DUP4 ADD CALLDATALOAD PUSH1 0x20 DUP3 ADD MSTORE PUSH1 0x40 DUP4 ADD CALLDATALOAD DUP3 DUP2 GT ISZERO PUSH2 0xA09 JUMPI DUP5 DUP6 REVERT JUMPDEST PUSH2 0xA15 DUP8 DUP3 DUP7 ADD PUSH2 0x4F7 JUMP JUMPDEST PUSH1 0x40 DUP4 ADD MSTORE POP PUSH1 0x60 DUP4 ADD CALLDATALOAD DUP3 DUP2 GT ISZERO PUSH2 0xA2C JUMPI DUP5 DUP6 REVERT JUMPDEST PUSH2 0xA38 DUP8 DUP3 DUP7 ADD PUSH2 0x4F7 JUMP JUMPDEST PUSH1 0x60 DUP4 ADD MSTORE POP PUSH1 0x80 DUP4 ADD CALLDATALOAD DUP3 DUP2 GT ISZERO PUSH2 0xA4F JUMPI DUP5 DUP6 REVERT JUMPDEST PUSH2 0xA5B DUP8 DUP3 DUP7 ADD PUSH2 0x4F7 JUMP JUMPDEST PUSH1 0x80 DUP4 ADD MSTORE POP SWAP6 SWAP5 POP POP POP POP POP JUMP JUMPDEST PUSH1 0x0 PUSH1 0x20 DUP3 DUP5 SUB SLT ISZERO PUSH2 0xA7B JUMPI DUP1 DUP2 REVERT JUMPDEST DUP2 CALLDATALOAD PUSH1 0x1 PUSH1 0x1 PUSH1 0x40 SHL SUB DUP1 DUP3 GT ISZERO PUSH2 0xA91 JUMPI DUP3 DUP4 REVERT JUMPDEST DUP2 DUP5 ADD SWAP2 POP PUSH2 0x100 DUP1 DUP4 DUP8 SUB SLT ISZERO PUSH2 0xAA7 JUMPI DUP4 DUP5 REVERT JUMPDEST PUSH2 0xAB0 DUP2 PUSH2 0xF05 JUMP JUMPDEST SWAP1 POP PUSH2 0xABB DUP4 PUSH2 0x6C7 JUMP JUMPDEST DUP2 MSTORE PUSH2 0xAC9 PUSH1 0x20 DUP5 ADD PUSH2 0x6C7 JUMP JUMPDEST PUSH1 0x20 DUP3 ADD MSTORE PUSH2 0xADA PUSH1 0x40 DUP5 ADD PUSH2 0x6C7 JUMP JUMPDEST PUSH1 0x40 DUP3 ADD MSTORE PUSH1 0x60 DUP4 ADD CALLDATALOAD PUSH1 0x60 DUP3 ADD MSTORE PUSH1 0x80 DUP4 ADD CALLDATALOAD DUP3 DUP2 GT ISZERO PUSH2 0xAFA JUMPI DUP5 DUP6 REVERT JUMPDEST PUSH2 0xB06 DUP8 DUP3 DUP7 ADD PUSH2 0x4F7 JUMP JUMPDEST PUSH1 0x80 DUP4 ADD MSTORE POP PUSH1 0xA0 DUP4 ADD CALLDATALOAD DUP3 DUP2 GT ISZERO PUSH2 0xB1D JUMPI DUP5 DUP6 REVERT JUMPDEST PUSH2 0xB29 DUP8 DUP3 DUP7 ADD PUSH2 0x4F7 JUMP JUMPDEST PUSH1 0xA0 DUP4 ADD MSTORE POP PUSH1 0xC0 DUP4 ADD CALLDATALOAD DUP3 DUP2 GT ISZERO PUSH2 0xB40 JUMPI DUP5 DUP6 REVERT JUMPDEST PUSH2 0xB4C DUP8 DUP3 DUP7 ADD PUSH2 0x4F7 JUMP JUMPDEST PUSH1 0xC0 DUP4 ADD MSTORE POP PUSH1 0xE0 DUP4 ADD CALLDATALOAD DUP3 DUP2 GT ISZERO PUSH2 0xB63 JUMPI DUP5 DUP6 REVERT JUMPDEST PUSH2 0xB6F DUP8 DUP3 DUP7 ADD PUSH2 0x4F7 JUMP JUMPDEST PUSH1 0xE0 DUP4 ADD MSTORE POP SWAP6 SWAP5 POP POP POP POP POP JUMP JUMPDEST PUSH1 0xC0 SHL PUSH1 0x1 PUSH1 0x1 PUSH1 0xC0 SHL SUB NOT AND SWAP1 MSTORE JUMP JUMPDEST PUSH1 0x0 PUSH1 0xFF PUSH1 0xF8 SHL DUP7 PUSH1 0xF8 SHL AND DUP3 MSTORE DUP5 MLOAD PUSH2 0xBB0 DUP2 PUSH1 0x1 DUP6 ADD PUSH1 0x20 DUP10 ADD PUSH2 0xF2E JUMP JUMPDEST DUP5 MLOAD SWAP1 DUP4 ADD SWAP1 PUSH2 0xBC7 DUP2 PUSH1 0x1 DUP5 ADD PUSH1 0x20 DUP10 ADD PUSH2 0xF2E JUMP JUMPDEST ADD PUSH1 0x1 DUP2 ADD SWAP4 SWAP1 SWAP4 MSTORE POP POP PUSH1 0x21 ADD SWAP4 SWAP3 POP POP POP JUMP JUMPDEST PUSH1 0x0 PUSH1 0xFF PUSH1 0xF8 SHL DUP6 PUSH1 0xF8 SHL AND DUP3 MSTORE DUP4 MLOAD PUSH2 0xBFD DUP2 PUSH1 0x1 DUP6 ADD PUSH1 0x20 DUP9 ADD PUSH2 0xF2E JUMP JUMPDEST PUSH1 0x1 SWAP3 ADD SWAP2 DUP3 ADD SWAP3 SWAP1 SWAP3 MSTORE PUSH1 0x21 ADD SWAP4 SWAP3 POP POP POP JUMP JUMPDEST PUSH1 0x0 PUSH1 0xFF PUSH1 0xF8 SHL DUP9 PUSH1 0xF8 SHL AND DUP3 MSTORE DUP7 PUSH1 0x1 DUP4 ADD MSTORE DUP6 MLOAD PUSH2 0xC39 DUP2 PUSH1 0x21 DUP6 ADD PUSH1 0x20 DUP11 ADD PUSH2 0xF2E JUMP JUMPDEST DUP6 MLOAD SWAP1 DUP4 ADD SWAP1 PUSH2 0xC50 DUP2 PUSH1 0x21 DUP5 ADD PUSH1 0x20 DUP11 ADD PUSH2 0xF2E JUMP JUMPDEST DUP6 MLOAD SWAP2 ADD SWAP1 PUSH2 0xC66 DUP2 PUSH1 0x21 DUP5 ADD PUSH1 0x20 DUP10 ADD PUSH2 0xF2E JUMP JUMPDEST DUP5 MLOAD SWAP2 ADD SWAP1 PUSH2 0xC7C DUP2 PUSH1 0x21 DUP5 ADD PUSH1 0x20 DUP9 ADD PUSH2 0xF2E JUMP JUMPDEST ADD PUSH1 0x21 ADD SWAP9 SWAP8 POP POP POP POP POP POP POP POP JUMP JUMPDEST PUSH1 0x0 PUSH1 0xFF PUSH1 0xF8 SHL DUP8 PUSH1 0xF8 SHL AND DUP3 MSTORE PUSH1 0x1 PUSH1 0x1 PUSH1 0x40 SHL SUB PUSH1 0xC0 SHL DUP7 PUSH1 0xC0 SHL AND PUSH1 0x1 DUP4 ADD MSTORE DUP5 PUSH1 0x9 DUP4 ADD MSTORE DUP4 MLOAD PUSH2 0xCC8 DUP2 PUSH1 0x29 DUP6 ADD PUSH1 0x20 DUP9 ADD PUSH2 0xF2E JUMP JUMPDEST DUP4 MLOAD SWAP1 DUP4 ADD SWAP1 PUSH2 0xCDF DUP2 PUSH1 0x29 DUP5 ADD PUSH1 0x20 DUP9 ADD PUSH2 0xF2E JUMP JUMPDEST ADD PUSH1 0x29 ADD SWAP8 SWAP7 POP POP POP POP POP POP POP JUMP JUMPDEST PUSH1 0x0 PUSH1 0xFF PUSH1 0xF8 SHL DUP9 PUSH1 0xF8 SHL AND DUP3 MSTORE PUSH1 0x1 PUSH1 0x1 PUSH1 0x40 SHL SUB PUSH1 0xC0 SHL DUP8 PUSH1 0xC0 SHL AND PUSH1 0x1 DUP4 ADD MSTORE DUP6 PUSH1 0x9 DUP4 ADD MSTORE DUP5 MLOAD PUSH2 0xD2A DUP2 PUSH1 0x29 DUP6 ADD PUSH1 0x20 DUP10 ADD PUSH2 0xF2E JUMP JUMPDEST DUP5 MLOAD SWAP1 DUP4 ADD SWAP1 PUSH2 0xD41 DUP2 PUSH1 0x29 DUP5 ADD PUSH1 0x20 DUP10 ADD PUSH2 0xF2E JUMP JUMPDEST DUP5 MLOAD SWAP2 ADD SWAP1 PUSH2 0xD57 DUP2 PUSH1 0x29 DUP5 ADD PUSH1 0x20 DUP9 ADD PUSH2 0xF2E JUMP JUMPDEST ADD PUSH1 0x29 ADD SWAP9 SWAP8 POP POP POP POP POP POP POP POP JUMP JUMPDEST PUSH1 0x1 PUSH1 0x1 PUSH1 0xF8 SHL SUB NOT PUSH1 0xF8 DUP12 SWAP1 SHL AND DUP2 MSTORE PUSH1 0x1 PUSH1 0x1 PUSH1 0xC0 SHL SUB NOT PUSH1 0xC0 DUP11 DUP2 SHL DUP3 AND PUSH1 0x1 DUP5 ADD MSTORE DUP10 SWAP1 SHL AND PUSH1 0x9 DUP3 ADD MSTORE PUSH1 0x0 PUSH2 0xDA5 PUSH1 0x11 DUP4 ADD DUP10 PUSH2 0xB7E JUMP JUMPDEST DUP7 PUSH1 0x19 DUP4 ADD MSTORE DUP6 MLOAD PUSH2 0xDBE DUP2 PUSH1 0x39 DUP6 ADD PUSH1 0x20 DUP11 ADD PUSH2 0xF2E JUMP JUMPDEST DUP6 MLOAD SWAP1 DUP4 ADD SWAP1 PUSH2 0xDD5 DUP2 PUSH1 0x39 DUP5 ADD PUSH1 0x20 DUP11 ADD PUSH2 0xF2E JUMP JUMPDEST DUP6 MLOAD SWAP2 ADD SWAP1 PUSH2 0xDEB DUP2 PUSH1 0x39 DUP5 ADD PUSH1 0x20 DUP10 ADD PUSH2 0xF2E JUMP JUMPDEST DUP5 MLOAD SWAP2 ADD SWAP1 PUSH2 0xE01 DUP2 PUSH1 0x39 DUP5 ADD PUSH1 0x20 DUP9 ADD PUSH2 0xF2E JUMP JUMPDEST ADD PUSH1 0x39 ADD SWAP12 SWAP11 POP POP POP POP POP POP POP POP POP POP POP JUMP JUMPDEST PUSH1 0x1 PUSH1 0x1 PUSH1 0xF8 SHL SUB NOT PUSH1 0xF8 DUP13 SWAP1 SHL AND DUP2 MSTORE PUSH1 0x1 PUSH1 0x1 PUSH1 0xC0 SHL SUB NOT PUSH1 0xC0 DUP12 DUP2 SHL DUP3 AND PUSH1 0x1 DUP5 ADD MSTORE DUP11 SWAP1 SHL AND PUSH1 0x9 DUP3 ADD MSTORE PUSH1 0x0 PUSH2 0xE52 PUSH1 0x11 DUP4 ADD DUP11 PUSH2 0xB7E JUMP JUMPDEST DUP8 PUSH1 0x19 DUP4 ADD MSTORE DUP7 MLOAD PUSH2 0xE6B DUP2 PUSH1 0x39 DUP6 ADD PUSH1 0x20 DUP12 ADD PUSH2 0xF2E JUMP JUMPDEST DUP7 MLOAD SWAP1 DUP4 ADD SWAP1 PUSH2 0xE82 DUP2 PUSH1 0x39 DUP5 ADD PUSH1 0x20 DUP12 ADD PUSH2 0xF2E JUMP JUMPDEST ADD PUSH2 0xE90 PUSH1 0x39 DUP3 ADD DUP8 PUSH2 0xB7E JUMP JUMPDEST PUSH2 0xE9D PUSH1 0x41 DUP3 ADD DUP7 PUSH2 0xB7E JUMP JUMPDEST DUP4 MLOAD PUSH2 0xEB0 DUP2 PUSH1 0x49 DUP5 ADD PUSH1 0x20 DUP9 ADD PUSH2 0xF2E JUMP JUMPDEST ADD PUSH1 0x49 ADD SWAP13 SWAP12 POP POP POP POP POP POP POP POP POP POP POP POP JUMP JUMPDEST PUSH1 0x0 PUSH1 0x20 DUP3 MSTORE DUP3 MLOAD DUP1 PUSH1 0x20 DUP5 ADD MSTORE PUSH2 0xEE3 DUP2 PUSH1 0x40 DUP6 ADD PUSH1 0x20 DUP8 ADD PUSH2 0xF2E JUMP JUMPDEST PUSH1 0x1F ADD PUSH1 0x1F NOT AND SWAP2 SWAP1 SWAP2 ADD PUSH1 0x40 ADD SWAP3 SWAP2 POP POP JUMP JUMPDEST PUSH1 0xFF SWAP2 SWAP1 SWAP2 AND DUP2 MSTORE PUSH1 0x20 ADD SWAP1 JUMP JUMPDEST PUSH1 0x40 MLOAD DUP2 DUP2 ADD PUSH1 0x1 PUSH1 0x1 PUSH1 0x40 SHL SUB DUP2 GT DUP3 DUP3 LT OR ISZERO PUSH2 0xF26 JUMPI PUSH2 0xF26 PUSH2 0xF5E JUMP JUMPDEST PUSH1 0x40 MSTORE SWAP2 SWAP1 POP JUMP JUMPDEST PUSH1 0x0 JUMPDEST DUP4 DUP2 LT ISZERO PUSH2 0xF49 JUMPI DUP2 DUP2 ADD MLOAD DUP4 DUP3 ADD MSTORE PUSH1 0x20 ADD PUSH2 0xF31 JUMP JUMPDEST DUP4 DUP2 GT ISZERO PUSH2 0xF58 JUMPI PUSH1 0x0 DUP5 DUP5 ADD MSTORE JUMPDEST POP POP POP POP JUMP JUMPDEST PUSH4 0x4E487B71 PUSH1 0xE0 SHL PUSH1 0x0 MSTORE PUSH1 0x41 PUSH1 0x4 MSTORE PUSH1 0x24 PUSH1 0x0 REVERT INVALID LOG2 PUSH5 0x6970667358 0x22 SLT KECCAK256 PUSH27 0xF70CFE6CA07640D9F2A0902EC6181D73D5130751E991603C70129 EXTCODESIZE PUSH16 0x7FF164736F6C63430008000033000000 "
		},
		"gasEstimates": {
			"creation": {
				"codeDepositCost": "802000",
				"executionCost": "838",
				"totalCost": "802838"
			},
			"external": {
				"CANCEL_TOKEN()": "306",
				"DEPOSIT_TOKEN()": "264",
				"DIRECT_TRANSFER()": "285",
				"INITIALIZE_PDA()": "373",
				"INITIALIZE_TOKEN_ACCOUNT()": "307",
				"INSTANT_TOKEN()": "351",
				"PAUSE_TOKEN()": "352",
				"TOKEN_STREAM()": "284",
				"TOKEN_STREAM_UPDATE()": "286",
				"TOKEN_WITHDRAW_STREAM()": "263",
				"WITHDRAW_TOKEN()": "330",
				"encode_initialize_pda((bytes,uint256))": "infinite",
				"encode_initialize_token_account((bytes,bytes,uint256))": "infinite",
				"encode_process_cancel_token_stream((uint256,bytes,bytes,bytes,bytes))": "infinite",
				"encode_process_deposit_token((uint64,uint256,bytes,bytes))": "infinite",
				"encode_process_direct_transfer((uint64,uint256,bytes,bytes,bytes))": "infinite",
				"encode_process_instant_token_transfer((uint64,uint256,bytes,bytes,bytes))": "infinite",
				"encode_process_pause_token_stream((uint256,bytes,bytes,bytes,bytes))": "infinite",
				"encode_process_token_withdrawal((uint64,uint256,bytes,bytes))": "infinite",
				"encode_token_stream((uint64,uint64,uint64,uint256,bytes,bytes,uint64,uint64,bytes))": "infinite",
				"encode_token_stream_update((uint64,uint64,uint64,uint256,bytes,bytes,bytes,bytes))": "infinite",
				"encode_token_withdraw_stream((uint256,bytes,bytes,bytes,bytes))": "infinite"
			}
		},
		"methodIdentifiers": {
			"CANCEL_TOKEN()": "ce9dd1bc",
			"DEPOSIT_TOKEN()": "13f66587",
			"DIRECT_TRANSFER()": "6035b952",
			"INITIALIZE_PDA()": "84d8b64f",
			"INITIALIZE_TOKEN_ACCOUNT()": "6a79293a",
			"INSTANT_TOKEN()": "bbdcf3aa",
			"PAUSE_TOKEN()": "42555f3d",
			"TOKEN_STREAM()": "c30a7741",
			"TOKEN_STREAM_UPDATE()": "313861a7",
			"TOKEN_WITHDRAW_STREAM()": "5e2d15ed",
			"WITHDRAW_TOKEN()": "3ed3a054",
			"encode_initialize_pda((bytes,uint256))": "8385e567",
			"encode_initialize_token_account((bytes,bytes,uint256))": "fcdf089b",
			"encode_process_cancel_token_stream((uint256,bytes,bytes,bytes,bytes))": "7773f0cd",
			"encode_process_deposit_token((uint64,uint256,bytes,bytes))": "d57b4c08",
			"encode_process_direct_transfer((uint64,uint256,bytes,bytes,bytes))": "bbe46585",
			"encode_process_instant_token_transfer((uint64,uint256,bytes,bytes,bytes))": "a6ced947",
			"encode_process_pause_token_stream((uint256,bytes,bytes,bytes,bytes))": "8b31e9a2",
			"encode_process_token_withdrawal((uint64,uint256,bytes,bytes))": "d0cd2b06",
			"encode_token_stream((uint64,uint64,uint64,uint256,bytes,bytes,uint64,uint64,bytes))": "ae6f039c",
			"encode_token_stream_update((uint64,uint64,uint64,uint256,bytes,bytes,bytes,bytes))": "a1728325",
			"encode_token_withdraw_stream((uint256,bytes,bytes,bytes,bytes))": "34cf211e"
		}
	},
	"abi": [
		{
			"inputs": [],
			"name": "CANCEL_TOKEN",
			"outputs": [
				{
					"internalType": "uint8",
					"name": "",
					"type": "uint8"
				}
			],
			"stateMutability": "view",
			"type": "function"
		},
		{
			"inputs": [],
			"name": "DEPOSIT_TOKEN",
			"outputs": [
				{
					"internalType": "uint8",
					"name": "",
					"type": "uint8"
				}
			],
			"stateMutability": "view",
			"type": "function"
		},
		{
			"inputs": [],
			"name": "DIRECT_TRANSFER",
			"outputs": [
				{
					"internalType": "uint8",
					"name": "",
					"type": "uint8"
				}
			],
			"stateMutability": "view",
			"type": "function"
		},
		{
			"inputs": [],
			"name": "INITIALIZE_PDA",
			"outputs": [
				{
					"internalType": "uint8",
					"name": "",
					"type": "uint8"
				}
			],
			"stateMutability": "view",
			"type": "function"
		},
		{
			"inputs": [],
			"name": "INITIALIZE_TOKEN_ACCOUNT",
			"outputs": [
				{
					"internalType": "uint8",
					"name": "",
					"type": "uint8"
				}
			],
			"stateMutability": "view",
			"type": "function"
		},
		{
			"inputs": [],
			"name": "INSTANT_TOKEN",
			"outputs": [
				{
					"internalType": "uint8",
					"name": "",
					"type": "uint8"
				}
			],
			"stateMutability": "view",
			"type": "function"
		},
		{
			"inputs": [],
			"name": "PAUSE_TOKEN",
			"outputs": [
				{
					"internalType": "uint8",
					"name": "",
					"type": "uint8"
				}
			],
			"stateMutability": "view",
			"type": "function"
		},
		{
			"inputs": [],
			"name": "TOKEN_STREAM",
			"outputs": [
				{
					"internalType": "uint8",
					"name": "",
					"type": "uint8"
				}
			],
			"stateMutability": "view",
			"type": "function"
		},
		{
			"inputs": [],
			"name": "TOKEN_STREAM_UPDATE",
			"outputs": [
				{
					"internalType": "uint8",
					"name": "",
					"type": "uint8"
				}
			],
			"stateMutability": "view",
			"type": "function"
		},
		{
			"inputs": [],
			"name": "TOKEN_WITHDRAW_STREAM",
			"outputs": [
				{
					"internalType": "uint8",
					"name": "",
					"type": "uint8"
				}
			],
			"stateMutability": "view",
			"type": "function"
		},
		{
			"inputs": [],
			"name": "WITHDRAW_TOKEN",
			"outputs": [
				{
					"internalType": "uint8",
					"name": "",
					"type": "uint8"
				}
			],
			"stateMutability": "view",
			"type": "function"
		},
		{
			"inputs": [
				{
					"components": [
						{
							"internalType": "bytes",
							"name": "account",
							"type": "bytes"
						},
						{
							"internalType": "uint256",
							"name": "toChain",
							"type": "uint256"
						}
					],
					"internalType": "struct Messages.InitializePDA",
					"name": "initializePDA",
					"type": "tuple"
				}
			],
			"name": "encode_initialize_pda",
			"outputs": [
				{
					"internalType": "bytes",
					"name": "encoded",
					"type": "bytes"
				}
			],
			"stateMutability": "pure",
			"type": "function"
		},
		{
			"inputs": [
				{
					"components": [
						{
							"internalType": "bytes",
							"name": "account",
							"type": "bytes"
						},
						{
							"internalType": "bytes",
							"name": "tokenMint",
							"type": "bytes"
						},
						{
							"internalType": "uint256",
							"name": "toChain",
							"type": "uint256"
						}
					],
					"internalType": "struct Messages.InitializeTokenAccount",
					"name": "initializeTokenAccount",
					"type": "tuple"
				}
			],
			"name": "encode_initialize_token_account",
			"outputs": [
				{
					"internalType": "bytes",
					"name": "encoded",
					"type": "bytes"
				}
			],
			"stateMutability": "pure",
			"type": "function"
		},
		{
			"inputs": [
				{
					"components": [
						{
							"internalType": "uint256",
							"name": "toChain",
							"type": "uint256"
						},
						{
							"internalType": "bytes",
							"name": "sender",
							"type": "bytes"
						},
						{
							"internalType": "bytes",
							"name": "token_mint",
							"type": "bytes"
						},
						{
							"internalType": "bytes",
							"name": "reciever_address",
							"type": "bytes"
						},
						{
							"internalType": "bytes",
							"name": "data_account_address",
							"type": "bytes"
						}
					],
					"internalType": "struct Messages.CancelStreamToken",
					"name": "cancelStream",
					"type": "tuple"
				}
			],
			"name": "encode_process_cancel_token_stream",
			"outputs": [
				{
					"internalType": "bytes",
					"name": "encoded",
					"type": "bytes"
				}
			],
			"stateMutability": "pure",
			"type": "function"
		},
		{
			"inputs": [
				{
					"components": [
						{
							"internalType": "uint64",
							"name": "amount",
							"type": "uint64"
						},
						{
							"internalType": "uint256",
							"name": "toChain",
							"type": "uint256"
						},
						{
							"internalType": "bytes",
							"name": "depositor",
							"type": "bytes"
						},
						{
							"internalType": "bytes",
							"name": "token_mint",
							"type": "bytes"
						}
					],
					"internalType": "struct Messages.ProcessDepositToken",
					"name": "processDeposit",
					"type": "tuple"
				}
			],
			"name": "encode_process_deposit_token",
			"outputs": [
				{
					"internalType": "bytes",
					"name": "encoded",
					"type": "bytes"
				}
			],
			"stateMutability": "pure",
			"type": "function"
		},
		{
			"inputs": [
				{
					"components": [
						{
							"internalType": "uint64",
							"name": "amount",
							"type": "uint64"
						},
						{
							"internalType": "uint256",
							"name": "toChain",
							"type": "uint256"
						},
						{
							"internalType": "bytes",
							"name": "sender",
							"type": "bytes"
						},
						{
							"internalType": "bytes",
							"name": "token_mint",
							"type": "bytes"
						},
						{
							"internalType": "bytes",
							"name": "receiver",
							"type": "bytes"
						}
					],
					"internalType": "struct Messages.ProcessTransferToken",
					"name": "processTransfer",
					"type": "tuple"
				}
			],
			"name": "encode_process_direct_transfer",
			"outputs": [
				{
					"internalType": "bytes",
					"name": "encoded",
					"type": "bytes"
				}
			],
			"stateMutability": "pure",
			"type": "function"
		},
		{
			"inputs": [
				{
					"components": [
						{
							"internalType": "uint64",
							"name": "amount",
							"type": "uint64"
						},
						{
							"internalType": "uint256",
							"name": "toChain",
							"type": "uint256"
						},
						{
							"internalType": "bytes",
							"name": "sender",
							"type": "bytes"
						},
						{
							"internalType": "bytes",
							"name": "token_mint",
							"type": "bytes"
						},
						{
							"internalType": "bytes",
							"name": "receiver",
							"type": "bytes"
						}
					],
					"internalType": "struct Messages.ProcessTransferToken",
					"name": "processTransfer",
					"type": "tuple"
				}
			],
			"name": "encode_process_instant_token_transfer",
			"outputs": [
				{
					"internalType": "bytes",
					"name": "encoded",
					"type": "bytes"
				}
			],
			"stateMutability": "pure",
			"type": "function"
		},
		{
			"inputs": [
				{
					"components": [
						{
							"internalType": "uint256",
							"name": "toChain",
							"type": "uint256"
						},
						{
							"internalType": "bytes",
							"name": "sender",
							"type": "bytes"
						},
						{
							"internalType": "bytes",
							"name": "token_mint",
							"type": "bytes"
						},
						{
							"internalType": "bytes",
							"name": "reciever_address",
							"type": "bytes"
						},
						{
							"internalType": "bytes",
							"name": "data_account_address",
							"type": "bytes"
						}
					],
					"internalType": "struct Messages.PauseStreamToken",
					"name": "pauseStream",
					"type": "tuple"
				}
			],
			"name": "encode_process_pause_token_stream",
			"outputs": [
				{
					"internalType": "bytes",
					"name": "encoded",
					"type": "bytes"
				}
			],
			"stateMutability": "pure",
			"type": "function"
		},
		{
			"inputs": [
				{
					"components": [
						{
							"internalType": "uint64",
							"name": "amount",
							"type": "uint64"
						},
						{
							"internalType": "uint256",
							"name": "toChain",
							"type": "uint256"
						},
						{
							"internalType": "bytes",
							"name": "withdrawer",
							"type": "bytes"
						},
						{
							"internalType": "bytes",
							"name": "token_mint",
							"type": "bytes"
						}
					],
					"internalType": "struct Messages.ProcessWithdrawToken",
					"name": "processWithdraw",
					"type": "tuple"
				}
			],
			"name": "encode_process_token_withdrawal",
			"outputs": [
				{
					"internalType": "bytes",
					"name": "encoded",
					"type": "bytes"
				}
			],
			"stateMutability": "pure",
			"type": "function"
		},
		{
			"inputs": [
				{
					"components": [
						{
							"internalType": "uint64",
							"name": "start_time",
							"type": "uint64"
						},
						{
							"internalType": "uint64",
							"name": "end_time",
							"type": "uint64"
						},
						{
							"internalType": "uint64",
							"name": "amount",
							"type": "uint64"
						},
						{
							"internalType": "uint256",
							"name": "toChain",
							"type": "uint256"
						},
						{
							"internalType": "bytes",
							"name": "sender",
							"type": "bytes"
						},
						{
							"internalType": "bytes",
							"name": "receiver",
							"type": "bytes"
						},
						{
							"internalType": "uint64",
							"name": "can_cancel",
							"type": "uint64"
						},
						{
							"internalType": "uint64",
							"name": "can_update",
							"type": "uint64"
						},
						{
							"internalType": "bytes",
							"name": "token_mint",
							"type": "bytes"
						}
					],
					"internalType": "struct Messages.ProcessStreamToken",
					"name": "processStream",
					"type": "tuple"
				}
			],
			"name": "encode_token_stream",
			"outputs": [
				{
					"internalType": "bytes",
					"name": "encoded",
					"type": "bytes"
				}
			],
			"stateMutability": "pure",
			"type": "function"
		},
		{
			"inputs": [
				{
					"components": [
						{
							"internalType": "uint64",
							"name": "start_time",
							"type": "uint64"
						},
						{
							"internalType": "uint64",
							"name": "end_time",
							"type": "uint64"
						},
						{
							"internalType": "uint64",
							"name": "amount",
							"type": "uint64"
						},
						{
							"internalType": "uint256",
							"name": "toChain",
							"type": "uint256"
						},
						{
							"internalType": "bytes",
							"name": "sender",
							"type": "bytes"
						},
						{
							"internalType": "bytes",
							"name": "receiver",
							"type": "bytes"
						},
						{
							"internalType": "bytes",
							"name": "token_mint",
							"type": "bytes"
						},
						{
							"internalType": "bytes",
							"name": "data_account_address",
							"type": "bytes"
						}
					],
					"internalType": "struct Messages.UpdateStreamToken",
					"name": "processStream",
					"type": "tuple"
				}
			],
			"name": "encode_token_stream_update",
			"outputs": [
				{
					"internalType": "bytes",
					"name": "encoded",
					"type": "bytes"
				}
			],
			"stateMutability": "pure",
			"type": "function"
		},
		{
			"inputs": [
				{
					"components": [
						{
							"internalType": "uint256",
							"name": "toChain",
							"type": "uint256"
						},
						{
							"internalType": "bytes",
							"name": "withdrawer",
							"type": "bytes"
						},
						{
							"internalType": "bytes",
							"name": "token_mint",
							"type": "bytes"
						},
						{
							"internalType": "bytes",
							"name": "sender_address",
							"type": "bytes"
						},
						{
							"internalType": "bytes",
							"name": "data_account_address",
							"type": "bytes"
						}
					],
					"internalType": "struct Messages.ProcessWithdrawStreamToken",
					"name": "processWithdrawStream",
					"type": "tuple"
				}
			],
			"name": "encode_token_withdraw_stream",
			"outputs": [
				{
					"internalType": "bytes",
					"name": "encoded",
					"type": "bytes"
				}
			],
			"stateMutability": "pure",
			"type": "function"
		}
	]
}