{
	"data": {
		"bytecode": {
			"linkReferences": {},
			"object": "60806040526000805463ffffffff60a01b1916905560016004553480156200002657600080fd5b5060405162002e3738038062002e378339810160408190526200004991620000ab565b600180546001600160a01b039485166001600160a01b0319918216179091556002805493909416928116929092179092556000805490911633179055600355620000eb565b80516001600160a01b0381168114620000a657600080fd5b919050565b600080600060608486031215620000c0578283fd5b620000cb846200008e565b9250620000db602085016200008e565b9150604084015190509250925092565b612d3c80620000fb6000396000f3fe6080604052600436106102765760003560e01c80637773f0cd1161014f578063ae6f039c116100c1578063d57b4c081161007a578063d57b4c081461067e578063dd6a859e1461069e578063e2c3865f146106be578063e4365de0146106d1578063ed5cc77c146106e4578063fcdf089b146106f75761027d565b8063ae6f039c146105df578063bbdcf3aa146105ff578063bbe4658514610614578063c30a774114610634578063ce9dd1bc14610649578063d0cd2b061461065e5761027d565b80638e3edd1a116101135780638e3edd1a146105375780638f2839701461054a578063985c85b81461056a578063a17283251461058a578063a1764595146105aa578063a6ced947146105bf5761027d565b80637773f0cd146104ad5780638385e567146104cd57806384d8b64f146104ed5780638b31e9a2146105025780638da5cb5b146105225761027d565b80634a6aff29116101e85780635f327e1c116101ac5780635f327e1c1461042a5780636035b9521461044a5780636a1bb9821461045f5780636a79293a146104725780636b0724c71461048757806376462eea1461049a5761027d565b80634a6aff29146103b85780634fd686c8146103da57806358c4d9aa146103ef5780635e2d15ed146104025780635ed48a7a146104175761027d565b806334cf211e1161023a57806334cf211e1461030e578063378709d01461033b5780633d2e49a61461035b5780633ed3a0541461037b57806342555f3d1461039057806344b06541146103a55761027d565b80630db0afac1461028257806313f66587146102ad57806329247de7146102cf5780632c0fd6cb146102e6578063313861a7146102f95761027d565b3661027d57005b600080fd5b34801561028e57600080fd5b50610297610717565b6040516102a49190612762565b60405180910390f35b3480156102b957600080fd5b506102c261071d565b6040516102a49190612aa7565b3480156102db57600080fd5b506102e4610722565b005b6102e46102f4366004612229565b6107f8565b34801561030557600080fd5b506102c2610917565b34801561031a57600080fd5b5061032e610329366004611c5a565b61091c565b6040516102a4919061276b565b34801561034757600080fd5b506102e4610356366004612130565b610964565b34801561036757600080fd5b506102976103763660046120ed565b610a0e565b34801561038757600080fd5b506102c2610a20565b34801561039c57600080fd5b506102c2610a25565b6102e46103b336600461217c565b610a2a565b3480156103c457600080fd5b506103cd610b16565b6040516102a4919061274e565b3480156103e657600080fd5b506102c2610b25565b6102e46103fd366004611bb3565b610b2a565b34801561040e57600080fd5b506102c2610c14565b6102e4610425366004611bb3565b610c19565b34801561043657600080fd5b506102e4610445366004612107565b610cf4565b34801561045657600080fd5b506102c2610d35565b6102e461046d366004612302565b610d3a565b34801561047e57600080fd5b506102c2610e72565b6102e46104953660046121ee565b610e77565b6102e46104a8366004611b53565b610f5b565b3480156104b957600080fd5b5061032e6104c8366004611c5a565b611036565b3480156104d957600080fd5b5061032e6104e8366004611c8c565b611068565b3480156104f957600080fd5b506102c2611085565b34801561050e57600080fd5b5061032e61051d366004611c5a565b61108a565b34801561052e57600080fd5b506103cd6110bc565b6102e461054536600461217c565b6110cb565b34801561055657600080fd5b506102e4610565366004611aeb565b6111a9565b34801561057657600080fd5b506102e4610585366004612130565b6111f5565b34801561059657600080fd5b5061032e6105a5366004611fd9565b611224565b3480156105b657600080fd5b506103cd611262565b3480156105cb57600080fd5b5061032e6105da366004611f0e565b611271565b3480156105eb57600080fd5b5061032e6105fa366004611df7565b6112a3565b34801561060b57600080fd5b506102c26112e7565b34801561062057600080fd5b5061032e61062f366004611f0e565b6112ec565b34801561064057600080fd5b506102c261131e565b34801561065557600080fd5b506102c2611323565b34801561066a57600080fd5b5061032e610679366004611dc5565b611328565b34801561068a57600080fd5b5061032e610699366004611dc5565b611354565b3480156106aa57600080fd5b506102e46106b9366004612130565b611380565b6102e46106cc366004611b19565b6113af565b6102e46106df366004611bb3565b61147f565b6102e46106f23660046121ee565b61155a565b34801561070357600080fd5b5061032e610712366004611d17565b611642565b60035481565b600681565b6000546001600160a01b031633146107555760405162461bcd60e51b815260040161074c90612a3e565b60405180910390fd5b47806107735760405162461bcd60e51b815260040161074c90612984565b600080546040516001600160a01b0390911690839061079190612416565b60006040518083038185875af1925050503d80600081146107ce576040519150601f19603f3d011682016040523d82523d6000602084013e6107d3565b606091505b50509050806107f45760405162461bcd60e51b815260040161074c906128c6565b5050565b60008054600160a01b900463ffffffff1690601461081583612c9e565b91906101000a81548163ffffffff021916908363ffffffff16021790555050600061089a6040518061010001604052808a6001600160401b03168152602001896001600160401b03168152602001886001600160401b0316815260200161087a611668565b815260200186815260200187815260200185815260200184815250611224565b90506108bb600060149054906101000a900463ffffffff168260035461166e565b507f0f7c1e0ede20c46f43588d855dd35b9727a4878f40366a7096d0d0600fc6bebd84868589600060149054906101000a900463ffffffff1660405161090595949392919061277e565b60405180910390a15050505050505050565b600e81565b606060048260000151836020015184604001518560600151866080015160405160200161094e9695949392919061249c565b6040516020818303038152906040529050919050565b6000546001600160a01b0316331461098e5760405162461bcd60e51b815260040161074c90612a3e565b600254604051632e1a7d4d60e01b81526001600160a01b0390911690632e1a7d4d906109be908490600401612762565b600060405180830381600087803b1580156109d857600080fd5b505af11580156109ec573d6000803e3d6000fd5b5050600080546040519193506001600160a01b03169150839061079190612416565b60056020526000908152604090205481565b600a81565b600881565b60008054600160a01b900463ffffffff16906014610a4783612c9e565b91906101000a81548163ffffffff021916908363ffffffff160217905550506000610aa16040518060800160405280866001600160401b03168152602001610a8d611668565b815260200185815260200184815250611328565b9050610ac2600060149054906101000a900463ffffffff168260035461166e565b506000546040517f50ca08ca506277828f8b3fcb06709647df9008cbad7f8c6c982d31a4df990ab691610b0891869186918991600160a01b900463ffffffff169061281b565b60405180910390a150505050565b6001546001600160a01b031681565b600181565b60008054600160a01b900463ffffffff16906014610b4783612c9e565b91906101000a81548163ffffffff021916908363ffffffff160217905550506000610b9e6040518060a00160405280610b7e611668565b815260200187815260200186815260200185815260200184815250611036565b9050610bbf600060149054906101000a900463ffffffff168260035461166e565b507f57c5a9a119dde825fcab8502a1ba0d235bdf0d64a34ebea5195c15dcd2910ea88585600060149054906101000a900463ffffffff16604051610c05939291906127df565b60405180910390a15050505050565b600481565b60008054600160a01b900463ffffffff16906014610c3683612c9e565b91906101000a81548163ffffffff021916908363ffffffff160217905550506000610c8d6040518060a00160405280610c6d611668565b81526020018781526020018681526020018581526020018481525061108a565b9050610cae600060149054906101000a900463ffffffff168260035461166e565b507f65d46d0d756daa12e9317aa8d965accbb9e858754607e55b91e04da2346b05f08585600060149054906101000a900463ffffffff16604051610c05939291906127df565b6000546001600160a01b03163314610d1e5760405162461bcd60e51b815260040161074c90612941565b61ffff909116600090815260056020526040902055565b601181565b60008054600160a01b900463ffffffff16906014610d5783612c9e565b91906101000a81548163ffffffff021916908363ffffffff160217905550506000610df46040518061012001604052808b6001600160401b031681526020018a6001600160401b03168152602001896001600160401b03168152602001610dbc611668565b8152602001878152602001888152602001866001600160401b03168152602001856001600160401b03168152602001848152506112a3565b9050610e15600060149054906101000a900463ffffffff168260035461166e565b507fb990e0180c72d777b68e8d4a548d338f30d34dc396ce80ec59ac8c7ca2fd84cf8587848a600060149054906101000a900463ffffffff16604051610e5f95949392919061277e565b60405180910390a1505050505050505050565b601381565b60008054600160a01b900463ffffffff16906014610e9483612c9e565b91906101000a81548163ffffffff021916908363ffffffff160217905550506000610ef46040518060a00160405280876001600160401b03168152602001610eda611668565b815260200186815260200184815260200185815250611271565b9050610f15600060149054906101000a900463ffffffff168260035461166e565b506000546040517f4786a83693db947935f5cd397a747f3a699b9d07d3629ace94021d071d31137b91610c0591879186918a91600160a01b900463ffffffff169061281b565b60008054600160a01b900463ffffffff16906014610f7883612c9e565b91906101000a81548163ffffffff021916908363ffffffff160217905550506000610fc26040518060600160405280858152602001848152602001610fbb611668565b9052611642565b9050610fe3600060149054906101000a900463ffffffff168260035461166e565b507fa8da77fd2ec61d5e39b530180855d29db53f1c1b078bb33908433f4019bbadc58383600060149054906101000a900463ffffffff16604051611029939291906127df565b60405180910390a1505050565b606060108260000151836020015184604001518560600151866080015160405160200161094e9695949392919061249c565b805160208083015160405160609361094e93601293919201612466565b601281565b606060088260000151836020015184604001518560600151866080015160405160200161094e9695949392919061249c565b6000546001600160a01b031681565b60008054600160a01b900463ffffffff169060146110e883612c9e565b91906101000a81548163ffffffff021916908363ffffffff1602179055505060006111426040518060800160405280866001600160401b0316815260200161112e611668565b815260200185815260200184815250611354565b9050611163600060149054906101000a900463ffffffff168260035461166e565b506000546040517fe92479798b33f5214cf3f2cddb243718e1afe3396334bcf0e4039a881ebee1a691610b0891869186918991600160a01b900463ffffffff169061281b565b6000546001600160a01b031633146111d35760405162461bcd60e51b815260040161074c9061288f565b600080546001600160a01b0319166001600160a01b0392909216919091179055565b6000546001600160a01b0316331461121f5760405162461bcd60e51b815260040161074c9061288f565b600355565b8051602080830151604080850151606086810151608088015160a089015160c08a015160e08b01519651949961094e99600e999198919796016125f1565b6002546001600160a01b031681565b6060600c8260000151836020015184604001518560600151866080015160405160200161094e96959493929190612578565b8051602080830151604080850151606086810151608088015160a089015160c08a015160e08b01516101008c01519751959a61094e9a60029a91999198970161269e565b600c81565b606060118260000151836020015184604001518560600151866080015160405160200161094e96959493929190612578565b600281565b601081565b6060600a826000015183602001518460400151856060015160405160200161094e959493929190612516565b60606006826000015183602001518460400151856060015160405160200161094e959493929190612516565b6000546001600160a01b031633146113aa5760405162461bcd60e51b815260040161074c906128f4565b600455565b60008054600160a01b900463ffffffff169060146113cc83612c9e565b91906101000a81548163ffffffff021916908363ffffffff1602179055505060006114106040518060400160405280848152602001611409611668565b9052611068565b9050611431600060149054906101000a900463ffffffff168260035461166e565b506000546040517f5d7c60019563aa6754138204383f3e275fa5b0f88ac118cba94efa120ca039cc91611473918591600160a01b900463ffffffff1690612867565b60405180910390a15050565b60008054600160a01b900463ffffffff1690601461149c83612c9e565b91906101000a81548163ffffffff021916908363ffffffff1602179055505060006114f36040518060a001604052806114d3611668565b81526020018781526020018681526020018581526020018481525061091c565b9050611514600060149054906101000a900463ffffffff168260035461166e565b507fbfe17eacb8b88e73140237f9ff5f52edde2116f6e1531a4363938510d9aad18b8585600060149054906101000a900463ffffffff16604051610c05939291906127df565b60008054600160a01b900463ffffffff1690601461157783612c9e565b91906101000a81548163ffffffff021916908363ffffffff1602179055505060006115d76040518060a00160405280876001600160401b031681526020016115bd611668565b8152602001868152602001858152602001848152506112ec565b90506115f8600060149054906101000a900463ffffffff168260035461166e565b507fb501f7f4db3d2848c767079f2bafeff8aed134f32427f32801e905487ba4971684838588600060149054906101000a900463ffffffff16604051610c0595949392919061277e565b6060601382600001518360200151846040015160405160200161094e9493929190612419565b60045490565b600080600160009054906101000a90046001600160a01b03166001600160a01b0316631a90a2196040518163ffffffff1660e01b815260040160206040518083038186803b1580156116bf57600080fd5b505afa1580156116d3573d6000803e3d6000fd5b505050506040513d601f19601f820116820180604052508101906116f79190612148565b90503481106117185760405162461bcd60e51b815260040161074c906129fc565b60006117248234612c34565b9050808411156117465760405162461bcd60e51b815260040161074c906129b0565b6000611753856012611893565b905060006117628260126118cb565b61176c9084612c34565b905080156117a357604051339082156108fc029083906000818181858888f193505050501580156117a1573d6000803e3d6000fd5b505b6002546001600160a01b031663d0e30db06117be8386612c34565b6040518263ffffffff1660e01b81526004016000604051808303818588803b1580156117e957600080fd5b505af11580156117fd573d6000803e3d6000fd5b5050600180546040516358cd21bf60e11b81526001600160a01b03909116945063b19a437e935061183592508c918c91600401612a75565b602060405180830381600087803b15801561184f57600080fd5b505af1158015611863573d6000803e3d6000fd5b505050506040513d601f19601f820116820180604052508101906118879190612160565b98975050505050505050565b600060088260ff1611156118c4576118ac600883612c4b565b6118b790600a612b44565b6118c19084612ade565b92505b5090919050565b600060088260ff1611156118c4576118e4600883612c4b565b6118ef90600a612b44565b6118c19084612c15565b600082601f830112611909578081fd5b81356001600160401b0381111561192257611922612cd8565b611935601f8201601f1916602001612ab5565b818152846020838601011115611949578283fd5b816020850160208301379081016020019190915292915050565b600060a08284031215611974578081fd5b61197e60a0612ab5565b90508135815260208201356001600160401b038082111561199e57600080fd5b6119aa858386016118f9565b602084015260408401359150808211156119c357600080fd5b6119cf858386016118f9565b604084015260608401359150808211156119e857600080fd5b6119f4858386016118f9565b60608401526080840135915080821115611a0d57600080fd5b50611a1a848285016118f9565b60808301525092915050565b600060808284031215611a37578081fd5b604051608081016001600160401b038282108183111715611a5a57611a5a612cd8565b81604052829350611a6a85611ae0565b8352602085013560208401526040850135915080821115611a8a57600080fd5b611a96868387016118f9565b60408401526060850135915080821115611aaf57600080fd5b50611abc858286016118f9565b6060830152505092915050565b803561ffff81168114611adb57600080fd5b919050565b8035611adb81612cee565b600060208284031215611afc578081fd5b81356001600160a01b0381168114611b12578182fd5b9392505050565b600060208284031215611b2a578081fd5b81356001600160401b03811115611b3f578182fd5b611b4b848285016118f9565b949350505050565b60008060408385031215611b65578081fd5b82356001600160401b0380821115611b7b578283fd5b611b87868387016118f9565b93506020850135915080821115611b9c578283fd5b50611ba9858286016118f9565b9150509250929050565b60008060008060808587031215611bc8578182fd5b84356001600160401b0380821115611bde578384fd5b611bea888389016118f9565b95506020870135915080821115611bff578384fd5b611c0b888389016118f9565b94506040870135915080821115611c20578384fd5b611c2c888389016118f9565b93506060870135915080821115611c41578283fd5b50611c4e878288016118f9565b91505092959194509250565b600060208284031215611c6b578081fd5b81356001600160401b03811115611c80578182fd5b611b4b84828501611963565b600060208284031215611c9d578081fd5b81356001600160401b0380821115611cb3578283fd5b9083019060408286031215611cc6578283fd5b604051604081018181108382111715611ce157611ce1612cd8565b604052823582811115611cf2578485fd5b611cfe878286016118f9565b8252506020830135602082015280935050505092915050565b600060208284031215611d28578081fd5b81356001600160401b0380821115611d3e578283fd5b9083019060608286031215611d51578283fd5b604051606081018181108382111715611d6c57611d6c612cd8565b604052823582811115611d7d578485fd5b611d89878286016118f9565b825250602083013582811115611d9d578485fd5b611da9878286016118f9565b6020830152506040830135604082015280935050505092915050565b600060208284031215611dd6578081fd5b81356001600160401b03811115611deb578182fd5b611b4b84828501611a26565b600060208284031215611e08578081fd5b81356001600160401b0380821115611e1e578283fd5b8184019150610120808387031215611e34578384fd5b611e3d81612ab5565b9050611e4883611ae0565b8152611e5660208401611ae0565b6020820152611e6760408401611ae0565b604082015260608301356060820152608083013582811115611e87578485fd5b611e93878286016118f9565b60808301525060a083013582811115611eaa578485fd5b611eb6878286016118f9565b60a083015250611ec860c08401611ae0565b60c0820152611ed960e08401611ae0565b60e08201526101008084013583811115611ef1578586fd5b611efd888287016118f9565b918301919091525095945050505050565b600060208284031215611f1f578081fd5b81356001600160401b0380821115611f35578283fd5b9083019060a08286031215611f48578283fd5b611f5260a0612ab5565b611f5b83611ae0565b815260208301356020820152604083013582811115611f78578485fd5b611f84878286016118f9565b604083015250606083013582811115611f9b578485fd5b611fa7878286016118f9565b606083015250608083013582811115611fbe578485fd5b611fca878286016118f9565b60808301525095945050505050565b600060208284031215611fea578081fd5b81356001600160401b0380821115612000578283fd5b8184019150610100808387031215612016578384fd5b61201f81612ab5565b905061202a83611ae0565b815261203860208401611ae0565b602082015261204960408401611ae0565b604082015260608301356060820152608083013582811115612069578485fd5b612075878286016118f9565b60808301525060a08301358281111561208c578485fd5b612098878286016118f9565b60a08301525060c0830135828111156120af578485fd5b6120bb878286016118f9565b60c08301525060e0830135828111156120d2578485fd5b6120de878286016118f9565b60e08301525095945050505050565b6000602082840312156120fe578081fd5b611b1282611ac9565b60008060408385031215612119578182fd5b61212283611ac9565b946020939093013593505050565b600060208284031215612141578081fd5b5035919050565b600060208284031215612159578081fd5b5051919050565b600060208284031215612171578081fd5b8151611b1281612cee565b600080600060608486031215612190578081fd5b833561219b81612cee565b925060208401356001600160401b03808211156121b6578283fd5b6121c2878388016118f9565b935060408601359150808211156121d7578283fd5b506121e4868287016118f9565b9150509250925092565b60008060008060808587031215612203578182fd5b843561220e81612cee565b935060208501356001600160401b0380821115611bff578384fd5b600080600080600080600060e0888a031215612243578485fd5b61224c88611ae0565b965061225a60208901611ae0565b955061226860408901611ae0565b945060608801356001600160401b0380821115612283578485fd5b61228f8b838c016118f9565b955060808a01359150808211156122a4578485fd5b6122b08b838c016118f9565b945060a08a01359150808211156122c5578384fd5b6122d18b838c016118f9565b935060c08a01359150808211156122e6578283fd5b506122f38a828b016118f9565b91505092959891949750929550565b600080600080600080600080610100898b03121561231e578182fd5b61232789611ae0565b975061233560208a01611ae0565b965061234360408a01611ae0565b955060608901356001600160401b038082111561235e578384fd5b61236a8c838d016118f9565b965060808b013591508082111561237f578384fd5b61238b8c838d016118f9565b955061239960a08c01611ae0565b94506123a760c08c01611ae0565b935060e08b01359150808211156123bc578283fd5b506123c98b828c016118f9565b9150509295985092959890939650565b600081518084526123f1816020860160208601612c6e565b601f01601f19169290920160200192915050565b60c01b6001600160c01b0319169052565b90565b600060ff60f81b8660f81b168252845161243a816001850160208901612c6e565b845190830190612451816001840160208901612c6e565b01600181019390935250506021019392505050565b600060ff60f81b8560f81b1682528351612487816001850160208801612c6e565b60019201918201929092526021019392505050565b600060ff60f81b8860f81b16825286600183015285516124c3816021850160208a01612c6e565b8551908301906124da816021840160208a01612c6e565b85519101906124f0816021840160208901612c6e565b8451910190612506816021840160208801612c6e565b0160210198975050505050505050565b600060ff60f81b8760f81b1682526001600160401b0360c01b8660c01b1660018301528460098301528351612552816029850160208801612c6e565b835190830190612569816029840160208801612c6e565b01602901979650505050505050565b600060ff60f81b8860f81b1682526001600160401b0360c01b8760c01b16600183015285600983015284516125b4816029850160208901612c6e565b8451908301906125cb816029840160208901612c6e565b84519101906125e1816029840160208801612c6e565b0160290198975050505050505050565b6001600160f81b031960f88b901b1681526001600160c01b031960c08a811b8216600184015289901b166009820152600061262f6011830189612405565b8660198301528551612648816039850160208a01612c6e565b85519083019061265f816039840160208a01612c6e565b8551910190612675816039840160208901612c6e565b845191019061268b816039840160208801612c6e565b016039019b9a5050505050505050505050565b6001600160f81b031960f88c901b1681526001600160c01b031960c08b811b821660018401528a901b16600982015260006126dc601183018a612405565b87601983015286516126f5816039850160208b01612c6e565b86519083019061270c816039840160208b01612c6e565b0161271a6039820187612405565b6127276041820186612405565b835161273a816049840160208801612c6e565b016049019c9b505050505050505050505050565b6001600160a01b0391909116815260200190565b90815260200190565b600060208252611b1260208301846123d9565b600060a0825261279160a08301886123d9565b82810360208401526127a381886123d9565b905082810360408401526127b781876123d9565b9150506001600160401b038416606083015263ffffffff831660808301529695505050505050565b6000606082526127f260608301866123d9565b828103602084015261280481866123d9565b91505063ffffffff83166040830152949350505050565b60006080825261282e60808301876123d9565b828103602084015261284081876123d9565b9150506001600160401b038416604083015263ffffffff8316606083015295945050505050565b60006040825261287a60408301856123d9565b905063ffffffff831660208301529392505050565b6020808252601c908201527f4f6e6c79206f776e65722063616e206368616e67652061646d696e2100000000604082015260600190565b6020808252601490820152732330b4b632b2103a379039b2b7321022ba3432b960611b604082015260600190565b6020808252602d908201527f4f6e6c79206f776e65722063616e206368616e676520776f726d686f6c65206960408201526c6420666f7220536f6c616e612160981b606082015260800190565b60208082526023908201527f4f6e6c79206f776e65722063616e207265676973746572206e657720636861696040820152626e732160e81b606082015260800190565b602080825260129082015271139bc8115512081858d8dd5b5d5b185d195960721b604082015260600190565b6020808252602c908201527f66656520697320626967676572207468616e20616d6f756e74206d696e75732060408201526b776f726d686f6c652066656560a01b606082015260800190565b60208082526022908201527f76616c756520697320736d616c6c6572207468616e20776f726d686f6c652066604082015261656560f01b606082015260800190565b6020808252601e908201527f4f6e6c79206f776e65722063616e2077697468647261772066756e6473210000604082015260600190565b600063ffffffff8516825260606020830152612a9460608301856123d9565b905060ff83166040830152949350505050565b60ff91909116815260200190565b6040518181016001600160401b0381118282101715612ad657612ad6612cd8565b604052919050565b600082612af957634e487b7160e01b81526012600452602481fd5b500490565b80825b6001808611612b105750612b3b565b818704821115612b2257612b22612cc2565b80861615612b2f57918102915b9490941c938002612b01565b94509492505050565b6000611b1260001960ff851684600082612b6057506001611b12565b81612b6d57506000611b12565b8160018114612b835760028114612b8d57612bba565b6001915050611b12565b60ff841115612b9e57612b9e612cc2565b6001841b915084821115612bb457612bb4612cc2565b50611b12565b5060208310610133831016604e8410600b8410161715612bed575081810a83811115612be857612be8612cc2565b611b12565b612bfa8484846001612afe565b808604821115612c0c57612c0c612cc2565b02949350505050565b6000816000190483118215151615612c2f57612c2f612cc2565b500290565b600082821015612c4657612c46612cc2565b500390565b600060ff821660ff841680821015612c6557612c65612cc2565b90039392505050565b60005b83811015612c89578181015183820152602001612c71565b83811115612c98576000848401525b50505050565b600063ffffffff80831681811415612cb857612cb8612cc2565b6001019392505050565b634e487b7160e01b600052601160045260246000fd5b634e487b7160e01b600052604160045260246000fd5b6001600160401b0381168114612d0357600080fd5b5056fea264697066735822122092411a6753cea151e857286e010a4fc830bb82fd4c1f5689cfb23a2a5adc821964736f6c63430008000033",
			"opcodes": "PUSH1 0x80 PUSH1 0x40 MSTORE PUSH1 0x0 DUP1 SLOAD PUSH4 0xFFFFFFFF PUSH1 0xA0 SHL NOT AND SWAP1 SSTORE PUSH1 0x1 PUSH1 0x4 SSTORE CALLVALUE DUP1 ISZERO PUSH3 0x26 JUMPI PUSH1 0x0 DUP1 REVERT JUMPDEST POP PUSH1 0x40 MLOAD PUSH3 0x2E37 CODESIZE SUB DUP1 PUSH3 0x2E37 DUP4 CODECOPY DUP2 ADD PUSH1 0x40 DUP2 SWAP1 MSTORE PUSH3 0x49 SWAP2 PUSH3 0xAB JUMP JUMPDEST PUSH1 0x1 DUP1 SLOAD PUSH1 0x1 PUSH1 0x1 PUSH1 0xA0 SHL SUB SWAP5 DUP6 AND PUSH1 0x1 PUSH1 0x1 PUSH1 0xA0 SHL SUB NOT SWAP2 DUP3 AND OR SWAP1 SWAP2 SSTORE PUSH1 0x2 DUP1 SLOAD SWAP4 SWAP1 SWAP5 AND SWAP3 DUP2 AND SWAP3 SWAP1 SWAP3 OR SWAP1 SWAP3 SSTORE PUSH1 0x0 DUP1 SLOAD SWAP1 SWAP2 AND CALLER OR SWAP1 SSTORE PUSH1 0x3 SSTORE PUSH3 0xEB JUMP JUMPDEST DUP1 MLOAD PUSH1 0x1 PUSH1 0x1 PUSH1 0xA0 SHL SUB DUP2 AND DUP2 EQ PUSH3 0xA6 JUMPI PUSH1 0x0 DUP1 REVERT JUMPDEST SWAP2 SWAP1 POP JUMP JUMPDEST PUSH1 0x0 DUP1 PUSH1 0x0 PUSH1 0x60 DUP5 DUP7 SUB SLT ISZERO PUSH3 0xC0 JUMPI DUP3 DUP4 REVERT JUMPDEST PUSH3 0xCB DUP5 PUSH3 0x8E JUMP JUMPDEST SWAP3 POP PUSH3 0xDB PUSH1 0x20 DUP6 ADD PUSH3 0x8E JUMP JUMPDEST SWAP2 POP PUSH1 0x40 DUP5 ADD MLOAD SWAP1 POP SWAP3 POP SWAP3 POP SWAP3 JUMP JUMPDEST PUSH2 0x2D3C DUP1 PUSH3 0xFB PUSH1 0x0 CODECOPY PUSH1 0x0 RETURN INVALID PUSH1 0x80 PUSH1 0x40 MSTORE PUSH1 0x4 CALLDATASIZE LT PUSH2 0x276 JUMPI PUSH1 0x0 CALLDATALOAD PUSH1 0xE0 SHR DUP1 PUSH4 0x7773F0CD GT PUSH2 0x14F JUMPI DUP1 PUSH4 0xAE6F039C GT PUSH2 0xC1 JUMPI DUP1 PUSH4 0xD57B4C08 GT PUSH2 0x7A JUMPI DUP1 PUSH4 0xD57B4C08 EQ PUSH2 0x67E JUMPI DUP1 PUSH4 0xDD6A859E EQ PUSH2 0x69E JUMPI DUP1 PUSH4 0xE2C3865F EQ PUSH2 0x6BE JUMPI DUP1 PUSH4 0xE4365DE0 EQ PUSH2 0x6D1 JUMPI DUP1 PUSH4 0xED5CC77C EQ PUSH2 0x6E4 JUMPI DUP1 PUSH4 0xFCDF089B EQ PUSH2 0x6F7 JUMPI PUSH2 0x27D JUMP JUMPDEST DUP1 PUSH4 0xAE6F039C EQ PUSH2 0x5DF JUMPI DUP1 PUSH4 0xBBDCF3AA EQ PUSH2 0x5FF JUMPI DUP1 PUSH4 0xBBE46585 EQ PUSH2 0x614 JUMPI DUP1 PUSH4 0xC30A7741 EQ PUSH2 0x634 JUMPI DUP1 PUSH4 0xCE9DD1BC EQ PUSH2 0x649 JUMPI DUP1 PUSH4 0xD0CD2B06 EQ PUSH2 0x65E JUMPI PUSH2 0x27D JUMP JUMPDEST DUP1 PUSH4 0x8E3EDD1A GT PUSH2 0x113 JUMPI DUP1 PUSH4 0x8E3EDD1A EQ PUSH2 0x537 JUMPI DUP1 PUSH4 0x8F283970 EQ PUSH2 0x54A JUMPI DUP1 PUSH4 0x985C85B8 EQ PUSH2 0x56A JUMPI DUP1 PUSH4 0xA1728325 EQ PUSH2 0x58A JUMPI DUP1 PUSH4 0xA1764595 EQ PUSH2 0x5AA JUMPI DUP1 PUSH4 0xA6CED947 EQ PUSH2 0x5BF JUMPI PUSH2 0x27D JUMP JUMPDEST DUP1 PUSH4 0x7773F0CD EQ PUSH2 0x4AD JUMPI DUP1 PUSH4 0x8385E567 EQ PUSH2 0x4CD JUMPI DUP1 PUSH4 0x84D8B64F EQ PUSH2 0x4ED JUMPI DUP1 PUSH4 0x8B31E9A2 EQ PUSH2 0x502 JUMPI DUP1 PUSH4 0x8DA5CB5B EQ PUSH2 0x522 JUMPI PUSH2 0x27D JUMP JUMPDEST DUP1 PUSH4 0x4A6AFF29 GT PUSH2 0x1E8 JUMPI DUP1 PUSH4 0x5F327E1C GT PUSH2 0x1AC JUMPI DUP1 PUSH4 0x5F327E1C EQ PUSH2 0x42A JUMPI DUP1 PUSH4 0x6035B952 EQ PUSH2 0x44A JUMPI DUP1 PUSH4 0x6A1BB982 EQ PUSH2 0x45F JUMPI DUP1 PUSH4 0x6A79293A EQ PUSH2 0x472 JUMPI DUP1 PUSH4 0x6B0724C7 EQ PUSH2 0x487 JUMPI DUP1 PUSH4 0x76462EEA EQ PUSH2 0x49A JUMPI PUSH2 0x27D JUMP JUMPDEST DUP1 PUSH4 0x4A6AFF29 EQ PUSH2 0x3B8 JUMPI DUP1 PUSH4 0x4FD686C8 EQ PUSH2 0x3DA JUMPI DUP1 PUSH4 0x58C4D9AA EQ PUSH2 0x3EF JUMPI DUP1 PUSH4 0x5E2D15ED EQ PUSH2 0x402 JUMPI DUP1 PUSH4 0x5ED48A7A EQ PUSH2 0x417 JUMPI PUSH2 0x27D JUMP JUMPDEST DUP1 PUSH4 0x34CF211E GT PUSH2 0x23A JUMPI DUP1 PUSH4 0x34CF211E EQ PUSH2 0x30E JUMPI DUP1 PUSH4 0x378709D0 EQ PUSH2 0x33B JUMPI DUP1 PUSH4 0x3D2E49A6 EQ PUSH2 0x35B JUMPI DUP1 PUSH4 0x3ED3A054 EQ PUSH2 0x37B JUMPI DUP1 PUSH4 0x42555F3D EQ PUSH2 0x390 JUMPI DUP1 PUSH4 0x44B06541 EQ PUSH2 0x3A5 JUMPI PUSH2 0x27D JUMP JUMPDEST DUP1 PUSH4 0xDB0AFAC EQ PUSH2 0x282 JUMPI DUP1 PUSH4 0x13F66587 EQ PUSH2 0x2AD JUMPI DUP1 PUSH4 0x29247DE7 EQ PUSH2 0x2CF JUMPI DUP1 PUSH4 0x2C0FD6CB EQ PUSH2 0x2E6 JUMPI DUP1 PUSH4 0x313861A7 EQ PUSH2 0x2F9 JUMPI PUSH2 0x27D JUMP JUMPDEST CALLDATASIZE PUSH2 0x27D JUMPI STOP JUMPDEST PUSH1 0x0 DUP1 REVERT JUMPDEST CALLVALUE DUP1 ISZERO PUSH2 0x28E JUMPI PUSH1 0x0 DUP1 REVERT JUMPDEST POP PUSH2 0x297 PUSH2 0x717 JUMP JUMPDEST PUSH1 0x40 MLOAD PUSH2 0x2A4 SWAP2 SWAP1 PUSH2 0x2762 JUMP JUMPDEST PUSH1 0x40 MLOAD DUP1 SWAP2 SUB SWAP1 RETURN JUMPDEST CALLVALUE DUP1 ISZERO PUSH2 0x2B9 JUMPI PUSH1 0x0 DUP1 REVERT JUMPDEST POP PUSH2 0x2C2 PUSH2 0x71D JUMP JUMPDEST PUSH1 0x40 MLOAD PUSH2 0x2A4 SWAP2 SWAP1 PUSH2 0x2AA7 JUMP JUMPDEST CALLVALUE DUP1 ISZERO PUSH2 0x2DB JUMPI PUSH1 0x0 DUP1 REVERT JUMPDEST POP PUSH2 0x2E4 PUSH2 0x722 JUMP JUMPDEST STOP JUMPDEST PUSH2 0x2E4 PUSH2 0x2F4 CALLDATASIZE PUSH1 0x4 PUSH2 0x2229 JUMP JUMPDEST PUSH2 0x7F8 JUMP JUMPDEST CALLVALUE DUP1 ISZERO PUSH2 0x305 JUMPI PUSH1 0x0 DUP1 REVERT JUMPDEST POP PUSH2 0x2C2 PUSH2 0x917 JUMP JUMPDEST CALLVALUE DUP1 ISZERO PUSH2 0x31A JUMPI PUSH1 0x0 DUP1 REVERT JUMPDEST POP PUSH2 0x32E PUSH2 0x329 CALLDATASIZE PUSH1 0x4 PUSH2 0x1C5A JUMP JUMPDEST PUSH2 0x91C JUMP JUMPDEST PUSH1 0x40 MLOAD PUSH2 0x2A4 SWAP2 SWAP1 PUSH2 0x276B JUMP JUMPDEST CALLVALUE DUP1 ISZERO PUSH2 0x347 JUMPI PUSH1 0x0 DUP1 REVERT JUMPDEST POP PUSH2 0x2E4 PUSH2 0x356 CALLDATASIZE PUSH1 0x4 PUSH2 0x2130 JUMP JUMPDEST PUSH2 0x964 JUMP JUMPDEST CALLVALUE DUP1 ISZERO PUSH2 0x367 JUMPI PUSH1 0x0 DUP1 REVERT JUMPDEST POP PUSH2 0x297 PUSH2 0x376 CALLDATASIZE PUSH1 0x4 PUSH2 0x20ED JUMP JUMPDEST PUSH2 0xA0E JUMP JUMPDEST CALLVALUE DUP1 ISZERO PUSH2 0x387 JUMPI PUSH1 0x0 DUP1 REVERT JUMPDEST POP PUSH2 0x2C2 PUSH2 0xA20 JUMP JUMPDEST CALLVALUE DUP1 ISZERO PUSH2 0x39C JUMPI PUSH1 0x0 DUP1 REVERT JUMPDEST POP PUSH2 0x2C2 PUSH2 0xA25 JUMP JUMPDEST PUSH2 0x2E4 PUSH2 0x3B3 CALLDATASIZE PUSH1 0x4 PUSH2 0x217C JUMP JUMPDEST PUSH2 0xA2A JUMP JUMPDEST CALLVALUE DUP1 ISZERO PUSH2 0x3C4 JUMPI PUSH1 0x0 DUP1 REVERT JUMPDEST POP PUSH2 0x3CD PUSH2 0xB16 JUMP JUMPDEST PUSH1 0x40 MLOAD PUSH2 0x2A4 SWAP2 SWAP1 PUSH2 0x274E JUMP JUMPDEST CALLVALUE DUP1 ISZERO PUSH2 0x3E6 JUMPI PUSH1 0x0 DUP1 REVERT JUMPDEST POP PUSH2 0x2C2 PUSH2 0xB25 JUMP JUMPDEST PUSH2 0x2E4 PUSH2 0x3FD CALLDATASIZE PUSH1 0x4 PUSH2 0x1BB3 JUMP JUMPDEST PUSH2 0xB2A JUMP JUMPDEST CALLVALUE DUP1 ISZERO PUSH2 0x40E JUMPI PUSH1 0x0 DUP1 REVERT JUMPDEST POP PUSH2 0x2C2 PUSH2 0xC14 JUMP JUMPDEST PUSH2 0x2E4 PUSH2 0x425 CALLDATASIZE PUSH1 0x4 PUSH2 0x1BB3 JUMP JUMPDEST PUSH2 0xC19 JUMP JUMPDEST CALLVALUE DUP1 ISZERO PUSH2 0x436 JUMPI PUSH1 0x0 DUP1 REVERT JUMPDEST POP PUSH2 0x2E4 PUSH2 0x445 CALLDATASIZE PUSH1 0x4 PUSH2 0x2107 JUMP JUMPDEST PUSH2 0xCF4 JUMP JUMPDEST CALLVALUE DUP1 ISZERO PUSH2 0x456 JUMPI PUSH1 0x0 DUP1 REVERT JUMPDEST POP PUSH2 0x2C2 PUSH2 0xD35 JUMP JUMPDEST PUSH2 0x2E4 PUSH2 0x46D CALLDATASIZE PUSH1 0x4 PUSH2 0x2302 JUMP JUMPDEST PUSH2 0xD3A JUMP JUMPDEST CALLVALUE DUP1 ISZERO PUSH2 0x47E JUMPI PUSH1 0x0 DUP1 REVERT JUMPDEST POP PUSH2 0x2C2 PUSH2 0xE72 JUMP JUMPDEST PUSH2 0x2E4 PUSH2 0x495 CALLDATASIZE PUSH1 0x4 PUSH2 0x21EE JUMP JUMPDEST PUSH2 0xE77 JUMP JUMPDEST PUSH2 0x2E4 PUSH2 0x4A8 CALLDATASIZE PUSH1 0x4 PUSH2 0x1B53 JUMP JUMPDEST PUSH2 0xF5B JUMP JUMPDEST CALLVALUE DUP1 ISZERO PUSH2 0x4B9 JUMPI PUSH1 0x0 DUP1 REVERT JUMPDEST POP PUSH2 0x32E PUSH2 0x4C8 CALLDATASIZE PUSH1 0x4 PUSH2 0x1C5A JUMP JUMPDEST PUSH2 0x1036 JUMP JUMPDEST CALLVALUE DUP1 ISZERO PUSH2 0x4D9 JUMPI PUSH1 0x0 DUP1 REVERT JUMPDEST POP PUSH2 0x32E PUSH2 0x4E8 CALLDATASIZE PUSH1 0x4 PUSH2 0x1C8C JUMP JUMPDEST PUSH2 0x1068 JUMP JUMPDEST CALLVALUE DUP1 ISZERO PUSH2 0x4F9 JUMPI PUSH1 0x0 DUP1 REVERT JUMPDEST POP PUSH2 0x2C2 PUSH2 0x1085 JUMP JUMPDEST CALLVALUE DUP1 ISZERO PUSH2 0x50E JUMPI PUSH1 0x0 DUP1 REVERT JUMPDEST POP PUSH2 0x32E PUSH2 0x51D CALLDATASIZE PUSH1 0x4 PUSH2 0x1C5A JUMP JUMPDEST PUSH2 0x108A JUMP JUMPDEST CALLVALUE DUP1 ISZERO PUSH2 0x52E JUMPI PUSH1 0x0 DUP1 REVERT JUMPDEST POP PUSH2 0x3CD PUSH2 0x10BC JUMP JUMPDEST PUSH2 0x2E4 PUSH2 0x545 CALLDATASIZE PUSH1 0x4 PUSH2 0x217C JUMP JUMPDEST PUSH2 0x10CB JUMP JUMPDEST CALLVALUE DUP1 ISZERO PUSH2 0x556 JUMPI PUSH1 0x0 DUP1 REVERT JUMPDEST POP PUSH2 0x2E4 PUSH2 0x565 CALLDATASIZE PUSH1 0x4 PUSH2 0x1AEB JUMP JUMPDEST PUSH2 0x11A9 JUMP JUMPDEST CALLVALUE DUP1 ISZERO PUSH2 0x576 JUMPI PUSH1 0x0 DUP1 REVERT JUMPDEST POP PUSH2 0x2E4 PUSH2 0x585 CALLDATASIZE PUSH1 0x4 PUSH2 0x2130 JUMP JUMPDEST PUSH2 0x11F5 JUMP JUMPDEST CALLVALUE DUP1 ISZERO PUSH2 0x596 JUMPI PUSH1 0x0 DUP1 REVERT JUMPDEST POP PUSH2 0x32E PUSH2 0x5A5 CALLDATASIZE PUSH1 0x4 PUSH2 0x1FD9 JUMP JUMPDEST PUSH2 0x1224 JUMP JUMPDEST CALLVALUE DUP1 ISZERO PUSH2 0x5B6 JUMPI PUSH1 0x0 DUP1 REVERT JUMPDEST POP PUSH2 0x3CD PUSH2 0x1262 JUMP JUMPDEST CALLVALUE DUP1 ISZERO PUSH2 0x5CB JUMPI PUSH1 0x0 DUP1 REVERT JUMPDEST POP PUSH2 0x32E PUSH2 0x5DA CALLDATASIZE PUSH1 0x4 PUSH2 0x1F0E JUMP JUMPDEST PUSH2 0x1271 JUMP JUMPDEST CALLVALUE DUP1 ISZERO PUSH2 0x5EB JUMPI PUSH1 0x0 DUP1 REVERT JUMPDEST POP PUSH2 0x32E PUSH2 0x5FA CALLDATASIZE PUSH1 0x4 PUSH2 0x1DF7 JUMP JUMPDEST PUSH2 0x12A3 JUMP JUMPDEST CALLVALUE DUP1 ISZERO PUSH2 0x60B JUMPI PUSH1 0x0 DUP1 REVERT JUMPDEST POP PUSH2 0x2C2 PUSH2 0x12E7 JUMP JUMPDEST CALLVALUE DUP1 ISZERO PUSH2 0x620 JUMPI PUSH1 0x0 DUP1 REVERT JUMPDEST POP PUSH2 0x32E PUSH2 0x62F CALLDATASIZE PUSH1 0x4 PUSH2 0x1F0E JUMP JUMPDEST PUSH2 0x12EC JUMP JUMPDEST CALLVALUE DUP1 ISZERO PUSH2 0x640 JUMPI PUSH1 0x0 DUP1 REVERT JUMPDEST POP PUSH2 0x2C2 PUSH2 0x131E JUMP JUMPDEST CALLVALUE DUP1 ISZERO PUSH2 0x655 JUMPI PUSH1 0x0 DUP1 REVERT JUMPDEST POP PUSH2 0x2C2 PUSH2 0x1323 JUMP JUMPDEST CALLVALUE DUP1 ISZERO PUSH2 0x66A JUMPI PUSH1 0x0 DUP1 REVERT JUMPDEST POP PUSH2 0x32E PUSH2 0x679 CALLDATASIZE PUSH1 0x4 PUSH2 0x1DC5 JUMP JUMPDEST PUSH2 0x1328 JUMP JUMPDEST CALLVALUE DUP1 ISZERO PUSH2 0x68A JUMPI PUSH1 0x0 DUP1 REVERT JUMPDEST POP PUSH2 0x32E PUSH2 0x699 CALLDATASIZE PUSH1 0x4 PUSH2 0x1DC5 JUMP JUMPDEST PUSH2 0x1354 JUMP JUMPDEST CALLVALUE DUP1 ISZERO PUSH2 0x6AA JUMPI PUSH1 0x0 DUP1 REVERT JUMPDEST POP PUSH2 0x2E4 PUSH2 0x6B9 CALLDATASIZE PUSH1 0x4 PUSH2 0x2130 JUMP JUMPDEST PUSH2 0x1380 JUMP JUMPDEST PUSH2 0x2E4 PUSH2 0x6CC CALLDATASIZE PUSH1 0x4 PUSH2 0x1B19 JUMP JUMPDEST PUSH2 0x13AF JUMP JUMPDEST PUSH2 0x2E4 PUSH2 0x6DF CALLDATASIZE PUSH1 0x4 PUSH2 0x1BB3 JUMP JUMPDEST PUSH2 0x147F JUMP JUMPDEST PUSH2 0x2E4 PUSH2 0x6F2 CALLDATASIZE PUSH1 0x4 PUSH2 0x21EE JUMP JUMPDEST PUSH2 0x155A JUMP JUMPDEST CALLVALUE DUP1 ISZERO PUSH2 0x703 JUMPI PUSH1 0x0 DUP1 REVERT JUMPDEST POP PUSH2 0x32E PUSH2 0x712 CALLDATASIZE PUSH1 0x4 PUSH2 0x1D17 JUMP JUMPDEST PUSH2 0x1642 JUMP JUMPDEST PUSH1 0x3 SLOAD DUP2 JUMP JUMPDEST PUSH1 0x6 DUP2 JUMP JUMPDEST PUSH1 0x0 SLOAD PUSH1 0x1 PUSH1 0x1 PUSH1 0xA0 SHL SUB AND CALLER EQ PUSH2 0x755 JUMPI PUSH1 0x40 MLOAD PUSH3 0x461BCD PUSH1 0xE5 SHL DUP2 MSTORE PUSH1 0x4 ADD PUSH2 0x74C SWAP1 PUSH2 0x2A3E JUMP JUMPDEST PUSH1 0x40 MLOAD DUP1 SWAP2 SUB SWAP1 REVERT JUMPDEST SELFBALANCE DUP1 PUSH2 0x773 JUMPI PUSH1 0x40 MLOAD PUSH3 0x461BCD PUSH1 0xE5 SHL DUP2 MSTORE PUSH1 0x4 ADD PUSH2 0x74C SWAP1 PUSH2 0x2984 JUMP JUMPDEST PUSH1 0x0 DUP1 SLOAD PUSH1 0x40 MLOAD PUSH1 0x1 PUSH1 0x1 PUSH1 0xA0 SHL SUB SWAP1 SWAP2 AND SWAP1 DUP4 SWAP1 PUSH2 0x791 SWAP1 PUSH2 0x2416 JUMP JUMPDEST PUSH1 0x0 PUSH1 0x40 MLOAD DUP1 DUP4 SUB DUP2 DUP6 DUP8 GAS CALL SWAP3 POP POP POP RETURNDATASIZE DUP1 PUSH1 0x0 DUP2 EQ PUSH2 0x7CE JUMPI PUSH1 0x40 MLOAD SWAP2 POP PUSH1 0x1F NOT PUSH1 0x3F RETURNDATASIZE ADD AND DUP3 ADD PUSH1 0x40 MSTORE RETURNDATASIZE DUP3 MSTORE RETURNDATASIZE PUSH1 0x0 PUSH1 0x20 DUP5 ADD RETURNDATACOPY PUSH2 0x7D3 JUMP JUMPDEST PUSH1 0x60 SWAP2 POP JUMPDEST POP POP SWAP1 POP DUP1 PUSH2 0x7F4 JUMPI PUSH1 0x40 MLOAD PUSH3 0x461BCD PUSH1 0xE5 SHL DUP2 MSTORE PUSH1 0x4 ADD PUSH2 0x74C SWAP1 PUSH2 0x28C6 JUMP JUMPDEST POP POP JUMP JUMPDEST PUSH1 0x0 DUP1 SLOAD PUSH1 0x1 PUSH1 0xA0 SHL SWAP1 DIV PUSH4 0xFFFFFFFF AND SWAP1 PUSH1 0x14 PUSH2 0x815 DUP4 PUSH2 0x2C9E JUMP JUMPDEST SWAP2 SWAP1 PUSH2 0x100 EXP DUP2 SLOAD DUP2 PUSH4 0xFFFFFFFF MUL NOT AND SWAP1 DUP4 PUSH4 0xFFFFFFFF AND MUL OR SWAP1 SSTORE POP POP PUSH1 0x0 PUSH2 0x89A PUSH1 0x40 MLOAD DUP1 PUSH2 0x100 ADD PUSH1 0x40 MSTORE DUP1 DUP11 PUSH1 0x1 PUSH1 0x1 PUSH1 0x40 SHL SUB AND DUP2 MSTORE PUSH1 0x20 ADD DUP10 PUSH1 0x1 PUSH1 0x1 PUSH1 0x40 SHL SUB AND DUP2 MSTORE PUSH1 0x20 ADD DUP9 PUSH1 0x1 PUSH1 0x1 PUSH1 0x40 SHL SUB AND DUP2 MSTORE PUSH1 0x20 ADD PUSH2 0x87A PUSH2 0x1668 JUMP JUMPDEST DUP2 MSTORE PUSH1 0x20 ADD DUP7 DUP2 MSTORE PUSH1 0x20 ADD DUP8 DUP2 MSTORE PUSH1 0x20 ADD DUP6 DUP2 MSTORE PUSH1 0x20 ADD DUP5 DUP2 MSTORE POP PUSH2 0x1224 JUMP JUMPDEST SWAP1 POP PUSH2 0x8BB PUSH1 0x0 PUSH1 0x14 SWAP1 SLOAD SWAP1 PUSH2 0x100 EXP SWAP1 DIV PUSH4 0xFFFFFFFF AND DUP3 PUSH1 0x3 SLOAD PUSH2 0x166E JUMP JUMPDEST POP PUSH32 0xF7C1E0EDE20C46F43588D855DD35B9727A4878F40366A7096D0D0600FC6BEBD DUP5 DUP7 DUP6 DUP10 PUSH1 0x0 PUSH1 0x14 SWAP1 SLOAD SWAP1 PUSH2 0x100 EXP SWAP1 DIV PUSH4 0xFFFFFFFF AND PUSH1 0x40 MLOAD PUSH2 0x905 SWAP6 SWAP5 SWAP4 SWAP3 SWAP2 SWAP1 PUSH2 0x277E JUMP JUMPDEST PUSH1 0x40 MLOAD DUP1 SWAP2 SUB SWAP1 LOG1 POP POP POP POP POP POP POP POP JUMP JUMPDEST PUSH1 0xE DUP2 JUMP JUMPDEST PUSH1 0x60 PUSH1 0x4 DUP3 PUSH1 0x0 ADD MLOAD DUP4 PUSH1 0x20 ADD MLOAD DUP5 PUSH1 0x40 ADD MLOAD DUP6 PUSH1 0x60 ADD MLOAD DUP7 PUSH1 0x80 ADD MLOAD PUSH1 0x40 MLOAD PUSH1 0x20 ADD PUSH2 0x94E SWAP7 SWAP6 SWAP5 SWAP4 SWAP3 SWAP2 SWAP1 PUSH2 0x249C JUMP JUMPDEST PUSH1 0x40 MLOAD PUSH1 0x20 DUP2 DUP4 SUB SUB DUP2 MSTORE SWAP1 PUSH1 0x40 MSTORE SWAP1 POP SWAP2 SWAP1 POP JUMP JUMPDEST PUSH1 0x0 SLOAD PUSH1 0x1 PUSH1 0x1 PUSH1 0xA0 SHL SUB AND CALLER EQ PUSH2 0x98E JUMPI PUSH1 0x40 MLOAD PUSH3 0x461BCD PUSH1 0xE5 SHL DUP2 MSTORE PUSH1 0x4 ADD PUSH2 0x74C SWAP1 PUSH2 0x2A3E JUMP JUMPDEST PUSH1 0x2 SLOAD PUSH1 0x40 MLOAD PUSH4 0x2E1A7D4D PUSH1 0xE0 SHL DUP2 MSTORE PUSH1 0x1 PUSH1 0x1 PUSH1 0xA0 SHL SUB SWAP1 SWAP2 AND SWAP1 PUSH4 0x2E1A7D4D SWAP1 PUSH2 0x9BE SWAP1 DUP5 SWAP1 PUSH1 0x4 ADD PUSH2 0x2762 JUMP JUMPDEST PUSH1 0x0 PUSH1 0x40 MLOAD DUP1 DUP4 SUB DUP2 PUSH1 0x0 DUP8 DUP1 EXTCODESIZE ISZERO DUP1 ISZERO PUSH2 0x9D8 JUMPI PUSH1 0x0 DUP1 REVERT JUMPDEST POP GAS CALL ISZERO DUP1 ISZERO PUSH2 0x9EC JUMPI RETURNDATASIZE PUSH1 0x0 DUP1 RETURNDATACOPY RETURNDATASIZE PUSH1 0x0 REVERT JUMPDEST POP POP PUSH1 0x0 DUP1 SLOAD PUSH1 0x40 MLOAD SWAP2 SWAP4 POP PUSH1 0x1 PUSH1 0x1 PUSH1 0xA0 SHL SUB AND SWAP2 POP DUP4 SWAP1 PUSH2 0x791 SWAP1 PUSH2 0x2416 JUMP JUMPDEST PUSH1 0x5 PUSH1 0x20 MSTORE PUSH1 0x0 SWAP1 DUP2 MSTORE PUSH1 0x40 SWAP1 KECCAK256 SLOAD DUP2 JUMP JUMPDEST PUSH1 0xA DUP2 JUMP JUMPDEST PUSH1 0x8 DUP2 JUMP JUMPDEST PUSH1 0x0 DUP1 SLOAD PUSH1 0x1 PUSH1 0xA0 SHL SWAP1 DIV PUSH4 0xFFFFFFFF AND SWAP1 PUSH1 0x14 PUSH2 0xA47 DUP4 PUSH2 0x2C9E JUMP JUMPDEST SWAP2 SWAP1 PUSH2 0x100 EXP DUP2 SLOAD DUP2 PUSH4 0xFFFFFFFF MUL NOT AND SWAP1 DUP4 PUSH4 0xFFFFFFFF AND MUL OR SWAP1 SSTORE POP POP PUSH1 0x0 PUSH2 0xAA1 PUSH1 0x40 MLOAD DUP1 PUSH1 0x80 ADD PUSH1 0x40 MSTORE DUP1 DUP7 PUSH1 0x1 PUSH1 0x1 PUSH1 0x40 SHL SUB AND DUP2 MSTORE PUSH1 0x20 ADD PUSH2 0xA8D PUSH2 0x1668 JUMP JUMPDEST DUP2 MSTORE PUSH1 0x20 ADD DUP6 DUP2 MSTORE PUSH1 0x20 ADD DUP5 DUP2 MSTORE POP PUSH2 0x1328 JUMP JUMPDEST SWAP1 POP PUSH2 0xAC2 PUSH1 0x0 PUSH1 0x14 SWAP1 SLOAD SWAP1 PUSH2 0x100 EXP SWAP1 DIV PUSH4 0xFFFFFFFF AND DUP3 PUSH1 0x3 SLOAD PUSH2 0x166E JUMP JUMPDEST POP PUSH1 0x0 SLOAD PUSH1 0x40 MLOAD PUSH32 0x50CA08CA506277828F8B3FCB06709647DF9008CBAD7F8C6C982D31A4DF990AB6 SWAP2 PUSH2 0xB08 SWAP2 DUP7 SWAP2 DUP7 SWAP2 DUP10 SWAP2 PUSH1 0x1 PUSH1 0xA0 SHL SWAP1 DIV PUSH4 0xFFFFFFFF AND SWAP1 PUSH2 0x281B JUMP JUMPDEST PUSH1 0x40 MLOAD DUP1 SWAP2 SUB SWAP1 LOG1 POP POP POP POP JUMP JUMPDEST PUSH1 0x1 SLOAD PUSH1 0x1 PUSH1 0x1 PUSH1 0xA0 SHL SUB AND DUP2 JUMP JUMPDEST PUSH1 0x1 DUP2 JUMP JUMPDEST PUSH1 0x0 DUP1 SLOAD PUSH1 0x1 PUSH1 0xA0 SHL SWAP1 DIV PUSH4 0xFFFFFFFF AND SWAP1 PUSH1 0x14 PUSH2 0xB47 DUP4 PUSH2 0x2C9E JUMP JUMPDEST SWAP2 SWAP1 PUSH2 0x100 EXP DUP2 SLOAD DUP2 PUSH4 0xFFFFFFFF MUL NOT AND SWAP1 DUP4 PUSH4 0xFFFFFFFF AND MUL OR SWAP1 SSTORE POP POP PUSH1 0x0 PUSH2 0xB9E PUSH1 0x40 MLOAD DUP1 PUSH1 0xA0 ADD PUSH1 0x40 MSTORE DUP1 PUSH2 0xB7E PUSH2 0x1668 JUMP JUMPDEST DUP2 MSTORE PUSH1 0x20 ADD DUP8 DUP2 MSTORE PUSH1 0x20 ADD DUP7 DUP2 MSTORE PUSH1 0x20 ADD DUP6 DUP2 MSTORE PUSH1 0x20 ADD DUP5 DUP2 MSTORE POP PUSH2 0x1036 JUMP JUMPDEST SWAP1 POP PUSH2 0xBBF PUSH1 0x0 PUSH1 0x14 SWAP1 SLOAD SWAP1 PUSH2 0x100 EXP SWAP1 DIV PUSH4 0xFFFFFFFF AND DUP3 PUSH1 0x3 SLOAD PUSH2 0x166E JUMP JUMPDEST POP PUSH32 0x57C5A9A119DDE825FCAB8502A1BA0D235BDF0D64A34EBEA5195C15DCD2910EA8 DUP6 DUP6 PUSH1 0x0 PUSH1 0x14 SWAP1 SLOAD SWAP1 PUSH2 0x100 EXP SWAP1 DIV PUSH4 0xFFFFFFFF AND PUSH1 0x40 MLOAD PUSH2 0xC05 SWAP4 SWAP3 SWAP2 SWAP1 PUSH2 0x27DF JUMP JUMPDEST PUSH1 0x40 MLOAD DUP1 SWAP2 SUB SWAP1 LOG1 POP POP POP POP POP JUMP JUMPDEST PUSH1 0x4 DUP2 JUMP JUMPDEST PUSH1 0x0 DUP1 SLOAD PUSH1 0x1 PUSH1 0xA0 SHL SWAP1 DIV PUSH4 0xFFFFFFFF AND SWAP1 PUSH1 0x14 PUSH2 0xC36 DUP4 PUSH2 0x2C9E JUMP JUMPDEST SWAP2 SWAP1 PUSH2 0x100 EXP DUP2 SLOAD DUP2 PUSH4 0xFFFFFFFF MUL NOT AND SWAP1 DUP4 PUSH4 0xFFFFFFFF AND MUL OR SWAP1 SSTORE POP POP PUSH1 0x0 PUSH2 0xC8D PUSH1 0x40 MLOAD DUP1 PUSH1 0xA0 ADD PUSH1 0x40 MSTORE DUP1 PUSH2 0xC6D PUSH2 0x1668 JUMP JUMPDEST DUP2 MSTORE PUSH1 0x20 ADD DUP8 DUP2 MSTORE PUSH1 0x20 ADD DUP7 DUP2 MSTORE PUSH1 0x20 ADD DUP6 DUP2 MSTORE PUSH1 0x20 ADD DUP5 DUP2 MSTORE POP PUSH2 0x108A JUMP JUMPDEST SWAP1 POP PUSH2 0xCAE PUSH1 0x0 PUSH1 0x14 SWAP1 SLOAD SWAP1 PUSH2 0x100 EXP SWAP1 DIV PUSH4 0xFFFFFFFF AND DUP3 PUSH1 0x3 SLOAD PUSH2 0x166E JUMP JUMPDEST POP PUSH32 0x65D46D0D756DAA12E9317AA8D965ACCBB9E858754607E55B91E04DA2346B05F0 DUP6 DUP6 PUSH1 0x0 PUSH1 0x14 SWAP1 SLOAD SWAP1 PUSH2 0x100 EXP SWAP1 DIV PUSH4 0xFFFFFFFF AND PUSH1 0x40 MLOAD PUSH2 0xC05 SWAP4 SWAP3 SWAP2 SWAP1 PUSH2 0x27DF JUMP JUMPDEST PUSH1 0x0 SLOAD PUSH1 0x1 PUSH1 0x1 PUSH1 0xA0 SHL SUB AND CALLER EQ PUSH2 0xD1E JUMPI PUSH1 0x40 MLOAD PUSH3 0x461BCD PUSH1 0xE5 SHL DUP2 MSTORE PUSH1 0x4 ADD PUSH2 0x74C SWAP1 PUSH2 0x2941 JUMP JUMPDEST PUSH2 0xFFFF SWAP1 SWAP2 AND PUSH1 0x0 SWAP1 DUP2 MSTORE PUSH1 0x5 PUSH1 0x20 MSTORE PUSH1 0x40 SWAP1 KECCAK256 SSTORE JUMP JUMPDEST PUSH1 0x11 DUP2 JUMP JUMPDEST PUSH1 0x0 DUP1 SLOAD PUSH1 0x1 PUSH1 0xA0 SHL SWAP1 DIV PUSH4 0xFFFFFFFF AND SWAP1 PUSH1 0x14 PUSH2 0xD57 DUP4 PUSH2 0x2C9E JUMP JUMPDEST SWAP2 SWAP1 PUSH2 0x100 EXP DUP2 SLOAD DUP2 PUSH4 0xFFFFFFFF MUL NOT AND SWAP1 DUP4 PUSH4 0xFFFFFFFF AND MUL OR SWAP1 SSTORE POP POP PUSH1 0x0 PUSH2 0xDF4 PUSH1 0x40 MLOAD DUP1 PUSH2 0x120 ADD PUSH1 0x40 MSTORE DUP1 DUP12 PUSH1 0x1 PUSH1 0x1 PUSH1 0x40 SHL SUB AND DUP2 MSTORE PUSH1 0x20 ADD DUP11 PUSH1 0x1 PUSH1 0x1 PUSH1 0x40 SHL SUB AND DUP2 MSTORE PUSH1 0x20 ADD DUP10 PUSH1 0x1 PUSH1 0x1 PUSH1 0x40 SHL SUB AND DUP2 MSTORE PUSH1 0x20 ADD PUSH2 0xDBC PUSH2 0x1668 JUMP JUMPDEST DUP2 MSTORE PUSH1 0x20 ADD DUP8 DUP2 MSTORE PUSH1 0x20 ADD DUP9 DUP2 MSTORE PUSH1 0x20 ADD DUP7 PUSH1 0x1 PUSH1 0x1 PUSH1 0x40 SHL SUB AND DUP2 MSTORE PUSH1 0x20 ADD DUP6 PUSH1 0x1 PUSH1 0x1 PUSH1 0x40 SHL SUB AND DUP2 MSTORE PUSH1 0x20 ADD DUP5 DUP2 MSTORE POP PUSH2 0x12A3 JUMP JUMPDEST SWAP1 POP PUSH2 0xE15 PUSH1 0x0 PUSH1 0x14 SWAP1 SLOAD SWAP1 PUSH2 0x100 EXP SWAP1 DIV PUSH4 0xFFFFFFFF AND DUP3 PUSH1 0x3 SLOAD PUSH2 0x166E JUMP JUMPDEST POP PUSH32 0xB990E0180C72D777B68E8D4A548D338F30D34DC396CE80EC59AC8C7CA2FD84CF DUP6 DUP8 DUP5 DUP11 PUSH1 0x0 PUSH1 0x14 SWAP1 SLOAD SWAP1 PUSH2 0x100 EXP SWAP1 DIV PUSH4 0xFFFFFFFF AND PUSH1 0x40 MLOAD PUSH2 0xE5F SWAP6 SWAP5 SWAP4 SWAP3 SWAP2 SWAP1 PUSH2 0x277E JUMP JUMPDEST PUSH1 0x40 MLOAD DUP1 SWAP2 SUB SWAP1 LOG1 POP POP POP POP POP POP POP POP POP JUMP JUMPDEST PUSH1 0x13 DUP2 JUMP JUMPDEST PUSH1 0x0 DUP1 SLOAD PUSH1 0x1 PUSH1 0xA0 SHL SWAP1 DIV PUSH4 0xFFFFFFFF AND SWAP1 PUSH1 0x14 PUSH2 0xE94 DUP4 PUSH2 0x2C9E JUMP JUMPDEST SWAP2 SWAP1 PUSH2 0x100 EXP DUP2 SLOAD DUP2 PUSH4 0xFFFFFFFF MUL NOT AND SWAP1 DUP4 PUSH4 0xFFFFFFFF AND MUL OR SWAP1 SSTORE POP POP PUSH1 0x0 PUSH2 0xEF4 PUSH1 0x40 MLOAD DUP1 PUSH1 0xA0 ADD PUSH1 0x40 MSTORE DUP1 DUP8 PUSH1 0x1 PUSH1 0x1 PUSH1 0x40 SHL SUB AND DUP2 MSTORE PUSH1 0x20 ADD PUSH2 0xEDA PUSH2 0x1668 JUMP JUMPDEST DUP2 MSTORE PUSH1 0x20 ADD DUP7 DUP2 MSTORE PUSH1 0x20 ADD DUP5 DUP2 MSTORE PUSH1 0x20 ADD DUP6 DUP2 MSTORE POP PUSH2 0x1271 JUMP JUMPDEST SWAP1 POP PUSH2 0xF15 PUSH1 0x0 PUSH1 0x14 SWAP1 SLOAD SWAP1 PUSH2 0x100 EXP SWAP1 DIV PUSH4 0xFFFFFFFF AND DUP3 PUSH1 0x3 SLOAD PUSH2 0x166E JUMP JUMPDEST POP PUSH1 0x0 SLOAD PUSH1 0x40 MLOAD PUSH32 0x4786A83693DB947935F5CD397A747F3A699B9D07D3629ACE94021D071D31137B SWAP2 PUSH2 0xC05 SWAP2 DUP8 SWAP2 DUP7 SWAP2 DUP11 SWAP2 PUSH1 0x1 PUSH1 0xA0 SHL SWAP1 DIV PUSH4 0xFFFFFFFF AND SWAP1 PUSH2 0x281B JUMP JUMPDEST PUSH1 0x0 DUP1 SLOAD PUSH1 0x1 PUSH1 0xA0 SHL SWAP1 DIV PUSH4 0xFFFFFFFF AND SWAP1 PUSH1 0x14 PUSH2 0xF78 DUP4 PUSH2 0x2C9E JUMP JUMPDEST SWAP2 SWAP1 PUSH2 0x100 EXP DUP2 SLOAD DUP2 PUSH4 0xFFFFFFFF MUL NOT AND SWAP1 DUP4 PUSH4 0xFFFFFFFF AND MUL OR SWAP1 SSTORE POP POP PUSH1 0x0 PUSH2 0xFC2 PUSH1 0x40 MLOAD DUP1 PUSH1 0x60 ADD PUSH1 0x40 MSTORE DUP1 DUP6 DUP2 MSTORE PUSH1 0x20 ADD DUP5 DUP2 MSTORE PUSH1 0x20 ADD PUSH2 0xFBB PUSH2 0x1668 JUMP JUMPDEST SWAP1 MSTORE PUSH2 0x1642 JUMP JUMPDEST SWAP1 POP PUSH2 0xFE3 PUSH1 0x0 PUSH1 0x14 SWAP1 SLOAD SWAP1 PUSH2 0x100 EXP SWAP1 DIV PUSH4 0xFFFFFFFF AND DUP3 PUSH1 0x3 SLOAD PUSH2 0x166E JUMP JUMPDEST POP PUSH32 0xA8DA77FD2EC61D5E39B530180855D29DB53F1C1B078BB33908433F4019BBADC5 DUP4 DUP4 PUSH1 0x0 PUSH1 0x14 SWAP1 SLOAD SWAP1 PUSH2 0x100 EXP SWAP1 DIV PUSH4 0xFFFFFFFF AND PUSH1 0x40 MLOAD PUSH2 0x1029 SWAP4 SWAP3 SWAP2 SWAP1 PUSH2 0x27DF JUMP JUMPDEST PUSH1 0x40 MLOAD DUP1 SWAP2 SUB SWAP1 LOG1 POP POP POP JUMP JUMPDEST PUSH1 0x60 PUSH1 0x10 DUP3 PUSH1 0x0 ADD MLOAD DUP4 PUSH1 0x20 ADD MLOAD DUP5 PUSH1 0x40 ADD MLOAD DUP6 PUSH1 0x60 ADD MLOAD DUP7 PUSH1 0x80 ADD MLOAD PUSH1 0x40 MLOAD PUSH1 0x20 ADD PUSH2 0x94E SWAP7 SWAP6 SWAP5 SWAP4 SWAP3 SWAP2 SWAP1 PUSH2 0x249C JUMP JUMPDEST DUP1 MLOAD PUSH1 0x20 DUP1 DUP4 ADD MLOAD PUSH1 0x40 MLOAD PUSH1 0x60 SWAP4 PUSH2 0x94E SWAP4 PUSH1 0x12 SWAP4 SWAP2 SWAP3 ADD PUSH2 0x2466 JUMP JUMPDEST PUSH1 0x12 DUP2 JUMP JUMPDEST PUSH1 0x60 PUSH1 0x8 DUP3 PUSH1 0x0 ADD MLOAD DUP4 PUSH1 0x20 ADD MLOAD DUP5 PUSH1 0x40 ADD MLOAD DUP6 PUSH1 0x60 ADD MLOAD DUP7 PUSH1 0x80 ADD MLOAD PUSH1 0x40 MLOAD PUSH1 0x20 ADD PUSH2 0x94E SWAP7 SWAP6 SWAP5 SWAP4 SWAP3 SWAP2 SWAP1 PUSH2 0x249C JUMP JUMPDEST PUSH1 0x0 SLOAD PUSH1 0x1 PUSH1 0x1 PUSH1 0xA0 SHL SUB AND DUP2 JUMP JUMPDEST PUSH1 0x0 DUP1 SLOAD PUSH1 0x1 PUSH1 0xA0 SHL SWAP1 DIV PUSH4 0xFFFFFFFF AND SWAP1 PUSH1 0x14 PUSH2 0x10E8 DUP4 PUSH2 0x2C9E JUMP JUMPDEST SWAP2 SWAP1 PUSH2 0x100 EXP DUP2 SLOAD DUP2 PUSH4 0xFFFFFFFF MUL NOT AND SWAP1 DUP4 PUSH4 0xFFFFFFFF AND MUL OR SWAP1 SSTORE POP POP PUSH1 0x0 PUSH2 0x1142 PUSH1 0x40 MLOAD DUP1 PUSH1 0x80 ADD PUSH1 0x40 MSTORE DUP1 DUP7 PUSH1 0x1 PUSH1 0x1 PUSH1 0x40 SHL SUB AND DUP2 MSTORE PUSH1 0x20 ADD PUSH2 0x112E PUSH2 0x1668 JUMP JUMPDEST DUP2 MSTORE PUSH1 0x20 ADD DUP6 DUP2 MSTORE PUSH1 0x20 ADD DUP5 DUP2 MSTORE POP PUSH2 0x1354 JUMP JUMPDEST SWAP1 POP PUSH2 0x1163 PUSH1 0x0 PUSH1 0x14 SWAP1 SLOAD SWAP1 PUSH2 0x100 EXP SWAP1 DIV PUSH4 0xFFFFFFFF AND DUP3 PUSH1 0x3 SLOAD PUSH2 0x166E JUMP JUMPDEST POP PUSH1 0x0 SLOAD PUSH1 0x40 MLOAD PUSH32 0xE92479798B33F5214CF3F2CDDB243718E1AFE3396334BCF0E4039A881EBEE1A6 SWAP2 PUSH2 0xB08 SWAP2 DUP7 SWAP2 DUP7 SWAP2 DUP10 SWAP2 PUSH1 0x1 PUSH1 0xA0 SHL SWAP1 DIV PUSH4 0xFFFFFFFF AND SWAP1 PUSH2 0x281B JUMP JUMPDEST PUSH1 0x0 SLOAD PUSH1 0x1 PUSH1 0x1 PUSH1 0xA0 SHL SUB AND CALLER EQ PUSH2 0x11D3 JUMPI PUSH1 0x40 MLOAD PUSH3 0x461BCD PUSH1 0xE5 SHL DUP2 MSTORE PUSH1 0x4 ADD PUSH2 0x74C SWAP1 PUSH2 0x288F JUMP JUMPDEST PUSH1 0x0 DUP1 SLOAD PUSH1 0x1 PUSH1 0x1 PUSH1 0xA0 SHL SUB NOT AND PUSH1 0x1 PUSH1 0x1 PUSH1 0xA0 SHL SUB SWAP3 SWAP1 SWAP3 AND SWAP2 SWAP1 SWAP2 OR SWAP1 SSTORE JUMP JUMPDEST PUSH1 0x0 SLOAD PUSH1 0x1 PUSH1 0x1 PUSH1 0xA0 SHL SUB AND CALLER EQ PUSH2 0x121F JUMPI PUSH1 0x40 MLOAD PUSH3 0x461BCD PUSH1 0xE5 SHL DUP2 MSTORE PUSH1 0x4 ADD PUSH2 0x74C SWAP1 PUSH2 0x288F JUMP JUMPDEST PUSH1 0x3 SSTORE JUMP JUMPDEST DUP1 MLOAD PUSH1 0x20 DUP1 DUP4 ADD MLOAD PUSH1 0x40 DUP1 DUP6 ADD MLOAD PUSH1 0x60 DUP7 DUP2 ADD MLOAD PUSH1 0x80 DUP9 ADD MLOAD PUSH1 0xA0 DUP10 ADD MLOAD PUSH1 0xC0 DUP11 ADD MLOAD PUSH1 0xE0 DUP12 ADD MLOAD SWAP7 MLOAD SWAP5 SWAP10 PUSH2 0x94E SWAP10 PUSH1 0xE SWAP10 SWAP2 SWAP9 SWAP2 SWAP8 SWAP7 ADD PUSH2 0x25F1 JUMP JUMPDEST PUSH1 0x2 SLOAD PUSH1 0x1 PUSH1 0x1 PUSH1 0xA0 SHL SUB AND DUP2 JUMP JUMPDEST PUSH1 0x60 PUSH1 0xC DUP3 PUSH1 0x0 ADD MLOAD DUP4 PUSH1 0x20 ADD MLOAD DUP5 PUSH1 0x40 ADD MLOAD DUP6 PUSH1 0x60 ADD MLOAD DUP7 PUSH1 0x80 ADD MLOAD PUSH1 0x40 MLOAD PUSH1 0x20 ADD PUSH2 0x94E SWAP7 SWAP6 SWAP5 SWAP4 SWAP3 SWAP2 SWAP1 PUSH2 0x2578 JUMP JUMPDEST DUP1 MLOAD PUSH1 0x20 DUP1 DUP4 ADD MLOAD PUSH1 0x40 DUP1 DUP6 ADD MLOAD PUSH1 0x60 DUP7 DUP2 ADD MLOAD PUSH1 0x80 DUP9 ADD MLOAD PUSH1 0xA0 DUP10 ADD MLOAD PUSH1 0xC0 DUP11 ADD MLOAD PUSH1 0xE0 DUP12 ADD MLOAD PUSH2 0x100 DUP13 ADD MLOAD SWAP8 MLOAD SWAP6 SWAP11 PUSH2 0x94E SWAP11 PUSH1 0x2 SWAP11 SWAP2 SWAP10 SWAP2 SWAP9 SWAP8 ADD PUSH2 0x269E JUMP JUMPDEST PUSH1 0xC DUP2 JUMP JUMPDEST PUSH1 0x60 PUSH1 0x11 DUP3 PUSH1 0x0 ADD MLOAD DUP4 PUSH1 0x20 ADD MLOAD DUP5 PUSH1 0x40 ADD MLOAD DUP6 PUSH1 0x60 ADD MLOAD DUP7 PUSH1 0x80 ADD MLOAD PUSH1 0x40 MLOAD PUSH1 0x20 ADD PUSH2 0x94E SWAP7 SWAP6 SWAP5 SWAP4 SWAP3 SWAP2 SWAP1 PUSH2 0x2578 JUMP JUMPDEST PUSH1 0x2 DUP2 JUMP JUMPDEST PUSH1 0x10 DUP2 JUMP JUMPDEST PUSH1 0x60 PUSH1 0xA DUP3 PUSH1 0x0 ADD MLOAD DUP4 PUSH1 0x20 ADD MLOAD DUP5 PUSH1 0x40 ADD MLOAD DUP6 PUSH1 0x60 ADD MLOAD PUSH1 0x40 MLOAD PUSH1 0x20 ADD PUSH2 0x94E SWAP6 SWAP5 SWAP4 SWAP3 SWAP2 SWAP1 PUSH2 0x2516 JUMP JUMPDEST PUSH1 0x60 PUSH1 0x6 DUP3 PUSH1 0x0 ADD MLOAD DUP4 PUSH1 0x20 ADD MLOAD DUP5 PUSH1 0x40 ADD MLOAD DUP6 PUSH1 0x60 ADD MLOAD PUSH1 0x40 MLOAD PUSH1 0x20 ADD PUSH2 0x94E SWAP6 SWAP5 SWAP4 SWAP3 SWAP2 SWAP1 PUSH2 0x2516 JUMP JUMPDEST PUSH1 0x0 SLOAD PUSH1 0x1 PUSH1 0x1 PUSH1 0xA0 SHL SUB AND CALLER EQ PUSH2 0x13AA JUMPI PUSH1 0x40 MLOAD PUSH3 0x461BCD PUSH1 0xE5 SHL DUP2 MSTORE PUSH1 0x4 ADD PUSH2 0x74C SWAP1 PUSH2 0x28F4 JUMP JUMPDEST PUSH1 0x4 SSTORE JUMP JUMPDEST PUSH1 0x0 DUP1 SLOAD PUSH1 0x1 PUSH1 0xA0 SHL SWAP1 DIV PUSH4 0xFFFFFFFF AND SWAP1 PUSH1 0x14 PUSH2 0x13CC DUP4 PUSH2 0x2C9E JUMP JUMPDEST SWAP2 SWAP1 PUSH2 0x100 EXP DUP2 SLOAD DUP2 PUSH4 0xFFFFFFFF MUL NOT AND SWAP1 DUP4 PUSH4 0xFFFFFFFF AND MUL OR SWAP1 SSTORE POP POP PUSH1 0x0 PUSH2 0x1410 PUSH1 0x40 MLOAD DUP1 PUSH1 0x40 ADD PUSH1 0x40 MSTORE DUP1 DUP5 DUP2 MSTORE PUSH1 0x20 ADD PUSH2 0x1409 PUSH2 0x1668 JUMP JUMPDEST SWAP1 MSTORE PUSH2 0x1068 JUMP JUMPDEST SWAP1 POP PUSH2 0x1431 PUSH1 0x0 PUSH1 0x14 SWAP1 SLOAD SWAP1 PUSH2 0x100 EXP SWAP1 DIV PUSH4 0xFFFFFFFF AND DUP3 PUSH1 0x3 SLOAD PUSH2 0x166E JUMP JUMPDEST POP PUSH1 0x0 SLOAD PUSH1 0x40 MLOAD PUSH32 0x5D7C60019563AA6754138204383F3E275FA5B0F88AC118CBA94EFA120CA039CC SWAP2 PUSH2 0x1473 SWAP2 DUP6 SWAP2 PUSH1 0x1 PUSH1 0xA0 SHL SWAP1 DIV PUSH4 0xFFFFFFFF AND SWAP1 PUSH2 0x2867 JUMP JUMPDEST PUSH1 0x40 MLOAD DUP1 SWAP2 SUB SWAP1 LOG1 POP POP JUMP JUMPDEST PUSH1 0x0 DUP1 SLOAD PUSH1 0x1 PUSH1 0xA0 SHL SWAP1 DIV PUSH4 0xFFFFFFFF AND SWAP1 PUSH1 0x14 PUSH2 0x149C DUP4 PUSH2 0x2C9E JUMP JUMPDEST SWAP2 SWAP1 PUSH2 0x100 EXP DUP2 SLOAD DUP2 PUSH4 0xFFFFFFFF MUL NOT AND SWAP1 DUP4 PUSH4 0xFFFFFFFF AND MUL OR SWAP1 SSTORE POP POP PUSH1 0x0 PUSH2 0x14F3 PUSH1 0x40 MLOAD DUP1 PUSH1 0xA0 ADD PUSH1 0x40 MSTORE DUP1 PUSH2 0x14D3 PUSH2 0x1668 JUMP JUMPDEST DUP2 MSTORE PUSH1 0x20 ADD DUP8 DUP2 MSTORE PUSH1 0x20 ADD DUP7 DUP2 MSTORE PUSH1 0x20 ADD DUP6 DUP2 MSTORE PUSH1 0x20 ADD DUP5 DUP2 MSTORE POP PUSH2 0x91C JUMP JUMPDEST SWAP1 POP PUSH2 0x1514 PUSH1 0x0 PUSH1 0x14 SWAP1 SLOAD SWAP1 PUSH2 0x100 EXP SWAP1 DIV PUSH4 0xFFFFFFFF AND DUP3 PUSH1 0x3 SLOAD PUSH2 0x166E JUMP JUMPDEST POP PUSH32 0xBFE17EACB8B88E73140237F9FF5F52EDDE2116F6E1531A4363938510D9AAD18B DUP6 DUP6 PUSH1 0x0 PUSH1 0x14 SWAP1 SLOAD SWAP1 PUSH2 0x100 EXP SWAP1 DIV PUSH4 0xFFFFFFFF AND PUSH1 0x40 MLOAD PUSH2 0xC05 SWAP4 SWAP3 SWAP2 SWAP1 PUSH2 0x27DF JUMP JUMPDEST PUSH1 0x0 DUP1 SLOAD PUSH1 0x1 PUSH1 0xA0 SHL SWAP1 DIV PUSH4 0xFFFFFFFF AND SWAP1 PUSH1 0x14 PUSH2 0x1577 DUP4 PUSH2 0x2C9E JUMP JUMPDEST SWAP2 SWAP1 PUSH2 0x100 EXP DUP2 SLOAD DUP2 PUSH4 0xFFFFFFFF MUL NOT AND SWAP1 DUP4 PUSH4 0xFFFFFFFF AND MUL OR SWAP1 SSTORE POP POP PUSH1 0x0 PUSH2 0x15D7 PUSH1 0x40 MLOAD DUP1 PUSH1 0xA0 ADD PUSH1 0x40 MSTORE DUP1 DUP8 PUSH1 0x1 PUSH1 0x1 PUSH1 0x40 SHL SUB AND DUP2 MSTORE PUSH1 0x20 ADD PUSH2 0x15BD PUSH2 0x1668 JUMP JUMPDEST DUP2 MSTORE PUSH1 0x20 ADD DUP7 DUP2 MSTORE PUSH1 0x20 ADD DUP6 DUP2 MSTORE PUSH1 0x20 ADD DUP5 DUP2 MSTORE POP PUSH2 0x12EC JUMP JUMPDEST SWAP1 POP PUSH2 0x15F8 PUSH1 0x0 PUSH1 0x14 SWAP1 SLOAD SWAP1 PUSH2 0x100 EXP SWAP1 DIV PUSH4 0xFFFFFFFF AND DUP3 PUSH1 0x3 SLOAD PUSH2 0x166E JUMP JUMPDEST POP PUSH32 0xB501F7F4DB3D2848C767079F2BAFEFF8AED134F32427F32801E905487BA49716 DUP5 DUP4 DUP6 DUP9 PUSH1 0x0 PUSH1 0x14 SWAP1 SLOAD SWAP1 PUSH2 0x100 EXP SWAP1 DIV PUSH4 0xFFFFFFFF AND PUSH1 0x40 MLOAD PUSH2 0xC05 SWAP6 SWAP5 SWAP4 SWAP3 SWAP2 SWAP1 PUSH2 0x277E JUMP JUMPDEST PUSH1 0x60 PUSH1 0x13 DUP3 PUSH1 0x0 ADD MLOAD DUP4 PUSH1 0x20 ADD MLOAD DUP5 PUSH1 0x40 ADD MLOAD PUSH1 0x40 MLOAD PUSH1 0x20 ADD PUSH2 0x94E SWAP5 SWAP4 SWAP3 SWAP2 SWAP1 PUSH2 0x2419 JUMP JUMPDEST PUSH1 0x4 SLOAD SWAP1 JUMP JUMPDEST PUSH1 0x0 DUP1 PUSH1 0x1 PUSH1 0x0 SWAP1 SLOAD SWAP1 PUSH2 0x100 EXP SWAP1 DIV PUSH1 0x1 PUSH1 0x1 PUSH1 0xA0 SHL SUB AND PUSH1 0x1 PUSH1 0x1 PUSH1 0xA0 SHL SUB AND PUSH4 0x1A90A219 PUSH1 0x40 MLOAD DUP2 PUSH4 0xFFFFFFFF AND PUSH1 0xE0 SHL DUP2 MSTORE PUSH1 0x4 ADD PUSH1 0x20 PUSH1 0x40 MLOAD DUP1 DUP4 SUB DUP2 DUP7 DUP1 EXTCODESIZE ISZERO DUP1 ISZERO PUSH2 0x16BF JUMPI PUSH1 0x0 DUP1 REVERT JUMPDEST POP GAS STATICCALL ISZERO DUP1 ISZERO PUSH2 0x16D3 JUMPI RETURNDATASIZE PUSH1 0x0 DUP1 RETURNDATACOPY RETURNDATASIZE PUSH1 0x0 REVERT JUMPDEST POP POP POP POP PUSH1 0x40 MLOAD RETURNDATASIZE PUSH1 0x1F NOT PUSH1 0x1F DUP3 ADD AND DUP3 ADD DUP1 PUSH1 0x40 MSTORE POP DUP2 ADD SWAP1 PUSH2 0x16F7 SWAP2 SWAP1 PUSH2 0x2148 JUMP JUMPDEST SWAP1 POP CALLVALUE DUP2 LT PUSH2 0x1718 JUMPI PUSH1 0x40 MLOAD PUSH3 0x461BCD PUSH1 0xE5 SHL DUP2 MSTORE PUSH1 0x4 ADD PUSH2 0x74C SWAP1 PUSH2 0x29FC JUMP JUMPDEST PUSH1 0x0 PUSH2 0x1724 DUP3 CALLVALUE PUSH2 0x2C34 JUMP JUMPDEST SWAP1 POP DUP1 DUP5 GT ISZERO PUSH2 0x1746 JUMPI PUSH1 0x40 MLOAD PUSH3 0x461BCD PUSH1 0xE5 SHL DUP2 MSTORE PUSH1 0x4 ADD PUSH2 0x74C SWAP1 PUSH2 0x29B0 JUMP JUMPDEST PUSH1 0x0 PUSH2 0x1753 DUP6 PUSH1 0x12 PUSH2 0x1893 JUMP JUMPDEST SWAP1 POP PUSH1 0x0 PUSH2 0x1762 DUP3 PUSH1 0x12 PUSH2 0x18CB JUMP JUMPDEST PUSH2 0x176C SWAP1 DUP5 PUSH2 0x2C34 JUMP JUMPDEST SWAP1 POP DUP1 ISZERO PUSH2 0x17A3 JUMPI PUSH1 0x40 MLOAD CALLER SWAP1 DUP3 ISZERO PUSH2 0x8FC MUL SWAP1 DUP4 SWAP1 PUSH1 0x0 DUP2 DUP2 DUP2 DUP6 DUP9 DUP9 CALL SWAP4 POP POP POP POP ISZERO DUP1 ISZERO PUSH2 0x17A1 JUMPI RETURNDATASIZE PUSH1 0x0 DUP1 RETURNDATACOPY RETURNDATASIZE PUSH1 0x0 REVERT JUMPDEST POP JUMPDEST PUSH1 0x2 SLOAD PUSH1 0x1 PUSH1 0x1 PUSH1 0xA0 SHL SUB AND PUSH4 0xD0E30DB0 PUSH2 0x17BE DUP4 DUP7 PUSH2 0x2C34 JUMP JUMPDEST PUSH1 0x40 MLOAD DUP3 PUSH4 0xFFFFFFFF AND PUSH1 0xE0 SHL DUP2 MSTORE PUSH1 0x4 ADD PUSH1 0x0 PUSH1 0x40 MLOAD DUP1 DUP4 SUB DUP2 DUP6 DUP9 DUP1 EXTCODESIZE ISZERO DUP1 ISZERO PUSH2 0x17E9 JUMPI PUSH1 0x0 DUP1 REVERT JUMPDEST POP GAS CALL ISZERO DUP1 ISZERO PUSH2 0x17FD JUMPI RETURNDATASIZE PUSH1 0x0 DUP1 RETURNDATACOPY RETURNDATASIZE PUSH1 0x0 REVERT JUMPDEST POP POP PUSH1 0x1 DUP1 SLOAD PUSH1 0x40 MLOAD PUSH4 0x58CD21BF PUSH1 0xE1 SHL DUP2 MSTORE PUSH1 0x1 PUSH1 0x1 PUSH1 0xA0 SHL SUB SWAP1 SWAP2 AND SWAP5 POP PUSH4 0xB19A437E SWAP4 POP PUSH2 0x1835 SWAP3 POP DUP13 SWAP2 DUP13 SWAP2 PUSH1 0x4 ADD PUSH2 0x2A75 JUMP JUMPDEST PUSH1 0x20 PUSH1 0x40 MLOAD DUP1 DUP4 SUB DUP2 PUSH1 0x0 DUP8 DUP1 EXTCODESIZE ISZERO DUP1 ISZERO PUSH2 0x184F JUMPI PUSH1 0x0 DUP1 REVERT JUMPDEST POP GAS CALL ISZERO DUP1 ISZERO PUSH2 0x1863 JUMPI RETURNDATASIZE PUSH1 0x0 DUP1 RETURNDATACOPY RETURNDATASIZE PUSH1 0x0 REVERT JUMPDEST POP POP POP POP PUSH1 0x40 MLOAD RETURNDATASIZE PUSH1 0x1F NOT PUSH1 0x1F DUP3 ADD AND DUP3 ADD DUP1 PUSH1 0x40 MSTORE POP DUP2 ADD SWAP1 PUSH2 0x1887 SWAP2 SWAP1 PUSH2 0x2160 JUMP JUMPDEST SWAP9 SWAP8 POP POP POP POP POP POP POP POP JUMP JUMPDEST PUSH1 0x0 PUSH1 0x8 DUP3 PUSH1 0xFF AND GT ISZERO PUSH2 0x18C4 JUMPI PUSH2 0x18AC PUSH1 0x8 DUP4 PUSH2 0x2C4B JUMP JUMPDEST PUSH2 0x18B7 SWAP1 PUSH1 0xA PUSH2 0x2B44 JUMP JUMPDEST PUSH2 0x18C1 SWAP1 DUP5 PUSH2 0x2ADE JUMP JUMPDEST SWAP3 POP JUMPDEST POP SWAP1 SWAP2 SWAP1 POP JUMP JUMPDEST PUSH1 0x0 PUSH1 0x8 DUP3 PUSH1 0xFF AND GT ISZERO PUSH2 0x18C4 JUMPI PUSH2 0x18E4 PUSH1 0x8 DUP4 PUSH2 0x2C4B JUMP JUMPDEST PUSH2 0x18EF SWAP1 PUSH1 0xA PUSH2 0x2B44 JUMP JUMPDEST PUSH2 0x18C1 SWAP1 DUP5 PUSH2 0x2C15 JUMP JUMPDEST PUSH1 0x0 DUP3 PUSH1 0x1F DUP4 ADD SLT PUSH2 0x1909 JUMPI DUP1 DUP2 REVERT JUMPDEST DUP2 CALLDATALOAD PUSH1 0x1 PUSH1 0x1 PUSH1 0x40 SHL SUB DUP2 GT ISZERO PUSH2 0x1922 JUMPI PUSH2 0x1922 PUSH2 0x2CD8 JUMP JUMPDEST PUSH2 0x1935 PUSH1 0x1F DUP3 ADD PUSH1 0x1F NOT AND PUSH1 0x20 ADD PUSH2 0x2AB5 JUMP JUMPDEST DUP2 DUP2 MSTORE DUP5 PUSH1 0x20 DUP4 DUP7 ADD ADD GT ISZERO PUSH2 0x1949 JUMPI DUP3 DUP4 REVERT JUMPDEST DUP2 PUSH1 0x20 DUP6 ADD PUSH1 0x20 DUP4 ADD CALLDATACOPY SWAP1 DUP2 ADD PUSH1 0x20 ADD SWAP2 SWAP1 SWAP2 MSTORE SWAP3 SWAP2 POP POP JUMP JUMPDEST PUSH1 0x0 PUSH1 0xA0 DUP3 DUP5 SUB SLT ISZERO PUSH2 0x1974 JUMPI DUP1 DUP2 REVERT JUMPDEST PUSH2 0x197E PUSH1 0xA0 PUSH2 0x2AB5 JUMP JUMPDEST SWAP1 POP DUP2 CALLDATALOAD DUP2 MSTORE PUSH1 0x20 DUP3 ADD CALLDATALOAD PUSH1 0x1 PUSH1 0x1 PUSH1 0x40 SHL SUB DUP1 DUP3 GT ISZERO PUSH2 0x199E JUMPI PUSH1 0x0 DUP1 REVERT JUMPDEST PUSH2 0x19AA DUP6 DUP4 DUP7 ADD PUSH2 0x18F9 JUMP JUMPDEST PUSH1 0x20 DUP5 ADD MSTORE PUSH1 0x40 DUP5 ADD CALLDATALOAD SWAP2 POP DUP1 DUP3 GT ISZERO PUSH2 0x19C3 JUMPI PUSH1 0x0 DUP1 REVERT JUMPDEST PUSH2 0x19CF DUP6 DUP4 DUP7 ADD PUSH2 0x18F9 JUMP JUMPDEST PUSH1 0x40 DUP5 ADD MSTORE PUSH1 0x60 DUP5 ADD CALLDATALOAD SWAP2 POP DUP1 DUP3 GT ISZERO PUSH2 0x19E8 JUMPI PUSH1 0x0 DUP1 REVERT JUMPDEST PUSH2 0x19F4 DUP6 DUP4 DUP7 ADD PUSH2 0x18F9 JUMP JUMPDEST PUSH1 0x60 DUP5 ADD MSTORE PUSH1 0x80 DUP5 ADD CALLDATALOAD SWAP2 POP DUP1 DUP3 GT ISZERO PUSH2 0x1A0D JUMPI PUSH1 0x0 DUP1 REVERT JUMPDEST POP PUSH2 0x1A1A DUP5 DUP3 DUP6 ADD PUSH2 0x18F9 JUMP JUMPDEST PUSH1 0x80 DUP4 ADD MSTORE POP SWAP3 SWAP2 POP POP JUMP JUMPDEST PUSH1 0x0 PUSH1 0x80 DUP3 DUP5 SUB SLT ISZERO PUSH2 0x1A37 JUMPI DUP1 DUP2 REVERT JUMPDEST PUSH1 0x40 MLOAD PUSH1 0x80 DUP2 ADD PUSH1 0x1 PUSH1 0x1 PUSH1 0x40 SHL SUB DUP3 DUP3 LT DUP2 DUP4 GT OR ISZERO PUSH2 0x1A5A JUMPI PUSH2 0x1A5A PUSH2 0x2CD8 JUMP JUMPDEST DUP2 PUSH1 0x40 MSTORE DUP3 SWAP4 POP PUSH2 0x1A6A DUP6 PUSH2 0x1AE0 JUMP JUMPDEST DUP4 MSTORE PUSH1 0x20 DUP6 ADD CALLDATALOAD PUSH1 0x20 DUP5 ADD MSTORE PUSH1 0x40 DUP6 ADD CALLDATALOAD SWAP2 POP DUP1 DUP3 GT ISZERO PUSH2 0x1A8A JUMPI PUSH1 0x0 DUP1 REVERT JUMPDEST PUSH2 0x1A96 DUP7 DUP4 DUP8 ADD PUSH2 0x18F9 JUMP JUMPDEST PUSH1 0x40 DUP5 ADD MSTORE PUSH1 0x60 DUP6 ADD CALLDATALOAD SWAP2 POP DUP1 DUP3 GT ISZERO PUSH2 0x1AAF JUMPI PUSH1 0x0 DUP1 REVERT JUMPDEST POP PUSH2 0x1ABC DUP6 DUP3 DUP7 ADD PUSH2 0x18F9 JUMP JUMPDEST PUSH1 0x60 DUP4 ADD MSTORE POP POP SWAP3 SWAP2 POP POP JUMP JUMPDEST DUP1 CALLDATALOAD PUSH2 0xFFFF DUP2 AND DUP2 EQ PUSH2 0x1ADB JUMPI PUSH1 0x0 DUP1 REVERT JUMPDEST SWAP2 SWAP1 POP JUMP JUMPDEST DUP1 CALLDATALOAD PUSH2 0x1ADB DUP2 PUSH2 0x2CEE JUMP JUMPDEST PUSH1 0x0 PUSH1 0x20 DUP3 DUP5 SUB SLT ISZERO PUSH2 0x1AFC JUMPI DUP1 DUP2 REVERT JUMPDEST DUP2 CALLDATALOAD PUSH1 0x1 PUSH1 0x1 PUSH1 0xA0 SHL SUB DUP2 AND DUP2 EQ PUSH2 0x1B12 JUMPI DUP2 DUP3 REVERT JUMPDEST SWAP4 SWAP3 POP POP POP JUMP JUMPDEST PUSH1 0x0 PUSH1 0x20 DUP3 DUP5 SUB SLT ISZERO PUSH2 0x1B2A JUMPI DUP1 DUP2 REVERT JUMPDEST DUP2 CALLDATALOAD PUSH1 0x1 PUSH1 0x1 PUSH1 0x40 SHL SUB DUP2 GT ISZERO PUSH2 0x1B3F JUMPI DUP2 DUP3 REVERT JUMPDEST PUSH2 0x1B4B DUP5 DUP3 DUP6 ADD PUSH2 0x18F9 JUMP JUMPDEST SWAP5 SWAP4 POP POP POP POP JUMP JUMPDEST PUSH1 0x0 DUP1 PUSH1 0x40 DUP4 DUP6 SUB SLT ISZERO PUSH2 0x1B65 JUMPI DUP1 DUP2 REVERT JUMPDEST DUP3 CALLDATALOAD PUSH1 0x1 PUSH1 0x1 PUSH1 0x40 SHL SUB DUP1 DUP3 GT ISZERO PUSH2 0x1B7B JUMPI DUP3 DUP4 REVERT JUMPDEST PUSH2 0x1B87 DUP7 DUP4 DUP8 ADD PUSH2 0x18F9 JUMP JUMPDEST SWAP4 POP PUSH1 0x20 DUP6 ADD CALLDATALOAD SWAP2 POP DUP1 DUP3 GT ISZERO PUSH2 0x1B9C JUMPI DUP3 DUP4 REVERT JUMPDEST POP PUSH2 0x1BA9 DUP6 DUP3 DUP7 ADD PUSH2 0x18F9 JUMP JUMPDEST SWAP2 POP POP SWAP3 POP SWAP3 SWAP1 POP JUMP JUMPDEST PUSH1 0x0 DUP1 PUSH1 0x0 DUP1 PUSH1 0x80 DUP6 DUP8 SUB SLT ISZERO PUSH2 0x1BC8 JUMPI DUP2 DUP3 REVERT JUMPDEST DUP5 CALLDATALOAD PUSH1 0x1 PUSH1 0x1 PUSH1 0x40 SHL SUB DUP1 DUP3 GT ISZERO PUSH2 0x1BDE JUMPI DUP4 DUP5 REVERT JUMPDEST PUSH2 0x1BEA DUP9 DUP4 DUP10 ADD PUSH2 0x18F9 JUMP JUMPDEST SWAP6 POP PUSH1 0x20 DUP8 ADD CALLDATALOAD SWAP2 POP DUP1 DUP3 GT ISZERO PUSH2 0x1BFF JUMPI DUP4 DUP5 REVERT JUMPDEST PUSH2 0x1C0B DUP9 DUP4 DUP10 ADD PUSH2 0x18F9 JUMP JUMPDEST SWAP5 POP PUSH1 0x40 DUP8 ADD CALLDATALOAD SWAP2 POP DUP1 DUP3 GT ISZERO PUSH2 0x1C20 JUMPI DUP4 DUP5 REVERT JUMPDEST PUSH2 0x1C2C DUP9 DUP4 DUP10 ADD PUSH2 0x18F9 JUMP JUMPDEST SWAP4 POP PUSH1 0x60 DUP8 ADD CALLDATALOAD SWAP2 POP DUP1 DUP3 GT ISZERO PUSH2 0x1C41 JUMPI DUP3 DUP4 REVERT JUMPDEST POP PUSH2 0x1C4E DUP8 DUP3 DUP9 ADD PUSH2 0x18F9 JUMP JUMPDEST SWAP2 POP POP SWAP3 SWAP6 SWAP2 SWAP5 POP SWAP3 POP JUMP JUMPDEST PUSH1 0x0 PUSH1 0x20 DUP3 DUP5 SUB SLT ISZERO PUSH2 0x1C6B JUMPI DUP1 DUP2 REVERT JUMPDEST DUP2 CALLDATALOAD PUSH1 0x1 PUSH1 0x1 PUSH1 0x40 SHL SUB DUP2 GT ISZERO PUSH2 0x1C80 JUMPI DUP2 DUP3 REVERT JUMPDEST PUSH2 0x1B4B DUP5 DUP3 DUP6 ADD PUSH2 0x1963 JUMP JUMPDEST PUSH1 0x0 PUSH1 0x20 DUP3 DUP5 SUB SLT ISZERO PUSH2 0x1C9D JUMPI DUP1 DUP2 REVERT JUMPDEST DUP2 CALLDATALOAD PUSH1 0x1 PUSH1 0x1 PUSH1 0x40 SHL SUB DUP1 DUP3 GT ISZERO PUSH2 0x1CB3 JUMPI DUP3 DUP4 REVERT JUMPDEST SWAP1 DUP4 ADD SWAP1 PUSH1 0x40 DUP3 DUP7 SUB SLT ISZERO PUSH2 0x1CC6 JUMPI DUP3 DUP4 REVERT JUMPDEST PUSH1 0x40 MLOAD PUSH1 0x40 DUP2 ADD DUP2 DUP2 LT DUP4 DUP3 GT OR ISZERO PUSH2 0x1CE1 JUMPI PUSH2 0x1CE1 PUSH2 0x2CD8 JUMP JUMPDEST PUSH1 0x40 MSTORE DUP3 CALLDATALOAD DUP3 DUP2 GT ISZERO PUSH2 0x1CF2 JUMPI DUP5 DUP6 REVERT JUMPDEST PUSH2 0x1CFE DUP8 DUP3 DUP7 ADD PUSH2 0x18F9 JUMP JUMPDEST DUP3 MSTORE POP PUSH1 0x20 DUP4 ADD CALLDATALOAD PUSH1 0x20 DUP3 ADD MSTORE DUP1 SWAP4 POP POP POP POP SWAP3 SWAP2 POP POP JUMP JUMPDEST PUSH1 0x0 PUSH1 0x20 DUP3 DUP5 SUB SLT ISZERO PUSH2 0x1D28 JUMPI DUP1 DUP2 REVERT JUMPDEST DUP2 CALLDATALOAD PUSH1 0x1 PUSH1 0x1 PUSH1 0x40 SHL SUB DUP1 DUP3 GT ISZERO PUSH2 0x1D3E JUMPI DUP3 DUP4 REVERT JUMPDEST SWAP1 DUP4 ADD SWAP1 PUSH1 0x60 DUP3 DUP7 SUB SLT ISZERO PUSH2 0x1D51 JUMPI DUP3 DUP4 REVERT JUMPDEST PUSH1 0x40 MLOAD PUSH1 0x60 DUP2 ADD DUP2 DUP2 LT DUP4 DUP3 GT OR ISZERO PUSH2 0x1D6C JUMPI PUSH2 0x1D6C PUSH2 0x2CD8 JUMP JUMPDEST PUSH1 0x40 MSTORE DUP3 CALLDATALOAD DUP3 DUP2 GT ISZERO PUSH2 0x1D7D JUMPI DUP5 DUP6 REVERT JUMPDEST PUSH2 0x1D89 DUP8 DUP3 DUP7 ADD PUSH2 0x18F9 JUMP JUMPDEST DUP3 MSTORE POP PUSH1 0x20 DUP4 ADD CALLDATALOAD DUP3 DUP2 GT ISZERO PUSH2 0x1D9D JUMPI DUP5 DUP6 REVERT JUMPDEST PUSH2 0x1DA9 DUP8 DUP3 DUP7 ADD PUSH2 0x18F9 JUMP JUMPDEST PUSH1 0x20 DUP4 ADD MSTORE POP PUSH1 0x40 DUP4 ADD CALLDATALOAD PUSH1 0x40 DUP3 ADD MSTORE DUP1 SWAP4 POP POP POP POP SWAP3 SWAP2 POP POP JUMP JUMPDEST PUSH1 0x0 PUSH1 0x20 DUP3 DUP5 SUB SLT ISZERO PUSH2 0x1DD6 JUMPI DUP1 DUP2 REVERT JUMPDEST DUP2 CALLDATALOAD PUSH1 0x1 PUSH1 0x1 PUSH1 0x40 SHL SUB DUP2 GT ISZERO PUSH2 0x1DEB JUMPI DUP2 DUP3 REVERT JUMPDEST PUSH2 0x1B4B DUP5 DUP3 DUP6 ADD PUSH2 0x1A26 JUMP JUMPDEST PUSH1 0x0 PUSH1 0x20 DUP3 DUP5 SUB SLT ISZERO PUSH2 0x1E08 JUMPI DUP1 DUP2 REVERT JUMPDEST DUP2 CALLDATALOAD PUSH1 0x1 PUSH1 0x1 PUSH1 0x40 SHL SUB DUP1 DUP3 GT ISZERO PUSH2 0x1E1E JUMPI DUP3 DUP4 REVERT JUMPDEST DUP2 DUP5 ADD SWAP2 POP PUSH2 0x120 DUP1 DUP4 DUP8 SUB SLT ISZERO PUSH2 0x1E34 JUMPI DUP4 DUP5 REVERT JUMPDEST PUSH2 0x1E3D DUP2 PUSH2 0x2AB5 JUMP JUMPDEST SWAP1 POP PUSH2 0x1E48 DUP4 PUSH2 0x1AE0 JUMP JUMPDEST DUP2 MSTORE PUSH2 0x1E56 PUSH1 0x20 DUP5 ADD PUSH2 0x1AE0 JUMP JUMPDEST PUSH1 0x20 DUP3 ADD MSTORE PUSH2 0x1E67 PUSH1 0x40 DUP5 ADD PUSH2 0x1AE0 JUMP JUMPDEST PUSH1 0x40 DUP3 ADD MSTORE PUSH1 0x60 DUP4 ADD CALLDATALOAD PUSH1 0x60 DUP3 ADD MSTORE PUSH1 0x80 DUP4 ADD CALLDATALOAD DUP3 DUP2 GT ISZERO PUSH2 0x1E87 JUMPI DUP5 DUP6 REVERT JUMPDEST PUSH2 0x1E93 DUP8 DUP3 DUP7 ADD PUSH2 0x18F9 JUMP JUMPDEST PUSH1 0x80 DUP4 ADD MSTORE POP PUSH1 0xA0 DUP4 ADD CALLDATALOAD DUP3 DUP2 GT ISZERO PUSH2 0x1EAA JUMPI DUP5 DUP6 REVERT JUMPDEST PUSH2 0x1EB6 DUP8 DUP3 DUP7 ADD PUSH2 0x18F9 JUMP JUMPDEST PUSH1 0xA0 DUP4 ADD MSTORE POP PUSH2 0x1EC8 PUSH1 0xC0 DUP5 ADD PUSH2 0x1AE0 JUMP JUMPDEST PUSH1 0xC0 DUP3 ADD MSTORE PUSH2 0x1ED9 PUSH1 0xE0 DUP5 ADD PUSH2 0x1AE0 JUMP JUMPDEST PUSH1 0xE0 DUP3 ADD MSTORE PUSH2 0x100 DUP1 DUP5 ADD CALLDATALOAD DUP4 DUP2 GT ISZERO PUSH2 0x1EF1 JUMPI DUP6 DUP7 REVERT JUMPDEST PUSH2 0x1EFD DUP9 DUP3 DUP8 ADD PUSH2 0x18F9 JUMP JUMPDEST SWAP2 DUP4 ADD SWAP2 SWAP1 SWAP2 MSTORE POP SWAP6 SWAP5 POP POP POP POP POP JUMP JUMPDEST PUSH1 0x0 PUSH1 0x20 DUP3 DUP5 SUB SLT ISZERO PUSH2 0x1F1F JUMPI DUP1 DUP2 REVERT JUMPDEST DUP2 CALLDATALOAD PUSH1 0x1 PUSH1 0x1 PUSH1 0x40 SHL SUB DUP1 DUP3 GT ISZERO PUSH2 0x1F35 JUMPI DUP3 DUP4 REVERT JUMPDEST SWAP1 DUP4 ADD SWAP1 PUSH1 0xA0 DUP3 DUP7 SUB SLT ISZERO PUSH2 0x1F48 JUMPI DUP3 DUP4 REVERT JUMPDEST PUSH2 0x1F52 PUSH1 0xA0 PUSH2 0x2AB5 JUMP JUMPDEST PUSH2 0x1F5B DUP4 PUSH2 0x1AE0 JUMP JUMPDEST DUP2 MSTORE PUSH1 0x20 DUP4 ADD CALLDATALOAD PUSH1 0x20 DUP3 ADD MSTORE PUSH1 0x40 DUP4 ADD CALLDATALOAD DUP3 DUP2 GT ISZERO PUSH2 0x1F78 JUMPI DUP5 DUP6 REVERT JUMPDEST PUSH2 0x1F84 DUP8 DUP3 DUP7 ADD PUSH2 0x18F9 JUMP JUMPDEST PUSH1 0x40 DUP4 ADD MSTORE POP PUSH1 0x60 DUP4 ADD CALLDATALOAD DUP3 DUP2 GT ISZERO PUSH2 0x1F9B JUMPI DUP5 DUP6 REVERT JUMPDEST PUSH2 0x1FA7 DUP8 DUP3 DUP7 ADD PUSH2 0x18F9 JUMP JUMPDEST PUSH1 0x60 DUP4 ADD MSTORE POP PUSH1 0x80 DUP4 ADD CALLDATALOAD DUP3 DUP2 GT ISZERO PUSH2 0x1FBE JUMPI DUP5 DUP6 REVERT JUMPDEST PUSH2 0x1FCA DUP8 DUP3 DUP7 ADD PUSH2 0x18F9 JUMP JUMPDEST PUSH1 0x80 DUP4 ADD MSTORE POP SWAP6 SWAP5 POP POP POP POP POP JUMP JUMPDEST PUSH1 0x0 PUSH1 0x20 DUP3 DUP5 SUB SLT ISZERO PUSH2 0x1FEA JUMPI DUP1 DUP2 REVERT JUMPDEST DUP2 CALLDATALOAD PUSH1 0x1 PUSH1 0x1 PUSH1 0x40 SHL SUB DUP1 DUP3 GT ISZERO PUSH2 0x2000 JUMPI DUP3 DUP4 REVERT JUMPDEST DUP2 DUP5 ADD SWAP2 POP PUSH2 0x100 DUP1 DUP4 DUP8 SUB SLT ISZERO PUSH2 0x2016 JUMPI DUP4 DUP5 REVERT JUMPDEST PUSH2 0x201F DUP2 PUSH2 0x2AB5 JUMP JUMPDEST SWAP1 POP PUSH2 0x202A DUP4 PUSH2 0x1AE0 JUMP JUMPDEST DUP2 MSTORE PUSH2 0x2038 PUSH1 0x20 DUP5 ADD PUSH2 0x1AE0 JUMP JUMPDEST PUSH1 0x20 DUP3 ADD MSTORE PUSH2 0x2049 PUSH1 0x40 DUP5 ADD PUSH2 0x1AE0 JUMP JUMPDEST PUSH1 0x40 DUP3 ADD MSTORE PUSH1 0x60 DUP4 ADD CALLDATALOAD PUSH1 0x60 DUP3 ADD MSTORE PUSH1 0x80 DUP4 ADD CALLDATALOAD DUP3 DUP2 GT ISZERO PUSH2 0x2069 JUMPI DUP5 DUP6 REVERT JUMPDEST PUSH2 0x2075 DUP8 DUP3 DUP7 ADD PUSH2 0x18F9 JUMP JUMPDEST PUSH1 0x80 DUP4 ADD MSTORE POP PUSH1 0xA0 DUP4 ADD CALLDATALOAD DUP3 DUP2 GT ISZERO PUSH2 0x208C JUMPI DUP5 DUP6 REVERT JUMPDEST PUSH2 0x2098 DUP8 DUP3 DUP7 ADD PUSH2 0x18F9 JUMP JUMPDEST PUSH1 0xA0 DUP4 ADD MSTORE POP PUSH1 0xC0 DUP4 ADD CALLDATALOAD DUP3 DUP2 GT ISZERO PUSH2 0x20AF JUMPI DUP5 DUP6 REVERT JUMPDEST PUSH2 0x20BB DUP8 DUP3 DUP7 ADD PUSH2 0x18F9 JUMP JUMPDEST PUSH1 0xC0 DUP4 ADD MSTORE POP PUSH1 0xE0 DUP4 ADD CALLDATALOAD DUP3 DUP2 GT ISZERO PUSH2 0x20D2 JUMPI DUP5 DUP6 REVERT JUMPDEST PUSH2 0x20DE DUP8 DUP3 DUP7 ADD PUSH2 0x18F9 JUMP JUMPDEST PUSH1 0xE0 DUP4 ADD MSTORE POP SWAP6 SWAP5 POP POP POP POP POP JUMP JUMPDEST PUSH1 0x0 PUSH1 0x20 DUP3 DUP5 SUB SLT ISZERO PUSH2 0x20FE JUMPI DUP1 DUP2 REVERT JUMPDEST PUSH2 0x1B12 DUP3 PUSH2 0x1AC9 JUMP JUMPDEST PUSH1 0x0 DUP1 PUSH1 0x40 DUP4 DUP6 SUB SLT ISZERO PUSH2 0x2119 JUMPI DUP2 DUP3 REVERT JUMPDEST PUSH2 0x2122 DUP4 PUSH2 0x1AC9 JUMP JUMPDEST SWAP5 PUSH1 0x20 SWAP4 SWAP1 SWAP4 ADD CALLDATALOAD SWAP4 POP POP POP JUMP JUMPDEST PUSH1 0x0 PUSH1 0x20 DUP3 DUP5 SUB SLT ISZERO PUSH2 0x2141 JUMPI DUP1 DUP2 REVERT JUMPDEST POP CALLDATALOAD SWAP2 SWAP1 POP JUMP JUMPDEST PUSH1 0x0 PUSH1 0x20 DUP3 DUP5 SUB SLT ISZERO PUSH2 0x2159 JUMPI DUP1 DUP2 REVERT JUMPDEST POP MLOAD SWAP2 SWAP1 POP JUMP JUMPDEST PUSH1 0x0 PUSH1 0x20 DUP3 DUP5 SUB SLT ISZERO PUSH2 0x2171 JUMPI DUP1 DUP2 REVERT JUMPDEST DUP2 MLOAD PUSH2 0x1B12 DUP2 PUSH2 0x2CEE JUMP JUMPDEST PUSH1 0x0 DUP1 PUSH1 0x0 PUSH1 0x60 DUP5 DUP7 SUB SLT ISZERO PUSH2 0x2190 JUMPI DUP1 DUP2 REVERT JUMPDEST DUP4 CALLDATALOAD PUSH2 0x219B DUP2 PUSH2 0x2CEE JUMP JUMPDEST SWAP3 POP PUSH1 0x20 DUP5 ADD CALLDATALOAD PUSH1 0x1 PUSH1 0x1 PUSH1 0x40 SHL SUB DUP1 DUP3 GT ISZERO PUSH2 0x21B6 JUMPI DUP3 DUP4 REVERT JUMPDEST PUSH2 0x21C2 DUP8 DUP4 DUP9 ADD PUSH2 0x18F9 JUMP JUMPDEST SWAP4 POP PUSH1 0x40 DUP7 ADD CALLDATALOAD SWAP2 POP DUP1 DUP3 GT ISZERO PUSH2 0x21D7 JUMPI DUP3 DUP4 REVERT JUMPDEST POP PUSH2 0x21E4 DUP7 DUP3 DUP8 ADD PUSH2 0x18F9 JUMP JUMPDEST SWAP2 POP POP SWAP3 POP SWAP3 POP SWAP3 JUMP JUMPDEST PUSH1 0x0 DUP1 PUSH1 0x0 DUP1 PUSH1 0x80 DUP6 DUP8 SUB SLT ISZERO PUSH2 0x2203 JUMPI DUP2 DUP3 REVERT JUMPDEST DUP5 CALLDATALOAD PUSH2 0x220E DUP2 PUSH2 0x2CEE JUMP JUMPDEST SWAP4 POP PUSH1 0x20 DUP6 ADD CALLDATALOAD PUSH1 0x1 PUSH1 0x1 PUSH1 0x40 SHL SUB DUP1 DUP3 GT ISZERO PUSH2 0x1BFF JUMPI DUP4 DUP5 REVERT JUMPDEST PUSH1 0x0 DUP1 PUSH1 0x0 DUP1 PUSH1 0x0 DUP1 PUSH1 0x0 PUSH1 0xE0 DUP9 DUP11 SUB SLT ISZERO PUSH2 0x2243 JUMPI DUP5 DUP6 REVERT JUMPDEST PUSH2 0x224C DUP9 PUSH2 0x1AE0 JUMP JUMPDEST SWAP7 POP PUSH2 0x225A PUSH1 0x20 DUP10 ADD PUSH2 0x1AE0 JUMP JUMPDEST SWAP6 POP PUSH2 0x2268 PUSH1 0x40 DUP10 ADD PUSH2 0x1AE0 JUMP JUMPDEST SWAP5 POP PUSH1 0x60 DUP9 ADD CALLDATALOAD PUSH1 0x1 PUSH1 0x1 PUSH1 0x40 SHL SUB DUP1 DUP3 GT ISZERO PUSH2 0x2283 JUMPI DUP5 DUP6 REVERT JUMPDEST PUSH2 0x228F DUP12 DUP4 DUP13 ADD PUSH2 0x18F9 JUMP JUMPDEST SWAP6 POP PUSH1 0x80 DUP11 ADD CALLDATALOAD SWAP2 POP DUP1 DUP3 GT ISZERO PUSH2 0x22A4 JUMPI DUP5 DUP6 REVERT JUMPDEST PUSH2 0x22B0 DUP12 DUP4 DUP13 ADD PUSH2 0x18F9 JUMP JUMPDEST SWAP5 POP PUSH1 0xA0 DUP11 ADD CALLDATALOAD SWAP2 POP DUP1 DUP3 GT ISZERO PUSH2 0x22C5 JUMPI DUP4 DUP5 REVERT JUMPDEST PUSH2 0x22D1 DUP12 DUP4 DUP13 ADD PUSH2 0x18F9 JUMP JUMPDEST SWAP4 POP PUSH1 0xC0 DUP11 ADD CALLDATALOAD SWAP2 POP DUP1 DUP3 GT ISZERO PUSH2 0x22E6 JUMPI DUP3 DUP4 REVERT JUMPDEST POP PUSH2 0x22F3 DUP11 DUP3 DUP12 ADD PUSH2 0x18F9 JUMP JUMPDEST SWAP2 POP POP SWAP3 SWAP6 SWAP9 SWAP2 SWAP5 SWAP8 POP SWAP3 SWAP6 POP JUMP JUMPDEST PUSH1 0x0 DUP1 PUSH1 0x0 DUP1 PUSH1 0x0 DUP1 PUSH1 0x0 DUP1 PUSH2 0x100 DUP10 DUP12 SUB SLT ISZERO PUSH2 0x231E JUMPI DUP2 DUP3 REVERT JUMPDEST PUSH2 0x2327 DUP10 PUSH2 0x1AE0 JUMP JUMPDEST SWAP8 POP PUSH2 0x2335 PUSH1 0x20 DUP11 ADD PUSH2 0x1AE0 JUMP JUMPDEST SWAP7 POP PUSH2 0x2343 PUSH1 0x40 DUP11 ADD PUSH2 0x1AE0 JUMP JUMPDEST SWAP6 POP PUSH1 0x60 DUP10 ADD CALLDATALOAD PUSH1 0x1 PUSH1 0x1 PUSH1 0x40 SHL SUB DUP1 DUP3 GT ISZERO PUSH2 0x235E JUMPI DUP4 DUP5 REVERT JUMPDEST PUSH2 0x236A DUP13 DUP4 DUP14 ADD PUSH2 0x18F9 JUMP JUMPDEST SWAP7 POP PUSH1 0x80 DUP12 ADD CALLDATALOAD SWAP2 POP DUP1 DUP3 GT ISZERO PUSH2 0x237F JUMPI DUP4 DUP5 REVERT JUMPDEST PUSH2 0x238B DUP13 DUP4 DUP14 ADD PUSH2 0x18F9 JUMP JUMPDEST SWAP6 POP PUSH2 0x2399 PUSH1 0xA0 DUP13 ADD PUSH2 0x1AE0 JUMP JUMPDEST SWAP5 POP PUSH2 0x23A7 PUSH1 0xC0 DUP13 ADD PUSH2 0x1AE0 JUMP JUMPDEST SWAP4 POP PUSH1 0xE0 DUP12 ADD CALLDATALOAD SWAP2 POP DUP1 DUP3 GT ISZERO PUSH2 0x23BC JUMPI DUP3 DUP4 REVERT JUMPDEST POP PUSH2 0x23C9 DUP12 DUP3 DUP13 ADD PUSH2 0x18F9 JUMP JUMPDEST SWAP2 POP POP SWAP3 SWAP6 SWAP9 POP SWAP3 SWAP6 SWAP9 SWAP1 SWAP4 SWAP7 POP JUMP JUMPDEST PUSH1 0x0 DUP2 MLOAD DUP1 DUP5 MSTORE PUSH2 0x23F1 DUP2 PUSH1 0x20 DUP7 ADD PUSH1 0x20 DUP7 ADD PUSH2 0x2C6E JUMP JUMPDEST PUSH1 0x1F ADD PUSH1 0x1F NOT AND SWAP3 SWAP1 SWAP3 ADD PUSH1 0x20 ADD SWAP3 SWAP2 POP POP JUMP JUMPDEST PUSH1 0xC0 SHL PUSH1 0x1 PUSH1 0x1 PUSH1 0xC0 SHL SUB NOT AND SWAP1 MSTORE JUMP JUMPDEST SWAP1 JUMP JUMPDEST PUSH1 0x0 PUSH1 0xFF PUSH1 0xF8 SHL DUP7 PUSH1 0xF8 SHL AND DUP3 MSTORE DUP5 MLOAD PUSH2 0x243A DUP2 PUSH1 0x1 DUP6 ADD PUSH1 0x20 DUP10 ADD PUSH2 0x2C6E JUMP JUMPDEST DUP5 MLOAD SWAP1 DUP4 ADD SWAP1 PUSH2 0x2451 DUP2 PUSH1 0x1 DUP5 ADD PUSH1 0x20 DUP10 ADD PUSH2 0x2C6E JUMP JUMPDEST ADD PUSH1 0x1 DUP2 ADD SWAP4 SWAP1 SWAP4 MSTORE POP POP PUSH1 0x21 ADD SWAP4 SWAP3 POP POP POP JUMP JUMPDEST PUSH1 0x0 PUSH1 0xFF PUSH1 0xF8 SHL DUP6 PUSH1 0xF8 SHL AND DUP3 MSTORE DUP4 MLOAD PUSH2 0x2487 DUP2 PUSH1 0x1 DUP6 ADD PUSH1 0x20 DUP9 ADD PUSH2 0x2C6E JUMP JUMPDEST PUSH1 0x1 SWAP3 ADD SWAP2 DUP3 ADD SWAP3 SWAP1 SWAP3 MSTORE PUSH1 0x21 ADD SWAP4 SWAP3 POP POP POP JUMP JUMPDEST PUSH1 0x0 PUSH1 0xFF PUSH1 0xF8 SHL DUP9 PUSH1 0xF8 SHL AND DUP3 MSTORE DUP7 PUSH1 0x1 DUP4 ADD MSTORE DUP6 MLOAD PUSH2 0x24C3 DUP2 PUSH1 0x21 DUP6 ADD PUSH1 0x20 DUP11 ADD PUSH2 0x2C6E JUMP JUMPDEST DUP6 MLOAD SWAP1 DUP4 ADD SWAP1 PUSH2 0x24DA DUP2 PUSH1 0x21 DUP5 ADD PUSH1 0x20 DUP11 ADD PUSH2 0x2C6E JUMP JUMPDEST DUP6 MLOAD SWAP2 ADD SWAP1 PUSH2 0x24F0 DUP2 PUSH1 0x21 DUP5 ADD PUSH1 0x20 DUP10 ADD PUSH2 0x2C6E JUMP JUMPDEST DUP5 MLOAD SWAP2 ADD SWAP1 PUSH2 0x2506 DUP2 PUSH1 0x21 DUP5 ADD PUSH1 0x20 DUP9 ADD PUSH2 0x2C6E JUMP JUMPDEST ADD PUSH1 0x21 ADD SWAP9 SWAP8 POP POP POP POP POP POP POP POP JUMP JUMPDEST PUSH1 0x0 PUSH1 0xFF PUSH1 0xF8 SHL DUP8 PUSH1 0xF8 SHL AND DUP3 MSTORE PUSH1 0x1 PUSH1 0x1 PUSH1 0x40 SHL SUB PUSH1 0xC0 SHL DUP7 PUSH1 0xC0 SHL AND PUSH1 0x1 DUP4 ADD MSTORE DUP5 PUSH1 0x9 DUP4 ADD MSTORE DUP4 MLOAD PUSH2 0x2552 DUP2 PUSH1 0x29 DUP6 ADD PUSH1 0x20 DUP9 ADD PUSH2 0x2C6E JUMP JUMPDEST DUP4 MLOAD SWAP1 DUP4 ADD SWAP1 PUSH2 0x2569 DUP2 PUSH1 0x29 DUP5 ADD PUSH1 0x20 DUP9 ADD PUSH2 0x2C6E JUMP JUMPDEST ADD PUSH1 0x29 ADD SWAP8 SWAP7 POP POP POP POP POP POP POP JUMP JUMPDEST PUSH1 0x0 PUSH1 0xFF PUSH1 0xF8 SHL DUP9 PUSH1 0xF8 SHL AND DUP3 MSTORE PUSH1 0x1 PUSH1 0x1 PUSH1 0x40 SHL SUB PUSH1 0xC0 SHL DUP8 PUSH1 0xC0 SHL AND PUSH1 0x1 DUP4 ADD MSTORE DUP6 PUSH1 0x9 DUP4 ADD MSTORE DUP5 MLOAD PUSH2 0x25B4 DUP2 PUSH1 0x29 DUP6 ADD PUSH1 0x20 DUP10 ADD PUSH2 0x2C6E JUMP JUMPDEST DUP5 MLOAD SWAP1 DUP4 ADD SWAP1 PUSH2 0x25CB DUP2 PUSH1 0x29 DUP5 ADD PUSH1 0x20 DUP10 ADD PUSH2 0x2C6E JUMP JUMPDEST DUP5 MLOAD SWAP2 ADD SWAP1 PUSH2 0x25E1 DUP2 PUSH1 0x29 DUP5 ADD PUSH1 0x20 DUP9 ADD PUSH2 0x2C6E JUMP JUMPDEST ADD PUSH1 0x29 ADD SWAP9 SWAP8 POP POP POP POP POP POP POP POP JUMP JUMPDEST PUSH1 0x1 PUSH1 0x1 PUSH1 0xF8 SHL SUB NOT PUSH1 0xF8 DUP12 SWAP1 SHL AND DUP2 MSTORE PUSH1 0x1 PUSH1 0x1 PUSH1 0xC0 SHL SUB NOT PUSH1 0xC0 DUP11 DUP2 SHL DUP3 AND PUSH1 0x1 DUP5 ADD MSTORE DUP10 SWAP1 SHL AND PUSH1 0x9 DUP3 ADD MSTORE PUSH1 0x0 PUSH2 0x262F PUSH1 0x11 DUP4 ADD DUP10 PUSH2 0x2405 JUMP JUMPDEST DUP7 PUSH1 0x19 DUP4 ADD MSTORE DUP6 MLOAD PUSH2 0x2648 DUP2 PUSH1 0x39 DUP6 ADD PUSH1 0x20 DUP11 ADD PUSH2 0x2C6E JUMP JUMPDEST DUP6 MLOAD SWAP1 DUP4 ADD SWAP1 PUSH2 0x265F DUP2 PUSH1 0x39 DUP5 ADD PUSH1 0x20 DUP11 ADD PUSH2 0x2C6E JUMP JUMPDEST DUP6 MLOAD SWAP2 ADD SWAP1 PUSH2 0x2675 DUP2 PUSH1 0x39 DUP5 ADD PUSH1 0x20 DUP10 ADD PUSH2 0x2C6E JUMP JUMPDEST DUP5 MLOAD SWAP2 ADD SWAP1 PUSH2 0x268B DUP2 PUSH1 0x39 DUP5 ADD PUSH1 0x20 DUP9 ADD PUSH2 0x2C6E JUMP JUMPDEST ADD PUSH1 0x39 ADD SWAP12 SWAP11 POP POP POP POP POP POP POP POP POP POP POP JUMP JUMPDEST PUSH1 0x1 PUSH1 0x1 PUSH1 0xF8 SHL SUB NOT PUSH1 0xF8 DUP13 SWAP1 SHL AND DUP2 MSTORE PUSH1 0x1 PUSH1 0x1 PUSH1 0xC0 SHL SUB NOT PUSH1 0xC0 DUP12 DUP2 SHL DUP3 AND PUSH1 0x1 DUP5 ADD MSTORE DUP11 SWAP1 SHL AND PUSH1 0x9 DUP3 ADD MSTORE PUSH1 0x0 PUSH2 0x26DC PUSH1 0x11 DUP4 ADD DUP11 PUSH2 0x2405 JUMP JUMPDEST DUP8 PUSH1 0x19 DUP4 ADD MSTORE DUP7 MLOAD PUSH2 0x26F5 DUP2 PUSH1 0x39 DUP6 ADD PUSH1 0x20 DUP12 ADD PUSH2 0x2C6E JUMP JUMPDEST DUP7 MLOAD SWAP1 DUP4 ADD SWAP1 PUSH2 0x270C DUP2 PUSH1 0x39 DUP5 ADD PUSH1 0x20 DUP12 ADD PUSH2 0x2C6E JUMP JUMPDEST ADD PUSH2 0x271A PUSH1 0x39 DUP3 ADD DUP8 PUSH2 0x2405 JUMP JUMPDEST PUSH2 0x2727 PUSH1 0x41 DUP3 ADD DUP7 PUSH2 0x2405 JUMP JUMPDEST DUP4 MLOAD PUSH2 0x273A DUP2 PUSH1 0x49 DUP5 ADD PUSH1 0x20 DUP9 ADD PUSH2 0x2C6E JUMP JUMPDEST ADD PUSH1 0x49 ADD SWAP13 SWAP12 POP POP POP POP POP POP POP POP POP POP POP POP JUMP JUMPDEST PUSH1 0x1 PUSH1 0x1 PUSH1 0xA0 SHL SUB SWAP2 SWAP1 SWAP2 AND DUP2 MSTORE PUSH1 0x20 ADD SWAP1 JUMP JUMPDEST SWAP1 DUP2 MSTORE PUSH1 0x20 ADD SWAP1 JUMP JUMPDEST PUSH1 0x0 PUSH1 0x20 DUP3 MSTORE PUSH2 0x1B12 PUSH1 0x20 DUP4 ADD DUP5 PUSH2 0x23D9 JUMP JUMPDEST PUSH1 0x0 PUSH1 0xA0 DUP3 MSTORE PUSH2 0x2791 PUSH1 0xA0 DUP4 ADD DUP9 PUSH2 0x23D9 JUMP JUMPDEST DUP3 DUP2 SUB PUSH1 0x20 DUP5 ADD MSTORE PUSH2 0x27A3 DUP2 DUP9 PUSH2 0x23D9 JUMP JUMPDEST SWAP1 POP DUP3 DUP2 SUB PUSH1 0x40 DUP5 ADD MSTORE PUSH2 0x27B7 DUP2 DUP8 PUSH2 0x23D9 JUMP JUMPDEST SWAP2 POP POP PUSH1 0x1 PUSH1 0x1 PUSH1 0x40 SHL SUB DUP5 AND PUSH1 0x60 DUP4 ADD MSTORE PUSH4 0xFFFFFFFF DUP4 AND PUSH1 0x80 DUP4 ADD MSTORE SWAP7 SWAP6 POP POP POP POP POP POP JUMP JUMPDEST PUSH1 0x0 PUSH1 0x60 DUP3 MSTORE PUSH2 0x27F2 PUSH1 0x60 DUP4 ADD DUP7 PUSH2 0x23D9 JUMP JUMPDEST DUP3 DUP2 SUB PUSH1 0x20 DUP5 ADD MSTORE PUSH2 0x2804 DUP2 DUP7 PUSH2 0x23D9 JUMP JUMPDEST SWAP2 POP POP PUSH4 0xFFFFFFFF DUP4 AND PUSH1 0x40 DUP4 ADD MSTORE SWAP5 SWAP4 POP POP POP POP JUMP JUMPDEST PUSH1 0x0 PUSH1 0x80 DUP3 MSTORE PUSH2 0x282E PUSH1 0x80 DUP4 ADD DUP8 PUSH2 0x23D9 JUMP JUMPDEST DUP3 DUP2 SUB PUSH1 0x20 DUP5 ADD MSTORE PUSH2 0x2840 DUP2 DUP8 PUSH2 0x23D9 JUMP JUMPDEST SWAP2 POP POP PUSH1 0x1 PUSH1 0x1 PUSH1 0x40 SHL SUB DUP5 AND PUSH1 0x40 DUP4 ADD MSTORE PUSH4 0xFFFFFFFF DUP4 AND PUSH1 0x60 DUP4 ADD MSTORE SWAP6 SWAP5 POP POP POP POP POP JUMP JUMPDEST PUSH1 0x0 PUSH1 0x40 DUP3 MSTORE PUSH2 0x287A PUSH1 0x40 DUP4 ADD DUP6 PUSH2 0x23D9 JUMP JUMPDEST SWAP1 POP PUSH4 0xFFFFFFFF DUP4 AND PUSH1 0x20 DUP4 ADD MSTORE SWAP4 SWAP3 POP POP POP JUMP JUMPDEST PUSH1 0x20 DUP1 DUP3 MSTORE PUSH1 0x1C SWAP1 DUP3 ADD MSTORE PUSH32 0x4F6E6C79206F776E65722063616E206368616E67652061646D696E2100000000 PUSH1 0x40 DUP3 ADD MSTORE PUSH1 0x60 ADD SWAP1 JUMP JUMPDEST PUSH1 0x20 DUP1 DUP3 MSTORE PUSH1 0x14 SWAP1 DUP3 ADD MSTORE PUSH20 0x2330B4B632B2103A379039B2B7321022BA3432B9 PUSH1 0x61 SHL PUSH1 0x40 DUP3 ADD MSTORE PUSH1 0x60 ADD SWAP1 JUMP JUMPDEST PUSH1 0x20 DUP1 DUP3 MSTORE PUSH1 0x2D SWAP1 DUP3 ADD MSTORE PUSH32 0x4F6E6C79206F776E65722063616E206368616E676520776F726D686F6C652069 PUSH1 0x40 DUP3 ADD MSTORE PUSH13 0x6420666F7220536F6C616E6121 PUSH1 0x98 SHL PUSH1 0x60 DUP3 ADD MSTORE PUSH1 0x80 ADD SWAP1 JUMP JUMPDEST PUSH1 0x20 DUP1 DUP3 MSTORE PUSH1 0x23 SWAP1 DUP3 ADD MSTORE PUSH32 0x4F6E6C79206F776E65722063616E207265676973746572206E65772063686169 PUSH1 0x40 DUP3 ADD MSTORE PUSH3 0x6E7321 PUSH1 0xE8 SHL PUSH1 0x60 DUP3 ADD MSTORE PUSH1 0x80 ADD SWAP1 JUMP JUMPDEST PUSH1 0x20 DUP1 DUP3 MSTORE PUSH1 0x12 SWAP1 DUP3 ADD MSTORE PUSH18 0x139BC8115512081858D8DD5B5D5B185D1959 PUSH1 0x72 SHL PUSH1 0x40 DUP3 ADD MSTORE PUSH1 0x60 ADD SWAP1 JUMP JUMPDEST PUSH1 0x20 DUP1 DUP3 MSTORE PUSH1 0x2C SWAP1 DUP3 ADD MSTORE PUSH32 0x66656520697320626967676572207468616E20616D6F756E74206D696E757320 PUSH1 0x40 DUP3 ADD MSTORE PUSH12 0x776F726D686F6C6520666565 PUSH1 0xA0 SHL PUSH1 0x60 DUP3 ADD MSTORE PUSH1 0x80 ADD SWAP1 JUMP JUMPDEST PUSH1 0x20 DUP1 DUP3 MSTORE PUSH1 0x22 SWAP1 DUP3 ADD MSTORE PUSH32 0x76616C756520697320736D616C6C6572207468616E20776F726D686F6C652066 PUSH1 0x40 DUP3 ADD MSTORE PUSH2 0x6565 PUSH1 0xF0 SHL PUSH1 0x60 DUP3 ADD MSTORE PUSH1 0x80 ADD SWAP1 JUMP JUMPDEST PUSH1 0x20 DUP1 DUP3 MSTORE PUSH1 0x1E SWAP1 DUP3 ADD MSTORE PUSH32 0x4F6E6C79206F776E65722063616E2077697468647261772066756E6473210000 PUSH1 0x40 DUP3 ADD MSTORE PUSH1 0x60 ADD SWAP1 JUMP JUMPDEST PUSH1 0x0 PUSH4 0xFFFFFFFF DUP6 AND DUP3 MSTORE PUSH1 0x60 PUSH1 0x20 DUP4 ADD MSTORE PUSH2 0x2A94 PUSH1 0x60 DUP4 ADD DUP6 PUSH2 0x23D9 JUMP JUMPDEST SWAP1 POP PUSH1 0xFF DUP4 AND PUSH1 0x40 DUP4 ADD MSTORE SWAP5 SWAP4 POP POP POP POP JUMP JUMPDEST PUSH1 0xFF SWAP2 SWAP1 SWAP2 AND DUP2 MSTORE PUSH1 0x20 ADD SWAP1 JUMP JUMPDEST PUSH1 0x40 MLOAD DUP2 DUP2 ADD PUSH1 0x1 PUSH1 0x1 PUSH1 0x40 SHL SUB DUP2 GT DUP3 DUP3 LT OR ISZERO PUSH2 0x2AD6 JUMPI PUSH2 0x2AD6 PUSH2 0x2CD8 JUMP JUMPDEST PUSH1 0x40 MSTORE SWAP2 SWAP1 POP JUMP JUMPDEST PUSH1 0x0 DUP3 PUSH2 0x2AF9 JUMPI PUSH4 0x4E487B71 PUSH1 0xE0 SHL DUP2 MSTORE PUSH1 0x12 PUSH1 0x4 MSTORE PUSH1 0x24 DUP2 REVERT JUMPDEST POP DIV SWAP1 JUMP JUMPDEST DUP1 DUP3 JUMPDEST PUSH1 0x1 DUP1 DUP7 GT PUSH2 0x2B10 JUMPI POP PUSH2 0x2B3B JUMP JUMPDEST DUP2 DUP8 DIV DUP3 GT ISZERO PUSH2 0x2B22 JUMPI PUSH2 0x2B22 PUSH2 0x2CC2 JUMP JUMPDEST DUP1 DUP7 AND ISZERO PUSH2 0x2B2F JUMPI SWAP2 DUP2 MUL SWAP2 JUMPDEST SWAP5 SWAP1 SWAP5 SHR SWAP4 DUP1 MUL PUSH2 0x2B01 JUMP JUMPDEST SWAP5 POP SWAP5 SWAP3 POP POP POP JUMP JUMPDEST PUSH1 0x0 PUSH2 0x1B12 PUSH1 0x0 NOT PUSH1 0xFF DUP6 AND DUP5 PUSH1 0x0 DUP3 PUSH2 0x2B60 JUMPI POP PUSH1 0x1 PUSH2 0x1B12 JUMP JUMPDEST DUP2 PUSH2 0x2B6D JUMPI POP PUSH1 0x0 PUSH2 0x1B12 JUMP JUMPDEST DUP2 PUSH1 0x1 DUP2 EQ PUSH2 0x2B83 JUMPI PUSH1 0x2 DUP2 EQ PUSH2 0x2B8D JUMPI PUSH2 0x2BBA JUMP JUMPDEST PUSH1 0x1 SWAP2 POP POP PUSH2 0x1B12 JUMP JUMPDEST PUSH1 0xFF DUP5 GT ISZERO PUSH2 0x2B9E JUMPI PUSH2 0x2B9E PUSH2 0x2CC2 JUMP JUMPDEST PUSH1 0x1 DUP5 SHL SWAP2 POP DUP5 DUP3 GT ISZERO PUSH2 0x2BB4 JUMPI PUSH2 0x2BB4 PUSH2 0x2CC2 JUMP JUMPDEST POP PUSH2 0x1B12 JUMP JUMPDEST POP PUSH1 0x20 DUP4 LT PUSH2 0x133 DUP4 LT AND PUSH1 0x4E DUP5 LT PUSH1 0xB DUP5 LT AND OR ISZERO PUSH2 0x2BED JUMPI POP DUP2 DUP2 EXP DUP4 DUP2 GT ISZERO PUSH2 0x2BE8 JUMPI PUSH2 0x2BE8 PUSH2 0x2CC2 JUMP JUMPDEST PUSH2 0x1B12 JUMP JUMPDEST PUSH2 0x2BFA DUP5 DUP5 DUP5 PUSH1 0x1 PUSH2 0x2AFE JUMP JUMPDEST DUP1 DUP7 DIV DUP3 GT ISZERO PUSH2 0x2C0C JUMPI PUSH2 0x2C0C PUSH2 0x2CC2 JUMP JUMPDEST MUL SWAP5 SWAP4 POP POP POP POP JUMP JUMPDEST PUSH1 0x0 DUP2 PUSH1 0x0 NOT DIV DUP4 GT DUP3 ISZERO ISZERO AND ISZERO PUSH2 0x2C2F JUMPI PUSH2 0x2C2F PUSH2 0x2CC2 JUMP JUMPDEST POP MUL SWAP1 JUMP JUMPDEST PUSH1 0x0 DUP3 DUP3 LT ISZERO PUSH2 0x2C46 JUMPI PUSH2 0x2C46 PUSH2 0x2CC2 JUMP JUMPDEST POP SUB SWAP1 JUMP JUMPDEST PUSH1 0x0 PUSH1 0xFF DUP3 AND PUSH1 0xFF DUP5 AND DUP1 DUP3 LT ISZERO PUSH2 0x2C65 JUMPI PUSH2 0x2C65 PUSH2 0x2CC2 JUMP JUMPDEST SWAP1 SUB SWAP4 SWAP3 POP POP POP JUMP JUMPDEST PUSH1 0x0 JUMPDEST DUP4 DUP2 LT ISZERO PUSH2 0x2C89 JUMPI DUP2 DUP2 ADD MLOAD DUP4 DUP3 ADD MSTORE PUSH1 0x20 ADD PUSH2 0x2C71 JUMP JUMPDEST DUP4 DUP2 GT ISZERO PUSH2 0x2C98 JUMPI PUSH1 0x0 DUP5 DUP5 ADD MSTORE JUMPDEST POP POP POP POP JUMP JUMPDEST PUSH1 0x0 PUSH4 0xFFFFFFFF DUP1 DUP4 AND DUP2 DUP2 EQ ISZERO PUSH2 0x2CB8 JUMPI PUSH2 0x2CB8 PUSH2 0x2CC2 JUMP JUMPDEST PUSH1 0x1 ADD SWAP4 SWAP3 POP POP POP JUMP JUMPDEST PUSH4 0x4E487B71 PUSH1 0xE0 SHL PUSH1 0x0 MSTORE PUSH1 0x11 PUSH1 0x4 MSTORE PUSH1 0x24 PUSH1 0x0 REVERT JUMPDEST PUSH4 0x4E487B71 PUSH1 0xE0 SHL PUSH1 0x0 MSTORE PUSH1 0x41 PUSH1 0x4 MSTORE PUSH1 0x24 PUSH1 0x0 REVERT JUMPDEST PUSH1 0x1 PUSH1 0x1 PUSH1 0x40 SHL SUB DUP2 AND DUP2 EQ PUSH2 0x2D03 JUMPI PUSH1 0x0 DUP1 REVERT JUMPDEST POP JUMP INVALID LOG2 PUSH5 0x6970667358 0x22 SLT KECCAK256 SWAP3 COINBASE BYTE PUSH8 0x53CEA151E857286E ADD EXP 0x4F 0xC8 ADDRESS 0xBB DUP3 REVERT 0x4C 0x1F JUMP DUP10 0xCF 0xB2 GASPRICE 0x2A GAS 0xDC DUP3 NOT PUSH5 0x736F6C6343 STOP ADDMOD STOP STOP CALLER "
		},
		"gasEstimates": {
			"creation": {
				"codeDepositCost": "2316000",
				"executionCost": "infinite",
				"totalCost": "infinite"
			},
			"external": {
				"CANCEL_TOKEN()": "373",
				"CONSISTENCY_LEVEL()": "308",
				"DEPOSIT_TOKEN()": "309",
				"DIRECT_TRANSFER()": "307",
				"INITIALIZE_PDA()": "330",
				"INITIALIZE_TOKEN_ACCOUNT()": "351",
				"INSTANT_TOKEN()": "307",
				"PAUSE_TOKEN()": "374",
				"TOKEN_STREAM()": "351",
				"TOKEN_STREAM_UPDATE()": "375",
				"TOKEN_WITHDRAW_STREAM()": "352",
				"WITHDRAW_TOKEN()": "352",
				"_applicationContracts(uint16)": "1330",
				"_arbiter_fee()": "1075",
				"_weth()": "1203",
				"_wormhole()": "1116",
				"changeAdmin(address)": "22043",
				"changeArbiterFee(uint256)": "21153",
				"changeSolanaWormholeId(uint256)": "21130",
				"claimEthAmount()": "infinite",
				"claimWETHAmount(uint256)": "infinite",
				"encode_initialize_pda((bytes,uint256))": "infinite",
				"encode_initialize_token_account((bytes,bytes,uint256))": "infinite",
				"encode_process_cancel_token_stream((uint256,bytes,bytes,bytes,bytes))": "infinite",
				"encode_process_deposit_token((uint64,uint256,bytes,bytes))": "infinite",
				"encode_process_direct_transfer((uint64,uint256,bytes,bytes,bytes))": "infinite",
				"encode_process_instant_token_transfer((uint64,uint256,bytes,bytes,bytes))": "infinite",
				"encode_process_pause_token_stream((uint256,bytes,bytes,bytes,bytes))": "infinite",
				"encode_process_token_withdrawal((uint64,uint256,bytes,bytes))": "infinite",
				"encode_token_stream((uint64,uint64,uint64,uint256,bytes,bytes,uint64,uint64,bytes))": "infinite",
				"encode_token_stream_update((uint64,uint64,uint64,uint256,bytes,bytes,bytes,bytes))": "infinite",
				"encode_token_withdraw_stream((uint256,bytes,bytes,bytes,bytes))": "infinite",
				"initialize_pda(bytes)": "infinite",
				"initialize_token_account(bytes,bytes)": "infinite",
				"owner()": "1204",
				"process_cancel_token_stream(bytes,bytes,bytes,bytes)": "infinite",
				"process_deposit_token(uint64,bytes,bytes)": "infinite",
				"process_direct_transfer(uint64,bytes,bytes,bytes)": "infinite",
				"process_instant_token_transfer(uint64,bytes,bytes,bytes)": "infinite",
				"process_pause_token_stream(bytes,bytes,bytes,bytes)": "infinite",
				"process_token_stream(uint64,uint64,uint64,bytes,bytes,uint64,uint64,bytes)": "infinite",
				"process_token_stream_update(uint64,uint64,uint64,bytes,bytes,bytes,bytes)": "infinite",
				"process_token_withdraw_stream(bytes,bytes,bytes,bytes)": "infinite",
				"process_token_withdrawal(uint64,bytes,bytes)": "infinite",
				"registerApplicationContracts(uint16,bytes32)": "21277"
			},
			"internal": {
				"_bridgeInstructionInWormhole(uint32,bytes memory,uint256)": "infinite",
				"deNormalizeAmount(uint256,uint8)": "infinite",
				"getChainId()": "815",
				"normalizeAmount(uint256,uint8)": "infinite"
			}
		},
		"methodIdentifiers": {
			"CANCEL_TOKEN()": "ce9dd1bc",
			"CONSISTENCY_LEVEL()": "4fd686c8",
			"DEPOSIT_TOKEN()": "13f66587",
			"DIRECT_TRANSFER()": "6035b952",
			"INITIALIZE_PDA()": "84d8b64f",
			"INITIALIZE_TOKEN_ACCOUNT()": "6a79293a",
			"INSTANT_TOKEN()": "bbdcf3aa",
			"PAUSE_TOKEN()": "42555f3d",
			"TOKEN_STREAM()": "c30a7741",
			"TOKEN_STREAM_UPDATE()": "313861a7",
			"TOKEN_WITHDRAW_STREAM()": "5e2d15ed",
			"WITHDRAW_TOKEN()": "3ed3a054",
			"_applicationContracts(uint16)": "3d2e49a6",
			"_arbiter_fee()": "0db0afac",
			"_weth()": "a1764595",
			"_wormhole()": "4a6aff29",
			"changeAdmin(address)": "8f283970",
			"changeArbiterFee(uint256)": "985c85b8",
			"changeSolanaWormholeId(uint256)": "dd6a859e",
			"claimEthAmount()": "29247de7",
			"claimWETHAmount(uint256)": "378709d0",
			"encode_initialize_pda((bytes,uint256))": "8385e567",
			"encode_initialize_token_account((bytes,bytes,uint256))": "fcdf089b",
			"encode_process_cancel_token_stream((uint256,bytes,bytes,bytes,bytes))": "7773f0cd",
			"encode_process_deposit_token((uint64,uint256,bytes,bytes))": "d57b4c08",
			"encode_process_direct_transfer((uint64,uint256,bytes,bytes,bytes))": "bbe46585",
			"encode_process_instant_token_transfer((uint64,uint256,bytes,bytes,bytes))": "a6ced947",
			"encode_process_pause_token_stream((uint256,bytes,bytes,bytes,bytes))": "8b31e9a2",
			"encode_process_token_withdrawal((uint64,uint256,bytes,bytes))": "d0cd2b06",
			"encode_token_stream((uint64,uint64,uint64,uint256,bytes,bytes,uint64,uint64,bytes))": "ae6f039c",
			"encode_token_stream_update((uint64,uint64,uint64,uint256,bytes,bytes,bytes,bytes))": "a1728325",
			"encode_token_withdraw_stream((uint256,bytes,bytes,bytes,bytes))": "34cf211e",
			"initialize_pda(bytes)": "e2c3865f",
			"initialize_token_account(bytes,bytes)": "76462eea",
			"owner()": "8da5cb5b",
			"process_cancel_token_stream(bytes,bytes,bytes,bytes)": "58c4d9aa",
			"process_deposit_token(uint64,bytes,bytes)": "8e3edd1a",
			"process_direct_transfer(uint64,bytes,bytes,bytes)": "ed5cc77c",
			"process_instant_token_transfer(uint64,bytes,bytes,bytes)": "6b0724c7",
			"process_pause_token_stream(bytes,bytes,bytes,bytes)": "5ed48a7a",
			"process_token_stream(uint64,uint64,uint64,bytes,bytes,uint64,uint64,bytes)": "6a1bb982",
			"process_token_stream_update(uint64,uint64,uint64,bytes,bytes,bytes,bytes)": "2c0fd6cb",
			"process_token_withdraw_stream(bytes,bytes,bytes,bytes)": "e4365de0",
			"process_token_withdrawal(uint64,bytes,bytes)": "44b06541",
			"registerApplicationContracts(uint16,bytes32)": "5f327e1c"
		}
	},
	"abi": [
		{
			"inputs": [
				{
					"internalType": "address",
					"name": "wormholeAddress",
					"type": "address"
				},
				{
					"internalType": "address",
					"name": "weth",
					"type": "address"
				},
				{
					"internalType": "uint256",
					"name": "arbiter_fee",
					"type": "uint256"
				}
			],
			"stateMutability": "nonpayable",
			"type": "constructor"
		},
		{
			"anonymous": false,
			"inputs": [
				{
					"indexed": false,
					"internalType": "bytes",
					"name": "receiver",
					"type": "bytes"
				},
				{
					"indexed": false,
					"internalType": "bytes",
					"name": "tokenMint",
					"type": "bytes"
				},
				{
					"indexed": false,
					"internalType": "uint32",
					"name": "nonce",
					"type": "uint32"
				}
			],
			"name": "CancelTokenStream",
			"type": "event"
		},
		{
			"anonymous": false,
			"inputs": [
				{
					"indexed": false,
					"internalType": "bytes",
					"name": "depositor",
					"type": "bytes"
				},
				{
					"indexed": false,
					"internalType": "bytes",
					"name": "tokenMint",
					"type": "bytes"
				},
				{
					"indexed": false,
					"internalType": "uint64",
					"name": "amount",
					"type": "uint64"
				},
				{
					"indexed": false,
					"internalType": "uint32",
					"name": "nonce",
					"type": "uint32"
				}
			],
			"name": "DepositToken",
			"type": "event"
		},
		{
			"anonymous": false,
			"inputs": [
				{
					"indexed": false,
					"internalType": "bytes",
					"name": "sender",
					"type": "bytes"
				},
				{
					"indexed": false,
					"internalType": "bytes",
					"name": "receiver",
					"type": "bytes"
				},
				{
					"indexed": false,
					"internalType": "bytes",
					"name": "tokenMint",
					"type": "bytes"
				},
				{
					"indexed": false,
					"internalType": "uint64",
					"name": "amount",
					"type": "uint64"
				},
				{
					"indexed": false,
					"internalType": "uint32",
					"name": "nonce",
					"type": "uint32"
				}
			],
			"name": "DirectTransfer",
			"type": "event"
		},
		{
			"anonymous": false,
			"inputs": [
				{
					"indexed": false,
					"internalType": "bytes",
					"name": "receiver",
					"type": "bytes"
				},
				{
					"indexed": false,
					"internalType": "bytes",
					"name": "tokenMint",
					"type": "bytes"
				},
				{
					"indexed": false,
					"internalType": "uint64",
					"name": "amount",
					"type": "uint64"
				},
				{
					"indexed": false,
					"internalType": "uint32",
					"name": "nonce",
					"type": "uint32"
				}
			],
			"name": "InstantTokenTransfer",
			"type": "event"
		},
		{
			"anonymous": false,
			"inputs": [
				{
					"indexed": false,
					"internalType": "bytes",
					"name": "account",
					"type": "bytes"
				},
				{
					"indexed": false,
					"internalType": "uint32",
					"name": "nonce",
					"type": "uint32"
				}
			],
			"name": "PDAInitialize",
			"type": "event"
		},
		{
			"anonymous": false,
			"inputs": [
				{
					"indexed": false,
					"internalType": "bytes",
					"name": "receiver",
					"type": "bytes"
				},
				{
					"indexed": false,
					"internalType": "bytes",
					"name": "tokenMint",
					"type": "bytes"
				},
				{
					"indexed": false,
					"internalType": "uint32",
					"name": "nonce",
					"type": "uint32"
				}
			],
			"name": "PauseTokenStream",
			"type": "event"
		},
		{
			"anonymous": false,
			"inputs": [
				{
					"indexed": false,
					"internalType": "bytes",
					"name": "account",
					"type": "bytes"
				},
				{
					"indexed": false,
					"internalType": "bytes",
					"name": "tokenMint",
					"type": "bytes"
				},
				{
					"indexed": false,
					"internalType": "uint32",
					"name": "nonce",
					"type": "uint32"
				}
			],
			"name": "TokenAccountInitialize",
			"type": "event"
		},
		{
			"anonymous": false,
			"inputs": [
				{
					"indexed": false,
					"internalType": "bytes",
					"name": "sender",
					"type": "bytes"
				},
				{
					"indexed": false,
					"internalType": "bytes",
					"name": "receiver",
					"type": "bytes"
				},
				{
					"indexed": false,
					"internalType": "bytes",
					"name": "tokenMint",
					"type": "bytes"
				},
				{
					"indexed": false,
					"internalType": "uint64",
					"name": "amount",
					"type": "uint64"
				},
				{
					"indexed": false,
					"internalType": "uint32",
					"name": "nonce",
					"type": "uint32"
				}
			],
			"name": "TokenStream",
			"type": "event"
		},
		{
			"anonymous": false,
			"inputs": [
				{
					"indexed": false,
					"internalType": "bytes",
					"name": "sender",
					"type": "bytes"
				},
				{
					"indexed": false,
					"internalType": "bytes",
					"name": "receiver",
					"type": "bytes"
				},
				{
					"indexed": false,
					"internalType": "bytes",
					"name": "tokenMint",
					"type": "bytes"
				},
				{
					"indexed": false,
					"internalType": "uint64",
					"name": "amount",
					"type": "uint64"
				},
				{
					"indexed": false,
					"internalType": "uint32",
					"name": "nonce",
					"type": "uint32"
				}
			],
			"name": "TokenStreamUpdate",
			"type": "event"
		},
		{
			"anonymous": false,
			"inputs": [
				{
					"indexed": false,
					"internalType": "bytes",
					"name": "withdrawer",
					"type": "bytes"
				},
				{
					"indexed": false,
					"internalType": "bytes",
					"name": "tokenMint",
					"type": "bytes"
				},
				{
					"indexed": false,
					"internalType": "uint64",
					"name": "amount",
					"type": "uint64"
				},
				{
					"indexed": false,
					"internalType": "uint32",
					"name": "nonce",
					"type": "uint32"
				}
			],
			"name": "TokenWithdrawal",
			"type": "event"
		},
		{
			"anonymous": false,
			"inputs": [
				{
					"indexed": false,
					"internalType": "bytes",
					"name": "withdrawer",
					"type": "bytes"
				},
				{
					"indexed": false,
					"internalType": "bytes",
					"name": "tokenMint",
					"type": "bytes"
				},
				{
					"indexed": false,
					"internalType": "uint32",
					"name": "nonce",
					"type": "uint32"
				}
			],
			"name": "WithdrawToken",
			"type": "event"
		},
		{
			"inputs": [],
			"name": "CANCEL_TOKEN",
			"outputs": [
				{
					"internalType": "uint8",
					"name": "",
					"type": "uint8"
				}
			],
			"stateMutability": "view",
			"type": "function"
		},
		{
			"inputs": [],
			"name": "CONSISTENCY_LEVEL",
			"outputs": [
				{
					"internalType": "uint8",
					"name": "",
					"type": "uint8"
				}
			],
			"stateMutability": "view",
			"type": "function"
		},
		{
			"inputs": [],
			"name": "DEPOSIT_TOKEN",
			"outputs": [
				{
					"internalType": "uint8",
					"name": "",
					"type": "uint8"
				}
			],
			"stateMutability": "view",
			"type": "function"
		},
		{
			"inputs": [],
			"name": "DIRECT_TRANSFER",
			"outputs": [
				{
					"internalType": "uint8",
					"name": "",
					"type": "uint8"
				}
			],
			"stateMutability": "view",
			"type": "function"
		},
		{
			"inputs": [],
			"name": "INITIALIZE_PDA",
			"outputs": [
				{
					"internalType": "uint8",
					"name": "",
					"type": "uint8"
				}
			],
			"stateMutability": "view",
			"type": "function"
		},
		{
			"inputs": [],
			"name": "INITIALIZE_TOKEN_ACCOUNT",
			"outputs": [
				{
					"internalType": "uint8",
					"name": "",
					"type": "uint8"
				}
			],
			"stateMutability": "view",
			"type": "function"
		},
		{
			"inputs": [],
			"name": "INSTANT_TOKEN",
			"outputs": [
				{
					"internalType": "uint8",
					"name": "",
					"type": "uint8"
				}
			],
			"stateMutability": "view",
			"type": "function"
		},
		{
			"inputs": [],
			"name": "PAUSE_TOKEN",
			"outputs": [
				{
					"internalType": "uint8",
					"name": "",
					"type": "uint8"
				}
			],
			"stateMutability": "view",
			"type": "function"
		},
		{
			"inputs": [],
			"name": "TOKEN_STREAM",
			"outputs": [
				{
					"internalType": "uint8",
					"name": "",
					"type": "uint8"
				}
			],
			"stateMutability": "view",
			"type": "function"
		},
		{
			"inputs": [],
			"name": "TOKEN_STREAM_UPDATE",
			"outputs": [
				{
					"internalType": "uint8",
					"name": "",
					"type": "uint8"
				}
			],
			"stateMutability": "view",
			"type": "function"
		},
		{
			"inputs": [],
			"name": "TOKEN_WITHDRAW_STREAM",
			"outputs": [
				{
					"internalType": "uint8",
					"name": "",
					"type": "uint8"
				}
			],
			"stateMutability": "view",
			"type": "function"
		},
		{
			"inputs": [],
			"name": "WITHDRAW_TOKEN",
			"outputs": [
				{
					"internalType": "uint8",
					"name": "",
					"type": "uint8"
				}
			],
			"stateMutability": "view",
			"type": "function"
		},
		{
			"inputs": [
				{
					"internalType": "uint16",
					"name": "",
					"type": "uint16"
				}
			],
			"name": "_applicationContracts",
			"outputs": [
				{
					"internalType": "bytes32",
					"name": "",
					"type": "bytes32"
				}
			],
			"stateMutability": "view",
			"type": "function"
		},
		{
			"inputs": [],
			"name": "_arbiter_fee",
			"outputs": [
				{
					"internalType": "uint256",
					"name": "",
					"type": "uint256"
				}
			],
			"stateMutability": "view",
			"type": "function"
		},
		{
			"inputs": [],
			"name": "_weth",
			"outputs": [
				{
					"internalType": "contract IWETH",
					"name": "",
					"type": "address"
				}
			],
			"stateMutability": "view",
			"type": "function"
		},
		{
			"inputs": [],
			"name": "_wormhole",
			"outputs": [
				{
					"internalType": "contract IWormhole",
					"name": "",
					"type": "address"
				}
			],
			"stateMutability": "view",
			"type": "function"
		},
		{
			"inputs": [
				{
					"internalType": "address",
					"name": "_owner",
					"type": "address"
				}
			],
			"name": "changeAdmin",
			"outputs": [],
			"stateMutability": "nonpayable",
			"type": "function"
		},
		{
			"inputs": [
				{
					"internalType": "uint256",
					"name": "fee",
					"type": "uint256"
				}
			],
			"name": "changeArbiterFee",
			"outputs": [],
			"stateMutability": "nonpayable",
			"type": "function"
		},
		{
			"inputs": [
				{
					"internalType": "uint256",
					"name": "_id",
					"type": "uint256"
				}
			],
			"name": "changeSolanaWormholeId",
			"outputs": [],
			"stateMutability": "nonpayable",
			"type": "function"
		},
		{
			"inputs": [],
			"name": "claimEthAmount",
			"outputs": [],
			"stateMutability": "nonpayable",
			"type": "function"
		},
		{
			"inputs": [
				{
					"internalType": "uint256",
					"name": "amount",
					"type": "uint256"
				}
			],
			"name": "claimWETHAmount",
			"outputs": [],
			"stateMutability": "nonpayable",
			"type": "function"
		},
		{
			"inputs": [
				{
					"components": [
						{
							"internalType": "bytes",
							"name": "account",
							"type": "bytes"
						},
						{
							"internalType": "uint256",
							"name": "toChain",
							"type": "uint256"
						}
					],
					"internalType": "struct Messages.InitializePDA",
					"name": "initializePDA",
					"type": "tuple"
				}
			],
			"name": "encode_initialize_pda",
			"outputs": [
				{
					"internalType": "bytes",
					"name": "encoded",
					"type": "bytes"
				}
			],
			"stateMutability": "pure",
			"type": "function"
		},
		{
			"inputs": [
				{
					"components": [
						{
							"internalType": "bytes",
							"name": "account",
							"type": "bytes"
						},
						{
							"internalType": "bytes",
							"name": "tokenMint",
							"type": "bytes"
						},
						{
							"internalType": "uint256",
							"name": "toChain",
							"type": "uint256"
						}
					],
					"internalType": "struct Messages.InitializeTokenAccount",
					"name": "initializeTokenAccount",
					"type": "tuple"
				}
			],
			"name": "encode_initialize_token_account",
			"outputs": [
				{
					"internalType": "bytes",
					"name": "encoded",
					"type": "bytes"
				}
			],
			"stateMutability": "pure",
			"type": "function"
		},
		{
			"inputs": [
				{
					"components": [
						{
							"internalType": "uint256",
							"name": "toChain",
							"type": "uint256"
						},
						{
							"internalType": "bytes",
							"name": "sender",
							"type": "bytes"
						},
						{
							"internalType": "bytes",
							"name": "token_mint",
							"type": "bytes"
						},
						{
							"internalType": "bytes",
							"name": "reciever_address",
							"type": "bytes"
						},
						{
							"internalType": "bytes",
							"name": "data_account_address",
							"type": "bytes"
						}
					],
					"internalType": "struct Messages.CancelStreamToken",
					"name": "cancelStream",
					"type": "tuple"
				}
			],
			"name": "encode_process_cancel_token_stream",
			"outputs": [
				{
					"internalType": "bytes",
					"name": "encoded",
					"type": "bytes"
				}
			],
			"stateMutability": "pure",
			"type": "function"
		},
		{
			"inputs": [
				{
					"components": [
						{
							"internalType": "uint64",
							"name": "amount",
							"type": "uint64"
						},
						{
							"internalType": "uint256",
							"name": "toChain",
							"type": "uint256"
						},
						{
							"internalType": "bytes",
							"name": "depositor",
							"type": "bytes"
						},
						{
							"internalType": "bytes",
							"name": "token_mint",
							"type": "bytes"
						}
					],
					"internalType": "struct Messages.ProcessDepositToken",
					"name": "processDeposit",
					"type": "tuple"
				}
			],
			"name": "encode_process_deposit_token",
			"outputs": [
				{
					"internalType": "bytes",
					"name": "encoded",
					"type": "bytes"
				}
			],
			"stateMutability": "pure",
			"type": "function"
		},
		{
			"inputs": [
				{
					"components": [
						{
							"internalType": "uint64",
							"name": "amount",
							"type": "uint64"
						},
						{
							"internalType": "uint256",
							"name": "toChain",
							"type": "uint256"
						},
						{
							"internalType": "bytes",
							"name": "sender",
							"type": "bytes"
						},
						{
							"internalType": "bytes",
							"name": "token_mint",
							"type": "bytes"
						},
						{
							"internalType": "bytes",
							"name": "receiver",
							"type": "bytes"
						}
					],
					"internalType": "struct Messages.ProcessTransferToken",
					"name": "processTransfer",
					"type": "tuple"
				}
			],
			"name": "encode_process_direct_transfer",
			"outputs": [
				{
					"internalType": "bytes",
					"name": "encoded",
					"type": "bytes"
				}
			],
			"stateMutability": "pure",
			"type": "function"
		},
		{
			"inputs": [
				{
					"components": [
						{
							"internalType": "uint64",
							"name": "amount",
							"type": "uint64"
						},
						{
							"internalType": "uint256",
							"name": "toChain",
							"type": "uint256"
						},
						{
							"internalType": "bytes",
							"name": "sender",
							"type": "bytes"
						},
						{
							"internalType": "bytes",
							"name": "token_mint",
							"type": "bytes"
						},
						{
							"internalType": "bytes",
							"name": "receiver",
							"type": "bytes"
						}
					],
					"internalType": "struct Messages.ProcessTransferToken",
					"name": "processTransfer",
					"type": "tuple"
				}
			],
			"name": "encode_process_instant_token_transfer",
			"outputs": [
				{
					"internalType": "bytes",
					"name": "encoded",
					"type": "bytes"
				}
			],
			"stateMutability": "pure",
			"type": "function"
		},
		{
			"inputs": [
				{
					"components": [
						{
							"internalType": "uint256",
							"name": "toChain",
							"type": "uint256"
						},
						{
							"internalType": "bytes",
							"name": "sender",
							"type": "bytes"
						},
						{
							"internalType": "bytes",
							"name": "token_mint",
							"type": "bytes"
						},
						{
							"internalType": "bytes",
							"name": "reciever_address",
							"type": "bytes"
						},
						{
							"internalType": "bytes",
							"name": "data_account_address",
							"type": "bytes"
						}
					],
					"internalType": "struct Messages.PauseStreamToken",
					"name": "pauseStream",
					"type": "tuple"
				}
			],
			"name": "encode_process_pause_token_stream",
			"outputs": [
				{
					"internalType": "bytes",
					"name": "encoded",
					"type": "bytes"
				}
			],
			"stateMutability": "pure",
			"type": "function"
		},
		{
			"inputs": [
				{
					"components": [
						{
							"internalType": "uint64",
							"name": "amount",
							"type": "uint64"
						},
						{
							"internalType": "uint256",
							"name": "toChain",
							"type": "uint256"
						},
						{
							"internalType": "bytes",
							"name": "withdrawer",
							"type": "bytes"
						},
						{
							"internalType": "bytes",
							"name": "token_mint",
							"type": "bytes"
						}
					],
					"internalType": "struct Messages.ProcessWithdrawToken",
					"name": "processWithdraw",
					"type": "tuple"
				}
			],
			"name": "encode_process_token_withdrawal",
			"outputs": [
				{
					"internalType": "bytes",
					"name": "encoded",
					"type": "bytes"
				}
			],
			"stateMutability": "pure",
			"type": "function"
		},
		{
			"inputs": [
				{
					"components": [
						{
							"internalType": "uint64",
							"name": "start_time",
							"type": "uint64"
						},
						{
							"internalType": "uint64",
							"name": "end_time",
							"type": "uint64"
						},
						{
							"internalType": "uint64",
							"name": "amount",
							"type": "uint64"
						},
						{
							"internalType": "uint256",
							"name": "toChain",
							"type": "uint256"
						},
						{
							"internalType": "bytes",
							"name": "sender",
							"type": "bytes"
						},
						{
							"internalType": "bytes",
							"name": "receiver",
							"type": "bytes"
						},
						{
							"internalType": "uint64",
							"name": "can_cancel",
							"type": "uint64"
						},
						{
							"internalType": "uint64",
							"name": "can_update",
							"type": "uint64"
						},
						{
							"internalType": "bytes",
							"name": "token_mint",
							"type": "bytes"
						}
					],
					"internalType": "struct Messages.ProcessStreamToken",
					"name": "processStream",
					"type": "tuple"
				}
			],
			"name": "encode_token_stream",
			"outputs": [
				{
					"internalType": "bytes",
					"name": "encoded",
					"type": "bytes"
				}
			],
			"stateMutability": "pure",
			"type": "function"
		},
		{
			"inputs": [
				{
					"components": [
						{
							"internalType": "uint64",
							"name": "start_time",
							"type": "uint64"
						},
						{
							"internalType": "uint64",
							"name": "end_time",
							"type": "uint64"
						},
						{
							"internalType": "uint64",
							"name": "amount",
							"type": "uint64"
						},
						{
							"internalType": "uint256",
							"name": "toChain",
							"type": "uint256"
						},
						{
							"internalType": "bytes",
							"name": "sender",
							"type": "bytes"
						},
						{
							"internalType": "bytes",
							"name": "receiver",
							"type": "bytes"
						},
						{
							"internalType": "bytes",
							"name": "token_mint",
							"type": "bytes"
						},
						{
							"internalType": "bytes",
							"name": "data_account_address",
							"type": "bytes"
						}
					],
					"internalType": "struct Messages.UpdateStreamToken",
					"name": "processStream",
					"type": "tuple"
				}
			],
			"name": "encode_token_stream_update",
			"outputs": [
				{
					"internalType": "bytes",
					"name": "encoded",
					"type": "bytes"
				}
			],
			"stateMutability": "pure",
			"type": "function"
		},
		{
			"inputs": [
				{
					"components": [
						{
							"internalType": "uint256",
							"name": "toChain",
							"type": "uint256"
						},
						{
							"internalType": "bytes",
							"name": "withdrawer",
							"type": "bytes"
						},
						{
							"internalType": "bytes",
							"name": "token_mint",
							"type": "bytes"
						},
						{
							"internalType": "bytes",
							"name": "sender_address",
							"type": "bytes"
						},
						{
							"internalType": "bytes",
							"name": "data_account_address",
							"type": "bytes"
						}
					],
					"internalType": "struct Messages.ProcessWithdrawStreamToken",
					"name": "processWithdrawStream",
					"type": "tuple"
				}
			],
			"name": "encode_token_withdraw_stream",
			"outputs": [
				{
					"internalType": "bytes",
					"name": "encoded",
					"type": "bytes"
				}
			],
			"stateMutability": "pure",
			"type": "function"
		},
		{
			"inputs": [
				{
					"internalType": "bytes",
					"name": "account",
					"type": "bytes"
				}
			],
			"name": "initialize_pda",
			"outputs": [],
			"stateMutability": "payable",
			"type": "function"
		},
		{
			"inputs": [
				{
					"internalType": "bytes",
					"name": "account",
					"type": "bytes"
				},
				{
					"internalType": "bytes",
					"name": "token_mint",
					"type": "bytes"
				}
			],
			"name": "initialize_token_account",
			"outputs": [],
			"stateMutability": "payable",
			"type": "function"
		},
		{
			"inputs": [],
			"name": "owner",
			"outputs": [
				{
					"internalType": "address",
					"name": "",
					"type": "address"
				}
			],
			"stateMutability": "view",
			"type": "function"
		},
		{
			"inputs": [
				{
					"internalType": "bytes",
					"name": "sender",
					"type": "bytes"
				},
				{
					"internalType": "bytes",
					"name": "token_mint",
					"type": "bytes"
				},
				{
					"internalType": "bytes",
					"name": "reciever_address",
					"type": "bytes"
				},
				{
					"internalType": "bytes",
					"name": "data_account_address",
					"type": "bytes"
				}
			],
			"name": "process_cancel_token_stream",
			"outputs": [],
			"stateMutability": "payable",
			"type": "function"
		},
		{
			"inputs": [
				{
					"internalType": "uint64",
					"name": "amount",
					"type": "uint64"
				},
				{
					"internalType": "bytes",
					"name": "depositor",
					"type": "bytes"
				},
				{
					"internalType": "bytes",
					"name": "token_mint",
					"type": "bytes"
				}
			],
			"name": "process_deposit_token",
			"outputs": [],
			"stateMutability": "payable",
			"type": "function"
		},
		{
			"inputs": [
				{
					"internalType": "uint64",
					"name": "amount",
					"type": "uint64"
				},
				{
					"internalType": "bytes",
					"name": "sender",
					"type": "bytes"
				},
				{
					"internalType": "bytes",
					"name": "token_mint",
					"type": "bytes"
				},
				{
					"internalType": "bytes",
					"name": "receiver",
					"type": "bytes"
				}
			],
			"name": "process_direct_transfer",
			"outputs": [],
			"stateMutability": "payable",
			"type": "function"
		},
		{
			"inputs": [
				{
					"internalType": "uint64",
					"name": "amount",
					"type": "uint64"
				},
				{
					"internalType": "bytes",
					"name": "sender",
					"type": "bytes"
				},
				{
					"internalType": "bytes",
					"name": "withdrawer",
					"type": "bytes"
				},
				{
					"internalType": "bytes",
					"name": "token_mint",
					"type": "bytes"
				}
			],
			"name": "process_instant_token_transfer",
			"outputs": [],
			"stateMutability": "payable",
			"type": "function"
		},
		{
			"inputs": [
				{
					"internalType": "bytes",
					"name": "sender",
					"type": "bytes"
				},
				{
					"internalType": "bytes",
					"name": "token_mint",
					"type": "bytes"
				},
				{
					"internalType": "bytes",
					"name": "reciever_address",
					"type": "bytes"
				},
				{
					"internalType": "bytes",
					"name": "data_account_address",
					"type": "bytes"
				}
			],
			"name": "process_pause_token_stream",
			"outputs": [],
			"stateMutability": "payable",
			"type": "function"
		},
		{
			"inputs": [
				{
					"internalType": "uint64",
					"name": "start_time",
					"type": "uint64"
				},
				{
					"internalType": "uint64",
					"name": "end_time",
					"type": "uint64"
				},
				{
					"internalType": "uint64",
					"name": "amount",
					"type": "uint64"
				},
				{
					"internalType": "bytes",
					"name": "receiver",
					"type": "bytes"
				},
				{
					"internalType": "bytes",
					"name": "sender",
					"type": "bytes"
				},
				{
					"internalType": "uint64",
					"name": "can_cancel",
					"type": "uint64"
				},
				{
					"internalType": "uint64",
					"name": "can_update",
					"type": "uint64"
				},
				{
					"internalType": "bytes",
					"name": "token_mint",
					"type": "bytes"
				}
			],
			"name": "process_token_stream",
			"outputs": [],
			"stateMutability": "payable",
			"type": "function"
		},
		{
			"inputs": [
				{
					"internalType": "uint64",
					"name": "start_time",
					"type": "uint64"
				},
				{
					"internalType": "uint64",
					"name": "end_time",
					"type": "uint64"
				},
				{
					"internalType": "uint64",
					"name": "amount",
					"type": "uint64"
				},
				{
					"internalType": "bytes",
					"name": "receiver",
					"type": "bytes"
				},
				{
					"internalType": "bytes",
					"name": "sender",
					"type": "bytes"
				},
				{
					"internalType": "bytes",
					"name": "token_mint",
					"type": "bytes"
				},
				{
					"internalType": "bytes",
					"name": "data_account_address",
					"type": "bytes"
				}
			],
			"name": "process_token_stream_update",
			"outputs": [],
			"stateMutability": "payable",
			"type": "function"
		},
		{
			"inputs": [
				{
					"internalType": "bytes",
					"name": "withdrawer",
					"type": "bytes"
				},
				{
					"internalType": "bytes",
					"name": "token_mint",
					"type": "bytes"
				},
				{
					"internalType": "bytes",
					"name": "sender_address",
					"type": "bytes"
				},
				{
					"internalType": "bytes",
					"name": "data_account_address",
					"type": "bytes"
				}
			],
			"name": "process_token_withdraw_stream",
			"outputs": [],
			"stateMutability": "payable",
			"type": "function"
		},
		{
			"inputs": [
				{
					"internalType": "uint64",
					"name": "amount",
					"type": "uint64"
				},
				{
					"internalType": "bytes",
					"name": "sender",
					"type": "bytes"
				},
				{
					"internalType": "bytes",
					"name": "token_mint",
					"type": "bytes"
				}
			],
			"name": "process_token_withdrawal",
			"outputs": [],
			"stateMutability": "payable",
			"type": "function"
		},
		{
			"inputs": [
				{
					"internalType": "uint16",
					"name": "chainId",
					"type": "uint16"
				},
				{
					"internalType": "bytes32",
					"name": "applicationAddr",
					"type": "bytes32"
				}
			],
			"name": "registerApplicationContracts",
			"outputs": [],
			"stateMutability": "nonpayable",
			"type": "function"
		},
		{
			"stateMutability": "payable",
			"type": "receive"
		}
	]
}